:020000040800F2
:1000000000110020C1040008DD010008DF01000824
:10001000E3010008E7010008EB0100080000000010
:10002000000000000000000000000000EF010008D8
:10003000F101000800000000F3010008F5010008CC
:10004000DB040008DB040008DB040008DB04000814
:10005000DB040008DB040008DB040008DB04000804
:10006000DB040008DB040008DB040008DB040008F4
:10007000DB040008DB040008DB040008DB040008E4
:10008000DB040008DB040008DB040008DB040008D4
:10009000DB040008DB040008DB040008DB040008C4
:1000A000DB040008DB040008DB040008DB040008B4
:1000B000C5460008DB040008DB040008DB04000878
:1000C000DB040008DB040008DB040008DB04000894
:1000D000DB040008DB040008DB04000881330008AF
:1000E000DB040008DB040008DB04000800F002F871
:1000F00000F05FF80AA090E8000C82448344AAF163
:100100000107DA4501D100F054F8AFF2090EBAE860
:100110000F0013F0010F18BFFB1A43F0010318473B
:1001200000910000209100000A444FF0000C10F8EC
:10013000013B13F0070408BF10F8014B1D1108BF65
:1001400010F8015B641E05D010F8016B641E01F805
:10015000016BF9D113F0080F1EBF10F8014BAD1C55
:100160000C1B09D16D1E58BF01F801CBFAD505E073
:1001700014F8016B01F8016B6D1EF9D59142D6D3CD
:10018000704700000023002400250026103A28BFF5
:1001900078C1FBD8520728BF30C148BF0B607047F9
:1001A000642905F0EB83002070471FB51FBD10B513
:1001B00010BD05F0BDFC1146FFF7F7FF00F00CF98C
:1001C00005F0DBFC03B4FFF7F2FF03BC02F050FBC9
:1001D00030BF72B662B680F308887047704700BFC0
:1001E000FEE700BFFEE700BFFEE700BFFEE7704787
:1001F00070477047704700000CB5002001900090D8
:100200006C48006840F480306A49086000BF694863
:10021000006800F4003000900198401C01900098A4
:1002200018B90198B0F5A06FF1D16248006800F4E8
:10023000003010B10120009001E0002000900098F3
:10024000012843D15C48006840F010005A4908601A
:100250000846006820F0030008600846006840F087
:1002600002000860534840685249486008464068A8
:1002700048600846406840F480604860084640682E
:1002800020F47C1048600846406840F4E81048605C
:100290000846006840F08070086000BF454800686C
:1002A00000F000700028F9D04248406820F00300B8
:1002B000404948600846406840F00200486000BF7E
:1002C0003C48406800F00C000828F9D10CBD10B57E
:1002D000FFF792FF10BD10B53648006840F00100EE
:1002E000344908600846406834490840314948604C
:1002F00008460068324908402E49086008460068F0
:1003000020F4802008600846406820F4FE00486021
:100310004FF41F008860FFF7DAFF4FF000602949B3
:10032000086010BD10B5002100200022214B5B6841
:1003300003F00C0121B1042906D0082928D107E0D7
:10034000214B224C236027E01F4B204C236023E0ED
:10035000184B5B6803F47010164B5B6803F4803233
:10036000022303EB904022B9194B4343174C2360FF
:100370000DE0104B5B6803F4003323B1144B43438F
:10038000124C236003E0104B4343104C236003E006
:100390000D4B0E4C236000BF00BF064B5B68C3F3E0
:1003A00003130C4CE15C094B1B68CB40074C2360EA
:1003B00010BD000000100240002002400000FFF8C5
:1003C000FFFFF6FE08ED00E000127A0000000020BA
:1003D00000093D000400002002F082F84FF4FA30DA
:1003E00002F054FA012002F0D5F902F091FA02F07D
:1003F000BFFA022002F0E4F8642002F0AEF802F046
:10040000F3FD642002F0A9F802F039FD41F61F4126
:10041000632002F075FE8F2142F20F7002F0FAFEA7
:100420008F2142F20F7002F099FE03F097F903F06A
:100430007DFB31E0072003F08CFA184908600820A2
:1004400003F087FA16490860052003F082FA15497F
:100450000860062003F07DFA1349086003F056FA9D
:100460001249086012480078012804D103F027F9E6
:1004700000200F49087004F00BFA01200D490870A4
:1004800000200D49087000BF0A4800780028FBD101
:1004900032210AA005F032FACCE70000C0000020AB
:1004A000C4000020C8000020CC000020D0000020A4
:1004B00068000020650000206400002025640A0018
:1004C0000948804709480047FEE7FEE7FEE7FEE7E8
:1004D000FEE7FEE7FEE7FEE7FEE7FEE70448054924
:1004E000054A064B70470000D7020008ED000008DF
:1004F000000B002000110020000D0020000D002046
:1005000031490143314A1160704770B50021002321
:100510000F22C47804B32D4C246804F4E064C4F5BD
:10052000E064210AC1F10403CA40447804FA03F1EB
:100530008478144021430901254C0678A15504789C
:1005400004F01F050124AC4005786D11AD0005F1E4
:10055000E025C5F8004109E0047804F01F050124F6
:10056000AC401C4D0678761145F8264070BD1A4AFD
:100570000A400243154B1B1F1A60704739B1134ADA
:10058000121D12680243114B1B1D1A6006E00F4A30
:10059000121D126882430D4B1B1D1A607047042800
:1005A00008D14FF0E021096941F004014FF0E02249
:1005B000116107E04FF0E021096921F004014FF0DB
:1005C000E0221161704700000000FA050CED00E028
:1005D00000E400E080E100E080FFFF1F10B504466A
:1005E000FA48844208D10121401500F01DFE002187
:1005F000601500F019FE17E0F548844208D101218A
:10060000001500F011FE0021201500F00DFE0BE09A
:10061000F048844208D10121C80300F005FE002102
:100620004FF4004000F000FE10BD30B5024600203F
:1006300000235068E84C20400D790C6844EA0524FA
:10064000204350609068E54C2040D1E902542C438F
:100650004D7944EA450420439060D06A20F470004C
:100660000C7C641EE4B2234340EA0350D06230BDE8
:1006700000210160017141718160C160012101743B
:10068000704721B1826842F00102826003E0826813
:1006900022F001028260704721B1826842F48072C8
:1006A000826003E0826822F480728260704710B535
:1006B0000023CBB21AB144681C43446002E0446892
:1006C0009C43446010BD816841F00801816070471F
:1006D000014600208A6802F008020AB1012000E009
:1006E00000207047816841F0040181607047014635
:1006F00000208A6802F004020AB1012000E0002014
:10070000704721B1826842F4A002826003E08268EF
:1007100022F4A00282607047014600208A6802F439
:1007200080020AB1012000E00020704710B50A469F
:1007300000210023416821F46041531E41EA433106
:10074000416010BD21B1426842F40062426003E0A2
:10075000426822F4006242607047F0B504460D46DC
:1007600000200021092D11DDE068A5F10A0606EB45
:100770004607072606FA07F18843A5F10A0606EBA5
:10078000460603FA06F10843E0600CE0206905EB39
:100790004507072606FA07F1884305EB450603FAE5
:1007A00006F108432061072A0FDA606B561E06EB3C
:1007B00086071F2606FA07F18843561E06EB8606B3
:1007C00005FA06F10843606322E00D2A0FDA206B78
:1007D000D61F06EB86071F2606FA07F18843D61FA9
:1007E00006EB860605FA06F10843206310E0E06A8E
:1007F000A2F10D0606EB86071F2606FA07F18843CD
:10080000A2F10D0606EB860605FA06F10843E06242
:10081000F0BD21B1826842F48012826003E08268F8
:1008200022F48012826070470146C86C80B2704723
:1008300066484C300068704721B1426842F48062DB
:10084000426003E0426822F480624260704721B156
:10085000426842F48052426003E0426822F48052CF
:10086000426070470A460021816821F4E04111434B
:100870008160704721B1826842F40042826003E0E7
:10088000826822F400428260704721B1826842F49B
:100890000212826003E0826822F4021282607047D2
:1008A000014600208A6802F400120AB1012000E02B
:1008B00000207047F0B504461546002000220026AF
:1008C000092911DDE068A1F10A0707EB470C0727AA
:1008D00007FA0CF29043A1F10A0707EB470703FA66
:1008E00007F21043E0600CE0206901EB410C0727A0
:1008F00007FA0CF2904301EB410703FA07F21043A9
:100900002061A06BC0F30156EF1C06F1010CA7EBB0
:100910000C0707EB870C1F2707FA0CF29043EF1C1C
:1009200006F1010CA7EB0C0707EB870701FA07F2AA
:100930001043A063F0BD10B50A4600210023816B6F
:1009400021F44011531E41EA0351816310BD08B5E3
:10095000002300930090009B0B440093009B1A60BF
:1009600008BD08B5024600200090009201F1280061
:10097000009B184400900098006880B208BD0A46A9
:1009800000214168164B1940114341607047416294
:10099000826270470A460021416821F01F0111431D
:1009A0004160704740B109490831096841F40001CC
:1009B000064A0832116007E004490831096821F449
:1009C0000001024A08321160704700000024014013
:1009D00000280140003C0140FFFEF0FFFDF7F1FF61
:1009E000FFFD3FFF0246002013680B400BB10120C2
:1009F00000E000207047CA430260704770B50246AD
:100A00000020002300240B125568CEB205EA06042C
:100A100015681D4015B10CB1012000E0002070BD2B
:100A200000220A12D34303607047000010B5012072
:100A300000F014FC002000F011FC10BD2A490860F1
:100A400070472949091F08607047274984310860A9
:100A5000704701460020254A10884FF67F4210401B
:100A60000843224A10807047014600201F4A108820
:100A70004FF68072104008431C4A1080704708B53A
:100A800000220092194A2C3A0092009A02440092E5
:100A9000009A116008BD08B5014600200090134877
:100AA0002C3800900098084400900098008808BDF9
:100AB0000D489C300068C0B270470C480830008870
:100AC00040F0010009490831088070470648A0300D
:100AD0000068C0B2704705480830008840F0020046
:100AE000024908310880704704860D422C6C004092
:100AF00010B50446CC48844208D10121042000F0FE
:100B000093FB0021042000F08FFB46E0C74884429D
:100B100008D10121082000F087FB0021082000F007
:100B200083FB3AE0C248844208D10121102000F042
:100B30007BFB0021102000F077FB2EE0BD488442B3
:100B400008D10121202000F06FFB0021202000F0BF
:100B50006BFB22E0B848844208D10121402000F01C
:100B600063FB0021402000F05FFB16E0B3488442A5
:100B700008D10121802000F057FB0021802000F0E7
:100B800053FB0AE0AE48844207D10121801500F0F2
:100B90004BFB0021A01500F047FB10BD10B5012153
:100BA000084600F041FB0021012000F03DFB10BD94
:100BB0002DE9F041024600250026002000230024F4
:100BC000002791F803C00CF00F0591F803C00CF05A
:100BD000100CBCF1000F03D091F802C04CEA0505DF
:100BE00091F800C0BCF1000F31D0146800202BE058
:100BF0004FF0010C0CFA00F3B1F800C00CEA030648
:100C00009E4220D183004FF00F0C0CFA03F7BC4337
:100C100005FA03FC4CEA040491F803C0BCF1280F68
:100C200006D14FF0010C0CFA00FCC2F814C00AE027
:100C300091F803C0BCF1480F05D14FF0010C0CFA3C
:100C400000FCC2F810C0401C0828D1D31460B1F8D1
:100C500000C0BCF1FF0F34DD546800202EE000F12D
:100C6000080C4FF0010808FA0CF3B1F800C00CEAC8
:100C700003069E4221D183004FF00F0C0CFA03F7BC
:100C8000BC4305FA03FC4CEA040491F803C0BCF130
:100C9000280F05D100F1080C08FA0CF8C2F81480EE
:100CA00091F803C0BCF1480F07D100F1080C4FF0D8
:100CB000010808FA0CF8C2F81080401C0828CED3AE
:100CC0005460BDE8F0814FF6FF7101800221817010
:100CD0000421C17070470246002093680B400BB19D
:100CE000012000E0002070470146886880B270470C
:100CF00002460020D3680B400BB1012000E0002029
:100D000070470146C86880B2704701617047416111
:100D100070470AB1016100E041617047C1607047EE
:100D20004FF480320A438261816182618269826903
:100D3000704702460020434B18684FF680731840F6
:100D400040EA021008433F4B186070473E49C861B3
:100D50007047F0B50A46002300240021002500F06A
:100D60000046B6F1004F02D1364EF16901E0354E32
:100D70007168C0F3034583B200F44016B6F5401F16
:100D800008D121F070612F4E766826F070662D4FE5
:100D90007E6012E000F48016B6F5801F06D10326AF
:100DA00006FA05F4A14341F0706106E0460D3601F4
:100DB00003FA06F6B14341F0706122B1460D3601E7
:100DC00003FA06F6314300F00046B6F1004F02D1B7
:100DD0001C4EF16101E01B4E7160F0BD30B5002288
:100DE0008B071C0F0F2303FA04F2164B08338C10E9
:100DF00053F824309343134C08348D1044F82530B5
:100E000023468C1053F824308C07240F00FA04F486
:100E100023430C4C08348D1044F8253030BD0A496A
:100E2000DC3108607047000000080140000C014000
:100E3000001001400014014000180140001C014056
:100E400000200140000001400000204210B50121B7
:100E5000080700F0F6F900214FF0805000F0F1F99A
:100E600010BD2A4908627047284908617047014649
:100E70000020274A106820F0E00008431060704707
:100E80002249A0310860704710B502460020204B6F
:100E9000186820F00300104318601E4B1B6843F0D5
:100EA00004031C4C2360012901D130BF00E020BFA6
:100EB000184B1B6823F00403164C236010BD144824
:100EC000006840F00400124908600846006840F0DD
:100ED000020008600F48006840F004000D490860F7
:100EE00000BF00BF30BF704701460020084A52686B
:100EF0000A400AB1012000E0002070470449096857
:100F000041EA8001024A11607047000000000E4271
:100F10000070004010ED00E0DF48006840F0010084
:100F2000DD49086008464068DC490840DA49486005
:100F300008460068DA490840D74908600846006852
:100F400020F4802008600846406820F4FE004860D5
:100F50004FF41F0088607047CF49096821F4803141
:100F6000CD4A11601146096821F480211160B0F565
:100F7000803F03D0B0F5802F0ED106E0C649096846
:100F800041F48031C44A116007E0C349096841F463
:100F9000A021C14A116000E000BF00BF704710B53A
:100FA00001460022002300204A11012A02D1BA4C36
:100FB000236806E0022A02D1B74C236A01E0B64C4E
:100FC000636A01F01F02012494401C400CB101200F
:100FD00000E0002010BD38B500200090002400255E
:100FE00000BF3120FFF7DBFF05460098401C009052
:100FF0000098B0F5A06F01D0002DF2D03120FFF79E
:10100000CEFF08B1012400E00024204638BD01468F
:101010000020A14A106820F0F80040EAC1001060EA
:101020007047A04908607047024600209A4B5868F4
:1010300020F47C1042EA01031843974B5860704734
:1010400098490866704701460020934A506820F08E
:1010500003000843506070478F48406800F00C0060
:101060007047014600208C4A506820F0F000084389
:101070005060704701460020874A506820F4E060C5
:1010800008435060704701460020834A506820F4AE
:10109000605040EAC1005060704729B17E4A527AE0
:1010A00002437D4B5A7204E07B4A527A82437A4B68
:1010B0005A7270477B49D83108607047014600205A
:1010C000754A506820F44040084350607047002142
:1010D000714A20321170704A82F82010012802D023
:1010E00004280AD104E001216B4A2032117005E086
:1010F0000521694A2032117000E000BF00BF70472F
:101100006949086070476449096A0143624A11628B
:101110007047654944390860704730B500210022A6
:10112000002400235C4D6D6805F00C0121B10429F9
:1011300005D0082923D105E05C4D056022E05B4D18
:1011400005601FE0544D6D6805F47012524D6D68D6
:1011500005F48034022505EB92421CB9544D5543E9
:1011600005600BE04C4D6D6805F400351DB1504D28
:101170005543056002E04D4D5543056002E04B4D7F
:10118000056000BF00BF444D6D6805F0F00109091E
:10119000484D6B5C0568DD4045603F4D6D6805F46A
:1011A000E061090A434D6B5C4568DD4085603A4D5E
:1011B0006D6805F46051C90A3E4D6B5C4568DD40C1
:1011C000C560354D6D6805F44041890B3A4D6B5C47
:1011D000C568B5FBF3F5056130BD29B12E4A5269EA
:1011E00002432D4B5A6104E02B4A526982432A4B39
:1011F0005A61704729B1284A92690243264B9A6185
:1012000004E0254A92698243234B9A61704729B1D1
:10121000214AD2690243204BDA6104E01E4AD269B6
:1012200082431D4BDA61704729B11B4AD2680243E1
:10123000194BDA6004E0184AD2688243164BDA6030
:10124000704729B1144A12690243134B1A6104E032
:10125000114A12698243104B1A6170471249403992
:10126000086070470F49C86470470B49C8717047E0
:101270000948406A40F0807007494862704701465B
:101280000020054A92680A400AB1012000E00020CF
:101290007047014988727047001002400000FFF853
:1012A000FFFFF6FE000042428004424200127A0034
:1012B00000093D00D4000020E400002010B50446E1
:1012C000FE48844208D10121C014FFF7ADFF002180
:1012D000E014FFF7A9FFC4E0B4F1804F08D1012169
:1012E0000846FFF7AEFF00210120FFF7AAFFB8E094
:1012F000F348844208D101210220FFF7A2FF002118
:101300000220FFF79EFFACE0EE48844208D10121A5
:101310000420FFF796FF00210420FFF792FFA0E0D2
:10132000E948844208D101210820FFF78AFF002103
:101330000820FFF786FF94E0E448844208D10121A9
:101340001020FFF77EFF00211020FFF77AFF88E0D2
:10135000DF48844208D101212020FFF772FF0021DD
:101360002020FFF76EFF7CE0DA48844208D101219B
:101370004014FFF759FF00216014FFF755FF70E09C
:10138000D548844209D10121C804FFF74DFF00214F
:101390004FF40020FFF748FF63E0D048844209D1B2
:1013A00001210805FFF740FF00214FF48010FFF7EF
:1013B0003BFF56E0CA48844209D101214805FFF7A6
:1013C00033FF00214FF40010FFF72EFF49E0C5481E
:1013D000844208D101214020FFF733FF0021402043
:1013E000FFF72FFF3DE0C048844208D10121802053
:1013F000FFF727FF00218020FFF723FF31E0BB48E4
:10140000844208D101218015FFF71BFF0021A015A0
:10141000FFF717FF25E0B648844209D101210804EF
:10142000FFF702FF00214FF48030FFF7FDFE18E0C8
:10143000B048844209D101214804FFF7F5FE00219C
:101440004FF40030FFF7F0FE0BE0AB48844208D1C8
:1014500001218804FFF7E8FE00214FF48020FFF708
:10146000E3FE10BD00220288944B98420ED0994BA7
:1014700098420BD0B0F1804F08D0914B984205D0E4
:10148000904B984202D0904B984204D14FF68F7304
:101490001A404B881A438D4B984207D08C4B984288
:1014A00004D04FF6FF431A40CB881A4302808B8842
:1014B00083850B880385814B98420BD0854B9842DE
:1014C00008D08B4B984205D08A4B984202D08A4B69
:1014D000984201D10B7A038601238382704770B54D
:1014E000002400220023058C4FF6FE76354005844B
:1014F000028C8388048B4FF68F752C40B51E2C40D0
:101500000D882C43751E2A400D892A434D882A4395
:101510006A4DA8420BD06F4DA84208D0744DA84226
:1015200005D0744DA84202D0734DA84213D14FF696
:10153000F7752A404D892A434FF6FB752A408D885E
:101540002A434FF6FF652B404FF6FF552B408D8900
:101550002B43CD892B4383800483CD8885860284E9
:1015600070BD70B5002400220023058C4FF6EF7685
:1015700035400584028C8388048B48F6FF752C4027
:101580004FF6FF452C400D884FF6FF7606EA0525FD
:101590002C434FF6DF752A400D8906EA05152A43CC
:1015A0004D8806EA05152A43444DA84202D0494D0C
:1015B000A8421DD14FF67F752A404D894FF6FF7620
:1015C00006EA05152A434FF6BF752A408D8806EABC
:1015D00005152A434FF6FF352B404FF2FF752B4080
:1015E0008D8906EA85052B43CD8906EA85052B43BF
:1015F00083800483CD880587028470BD70B5002484
:1016000000220023058C4FF6FF6635400584028CCE
:101610008388848B4FF68F752C404FF6FC752C40D9
:101620000D882C434FF6FF552A400D894FF6FF7663
:1016300006EA05252A434D8806EA05252A431F4D5B
:10164000A84202D0234DA8421DD14FF2FF752A4077
:101650004D894FF6FF7606EA05252A434FF6FF35FA
:101660002A408D8806EA05252A434EF6FF752B4051
:101670004DF6FF752B408D8906EA05152B43CD8964
:1016800006EA05152B4383808483CD8885870284F1
:1016900070BD70B5002200230024058C4EF6FF7645
:1016A00035400584038C8488828B48F6FF752A4078
:1016B0004FF6FF452A400D8820E00000002C014035
:1016C0000004004000080040000C004000100040F2
:1016D0000014004000340140004C01400050014023
:1016E0000054014000180040001C00400020004051
:1016F0000040014000440140004801404FF6FF76A1
:1017000006EA05252A434DF6FF752B400D8906EAAA
:1017100005352B434D8806EA05352B43FA4DA84283
:1017200002D0FA4DA84208D14BF6FF752C408D89A6
:101730004FF6FF7606EA85152C4384808283CD8898
:10174000A0F84050038470BD828B4FF2FF331A40E3
:101750008283828B4FF6FF7303EA01231A4382834D
:101760007047F0B50C461546002200210026078C74
:101770004EF6FF7C07EA0C070784828B018C4FF63C
:10178000FF7707EA043640F6FF473A404FF6FF7707
:1017900007EA05273A434FF6FF7707EA03373A434C
:1017A000D94FB8420ED0D94FB8420BD0B0F1804FCC
:1017B00008D0D74FB84205D0D64FB84202D0D64F46
:1017C000B84206D14DF6FF77394046F48057394389
:1017D00005E047F6FF57394044F480573943828388
:1017E0000184F0BD828B4FF6F3731A408283828BA3
:1017F0000A4382837047F0B50C461546002200214B
:101800000026078C4FF6FF6C07EA0C070784828BD3
:10181000018C4FF6FF7707EA04264FF60C773A4023
:101820004FF6FF7707EA03172F433A43B64FB84204
:101830000ED0B64FB8420BD0B0F1804F08D0B44FA5
:10184000B84205D0B34FB84202D0B34FB84206D128
:101850004FF6FF57394046F48077394305E04FF2A1
:10186000FF57394044F48077394382830184F0BDC7
:10187000028B4FF2FF331A400283028B4FF6FF7345
:1018800003EA01231A4302837047F0B50C4615465C
:10189000002200210026078C4FF6EF7C07EA0C0798
:1018A0000784028B018C4FF6FF7707EA041640F697
:1018B000FF473A404FF6FF7707EA03373A434FF6C0
:1018C000FF7707EA05273A438F4FB8420ED08F4F74
:1018D000B8420BD0B0F1804F08D08D4FB84205D040
:1018E0008C4FB84202D08C4FB84206D14FF6DF770A
:1018F000394046F01007394305E04FF65F7739402D
:1019000044F01007394302830184F0BD028B4FF687
:10191000F3731A400283028B0A4302837047F0B5C7
:101920000C46154600220021068C4FF6FE773E40FD
:101930000684028B018C4FF60C7632407E1C06EA40
:1019400003162E433243704EB0420ED06F4EB0425B
:101950000BD0B0F1804F08D06D4EB04205D06D4E27
:10196000B04202D06C4EB04206D14FF6FD76314007
:1019700044F00106314305E04FF6F576314044F07E
:101980000106314302830184F0BD70B505460C4663
:101990005D4885420ED05D4885420BD0B5F1804F41
:1019A00008D05B48854205D05A48854202D05A4843
:1019B000854200D100E000BF208850B92389A28869
:1019C00061882846FFF7ABFFE1882846FFF79EFFB6
:1019D00025E0208804280AD12389A2886188284626
:1019E000FFF753FFE1882846FFF742FF17E0208802
:1019F00008280AD12389A28861882846FFF7FBFEC0
:101A0000E1882846FFF7EEFE09E02389A288618875
:101A10002846FFF7A6FEE1882846FFF795FE70BD31
:101A20002DE9F04105460C4600260127608808B9DB
:101A3000022600E00026A088012801D1022700E04C
:101A400001272088A0B92389A28861882846FFF74A
:101A500066FFE1882846FFF759FF23893A46314659
:101A60002846FFF712FFE1882846FFF701FF13E041
:101A70002389A28861882846FFF707FFE188284666
:101A8000FFF7F6FE23893A4631462846FFF747FF1F
:101A9000E1882846FFF73AFFBDE8F0810A884B88C5
:101AA0001A438B881A43CB881A430B891A434B89F4
:101AB0001A438B891A43A0F8442070474FF6FF71F0
:101AC000818000210180C180418001727047002126
:101AD000018041808180C180018141818181C181FA
:101AE0007047002101804180012181800021C18057
:101AF000018170470021018041808180C180018186
:101B00004181818170470000002C01400034014078
:101B10000004004000080040000C004021B1028891
:101B200042F00102028004E002884FF6FE731A4080
:101B30000280704731B1B0F8442042F40042A0F86E
:101B4000442005E0B0F84420C2F30E02A0F844207F
:101B500070471AB183890B43838102E083898B43E9
:101B6000838170478182704741EA0203A0F84830C0
:101B700070471AB183890B43838102E083898B43C9
:101B80008381704701894FF6F872114001817047D7
:101B90000A46002101894FF68F73194011430181D4
:101BA000704730B504460D4629462046FFF7F0FF42
:101BB000208940F00700208130BD2DE9F041044626
:101BC0000D4616461F46602D06D13B460122314682
:101BD0002046FFF75AFE05E03B46012231462046EB
:101BE000FFF79DFE29462046FFF7D2FF208940F0EF
:101BF00007002081BDE8F08130B50C460021018945
:101C0000C9B24FF6FF7505EA03251543254329435D
:101C1000018130BD2DE9F04105460E461746984634
:101C2000002443463A4631462846FFF7E5FF2C8913
:101C30004FF6F870044044F007044FF68F700440EC
:101C400044F070042C81BDE8F081F0B504460D46E7
:101C500016461F463B46324629462046FFF7CCFF34
:101C6000208940F480402081F0BD01858282704748
:101C70000A46002101884FF68F73194011430180F5
:101C80007047F0B50C4615461E4600210022002381
:101C90000189028B038C4FF6F877394021434FF6C8
:101CA000FC473A4040F201173A434FF6DD773B409C
:101CB0004FF6FF7707EA06172F433B430181028364
:101CC0000384F0BD0A460021018B4FF68F73194043
:101CD0001143018370470A460021018B48F6FF73C8
:101CE00019404FF6FF7303EA02231943018370473B
:101CF0000A460021818B4FF68F731940114381836F
:101D000070470A460021818B48F6FF7319404FF651
:101D1000FF7303EA022319438183704721B10288CC
:101D200042F08002028004E002884FF67F731A407E
:101D30000280704721B1828842F00402828004E070
:101D400082884FF6FB731A408280704721B18288E7
:101D500042F00802828004E082884FF6F7731A404E
:101D60008280704721B1828842F00102828004E0C3
:101D700082884FF6FE731A40828070470A4600211F
:101D8000018B4FF6F77319401143018370470A46E0
:101D90000021018B4FF2FF7319404FF6FF7303EAE6
:101DA00002231943018370470A460021818B4FF6B5
:101DB000F77319401143818370470A460021818BD4
:101DC0004FF2FF7319404FF6FF7303EA02231943E2
:101DD000818370470A460021018B4FF6FB7319403F
:101DE0001143018370470A460021018B4FF6FF33F0
:101DF00019404FF6FF7303EA02231943018370472A
:101E00000A460021818B4FF6FB73194011438183F1
:101E100070470A460021818B4FF6FF3319404FF679
:101E2000FF7303EA02231943818370470A460021A6
:101E3000018B4FF67F7319401143018370470A46A7
:101E40000021018BC1F30E014FF6FF7303EA022359
:101E50001943018370470A460021818B4FF67F7337
:101E600019401143818370470A460021818BC1F3D9
:101E70000E014FF6FF7303EA022319438183704773
:101E80000A460021018C4FF6FD731940114301846D
:101E900070470A460021018C4FF6F7731940114331
:101EA000018470470A460021018C4FF6DF73194008
:101EB0004FF6FF7303EA02131943018470470A4681
:101EC0000021018C4FF67F7319404FF6FF7303EA30
:101ED00002131943018470470A460021018C4FF612
:101EE000FF5319404FF6FF7303EA0223194301849D
:101EF00070470A460021018C4FF2FF7319404FF6DC
:101F0000FF7303EA02231943018470470A46002144
:101F1000018C4DF6FF7319404FF6FF7303EA02334D
:101F200019430184704730B5002301248C40A3B2CB
:101F3000048C9C430484048C02FA01F5ADB22C435A
:101F4000048430BD30B5002304248C40A3B2048C3B
:101F50009C430484048C02FA01F5ADB22C43048442
:101F600030BD70B503460020002418461830012506
:101F70008D40ACB21D8CA5431D8409B1082909D13F
:101F800000EB6100056825F07005056005681543E4
:101F900005600EE00D1FC5F34E052844056825F4C5
:101FA000E045056005684FF6FF7606EA02263543F0
:101FB000056070BD21B1028842F00202028004E097
:101FC00002884FF6FD731A400280704721B10288E3
:101FD00042F00402028004E002884FF6FB731A40CC
:101FE0000280704721B1828842F08002828004E042
:101FF00082884FF67F731A408280704702884FF6BE
:10200000F7731A40028002880A4302807047828870
:102010004FF68F731A40828082880A43828070470D
:1020200002894FF6F8731A40028102890A4302813D
:10203000704702894FF67F731A40028102890A4372
:10204000028170478184704781857047818670471F
:102050000187704781877047A0F840107047028859
:102060004FF6FF431A40028002880A4302807047FD
:102070000146888E70470146088F70470146888F59
:1020800070470146B1F8400070470146888C7047A0
:102090000146088D704702460020138A0B400BB1A1
:1020A000012000E000207047CA430282704730B52B
:1020B0000246002000230024158A05EA01039589C1
:1020C00005EA010413B10CB1012000E0002030BD8D
:1020D000CA4302827047000010B50446FB488442A0
:1020E00009D101218803FFF79FF800214FF48040B8
:1020F000FFF79AF832E0F648844209D101214804FA
:10210000FFF79FF800214FF40030FFF79AF825E021
:10211000F048844209D101218804FFF792F8002198
:102120004FF48020FFF78DF818E0EB48844209D186
:102130000121C804FFF785F800214FF40020FFF7C4
:1021400080F80BE0E548844208D101210805FFF73B
:1021500078F800214FF48010FFF773F810BD2DE9D7
:10216000F04786B005460E460024A24600BFA146B1
:102170000027B08900B100BF2F462C8A4CF6FF70B3
:102180000440F08804432C82AC894EF6F3100440DE
:10219000B08831890843718908430443AC81AC8A13
:1021A0004FF6FF400440B0890443AC8201A8FEF71B
:1021B000B4FFC648874202D1DDF810A001E0DDF887
:1021C0000CA0A88900F4004040B10AEBCA0000EB63
:1021D0000A1031684900B0FBF1F807E00AEBCA00C9
:1021E00000EB0A1031688900B0FBF1F86420B8FBFD
:1021F000F0F004012009642101FB1089A88900F492
:10220000004040B1322000EBC900B0FBF1F000F01B
:102210000700044308E0322000EB09106421B0FB02
:10222000F1F000F00F0004432C8106B0BDE8F08708
:102230004FF41651016000218180C18001810C2181
:10224000418100218181704710B502460020108A2B
:102250004FF2FF0318400B884C8823438C8823439C
:10226000CC8823431843108210BD00210180418097
:102270008180C180704721B1828942F400528281FD
:1022800004E082894DF6FF731A4082817047F0B5F1
:102290000346002400260025002040F66A17B942B4
:1022A00000D100BF1846C1F3421401F01F060127F8
:1022B00007FA06F5012C01D10C3004E0022C01D103
:1022C000103000E014301AB107682F43076002E0B5
:1022D0000768AF430760F0BD1AB1838A0B4383825E
:1022E00002E0838A8B4383827047028A4FF6F07341
:1022F0001A400282028A0A430282704782894FF2A0
:10230000FF731A40828182890A438281704721B11A
:10231000828942F00202828104E082894FF6FD73D5
:102320001A4082817047028A4FF6DF731A40028298
:10233000028A0A430282704721B1028A42F4804233
:10234000028204E0028A4BF6FF731A400282704751
:10235000C1F308028280704701468888C0F30800F4
:102360007047818941F0010181817047028BD2B2AF
:102370000283028B42EA012202837047028B02F43D
:102380007F420283028B0A430283704721B1828A13
:1023900042F02002828204E0828A4FF6DF731A4004
:1023A0008282704721B1828A42F01002828204E068
:1023B000828A4FF6EF731A408282704721B1828A77
:1023C00042F00802828204E0828A4FF6F7731A40D4
:1023D0008282704721B1828942F40042828103E007
:1023E0008289C2F30E028281704721B1828A42F44F
:1023F0000062828204E0828A4FF2FF731A40828276
:102400007047828A4FF6FB731A408282828A0A439F
:102410008282704721B1828A42F00202828204E005
:10242000828A4FF6FD731A4082827047024600206E
:10243000B1F5007F00D100BF13880B400BB1012024
:1024400000E00020704701F40072B2F5007F00D177
:1024500000BFCA430280704770B5024600240023C3
:102460000025002040F66A16B14200D100BFC1F33A
:10247000421501F01F03012606FA03F3012D02D1D4
:102480009689334006E0022D02D1168A334001E0DE
:10249000968A33400C12012606FA04F4168834405A
:1024A00013B10CB1012000E0002070BD10B5002276
:1024B000002340F66A14A14200D100BF0A12012491
:1024C0009440A3B2DC43048010BD000000380140FA
:1024D0000044004000480040004C004000500040D4
:1024E00010B56FF00400FEF75AF82E4800682E4928
:1024F000B0FBF1F02D4908700846007800EB400170
:10250000C1EBC0104FF6FF7101EAC00028490880F6
:1025100010BD0146254A12784A434FF0E0235A6124
:1025200000229A611A46126942F001021A6100BF44
:102530004FF0E022106900F001021AB100F480327D
:10254000002AF5D04FF0E022126922F001024FF08C
:10255000E0231A6100229A6170470146144A1288EA
:102560004A434FF0E0235A6100229A611A461269E9
:1025700042F001021A6100BF4FF0E022106900F042
:1025800001021AB100F48032002AF5D04FF0E022A7
:10259000126922F001024FF0E0231A6100229A61D1
:1025A000704700000000002000127A00E8000020C0
:1025B000EA000020A34A0A400243A34B1A60704776
:1025C0000146072323EA010212029F4B1B1D1868D4
:1025D0004FF6FF0318409D4B184310439A4B1B1DA9
:1025E000186070472DE9F0410746884614461D469D
:1025F0002846FFF7E5FFC5F1040007FA00F60F20B3
:10260000284100EA0800064306F00F06E21704EB33
:10261000D2625211920002F1E022D2F8002121464A
:10262000E31704EBD3635B11A4EB431C012303FA10
:102630000CF31A432046E31704EBD3635B119B00B2
:1026400003F1E023C3F800218148005D40EA061051
:102650007F490855BDE8F08170B504460B46CE179A
:1026600001EB9676C6F38700CE1701EB9676B6108F
:10267000A1EB8606B606350E764B9B6943F0010347
:10268000744EB3614FEAB63353F820300F26AE4094
:10269000B343714E46F82030334653F8203004FAE5
:1026A00005F61E436C4B43F820606C4B1B680126FB
:1026B0008E403343694E336002F0010343B1674BF0
:1026C0000C331B6801268E403343644E0C36336056
:1026D00002F0020343B1614B08331E6801238B40B3
:1026E0001E435E4B08331E6070BD00B50020594983
:1026F0000861C8601420486100208861C8610846EC
:10270000006840F0010008600846406854490840ED
:102710005049486008460068524908404D490860E1
:102720000846006820F4802008600846406820F4CD
:10273000FE0048600020886000214FF00060FFF735
:1027400039FF00BD10B540480830006840F0040073
:102750003D49083108603F48C06940F080503D491C
:10276000C8614148406840F480703F49486008466D
:10277000006840F0040008600846006840F002006D
:102780000860FDF725FD10BD3048001D2E49091DCC
:1027900008607047014649062E4A926942F00102DC
:1027A0002C4B9A612C4A083A526822F0E0622A4B7C
:1027B000083B5A601A4652680A435A60704730B55F
:1027C00004460025FFF791FF2248006840F480305E
:1027D0002049086000BF1F480068400C0028FAD05C
:1027E0004FF480601B494860A01EC4B20846406890
:1027F00040EA844048600846406840F480304860C1
:102800001A48006840F03200184908601148006812
:1028100040F080700F49086000BF0E480068400E0D
:102820000028FAD00B48406840F00200094948608F
:1028300005E008484068C0F3870505F00305022D50
:10284000F7D130BD80FFFF1F08ED00E00000FA0562
:1028500000E400E0001002400800014000040140D4
:102860000000FFF8FFFFF6FE00700040002002406D
:1028700000BF704700BF244A128802F04002002ABD
:10288000F9D0C2B2204B1B1D1A80704710B586B01C
:102890000446012144F20400FEF7ACFC4FF4007042
:1028A000ADF8140003208DF8160018208DF81700DD
:1028B00005A91648FEF77CF94FF48060ADF81400C6
:1028C00004208DF8170005A91048FEF771F901944E
:1028D0000020ADF80800ADF80A00ADF80C00ADF826
:1028E00010000C20ADF80E0001A90748FFF737FCD7
:1028F000002240F225510448FFF7C9FC012102489B
:10290000FFF7B9FC06B010BD0038014000080140D7
:1029100008B501210420FEF76DFC1020ADF8000081
:102920008DF8030003208DF8020069460C48FEF77D
:102930003FF908BD18B900210A4A11600FE00A49A1
:102940000968491C084A1160814208D10549096893
:10295000C943064AC2F890110021034A116070472A
:102960000008014090012142F000002000002142B7
:1029700008B501210420FEF73DFC6020ADF8000001
:1029800048208DF8030069467748FEF711F90121C8
:102990001020FEF72FFC4FF46040ADF800004820F7
:1029A0008DF8030069467148FEF702F90120FEF731
:1029B00058FA0020FEF78BFB0020FEF742F80020BB
:1029C000FEF74FFA08BD01466948006828B9694812
:1029D0000088401C674A108002E00020654A108091
:1029E0006348006828B96448007810B90120624A39
:1029F000107062480078B0B95F480078012807D1AC
:102A00005F480078401C5E4A107001205B4A1070DD
:102A10005B480078022806D10020594A1070594AB4
:102A200010800220704752480068012804D100201D
:102A3000514A1070514A10705148007801281CD139
:102A400050480088401C4F4A108010460088884239
:102A50000ADD48480088884206DA0020484A10709B
:102A6000484A10800120DDE742480088884204DDA2
:102A70000020434A1070434A10800020D2E74248A9
:102A80000078002831D03A48006870B13F480068AB
:102A900058B13748001D006838B13C48001F006835
:102AA00018B13A4808380068F8B90020364A107062
:102AB0002F48006808B9012115E03448006808B9BA
:102AC000022110E031480838006808B903210AE003
:102AD0002748001D006808B9042104E02B48001FA6
:102AE000006800B90521C8B2704721480068012874
:102AF00014D126480068012810D11D48001D006827
:102B000001280BD12148001F0068012806D11F4869
:102B100008380068012801D11B4A10700020E3E743
:102B20001B48008840B91248006828B91948008835
:102B3000401C1849088002E000201649088015480A
:102B40000088C82807DD01201149088000201149AC
:102B50000880012070470E480088012802D100201B
:102B60000B4908800020F5E70008014000100140F3
:102B700014012142FA000020F4000020F50000209A
:102B8000F6000020F8000020FC0000203C0122425A
:102B900000010020FE00002010B50A461AB10123F2
:102BA000FE4C236002E00023FC4C2360002114E073
:102BB0000023FB4C236000F080031BB10123241F82
:102BC000236003E00023F64C241F23600123F44C10
:102BD00023604306180E4B1CD9B20829E8DB0123F9
:102BE000EE4C236010BD30B500241CE004F1B001B0
:102BF000C8B20021FFF7D0FF00210846FFF7CCFF45
:102C000000211020FFF7C8FF002508E0E54901EB8F
:102C1000C501085D0121FFF7BFFF681CC5B2802D0B
:102C2000F4DB601CC4B2082CE0DB30BD00B5002131
:102C30008D20FFF7B1FF00211420FFF7ADFF002129
:102C4000AF20FFF7A9FF00BD00B500218D20FFF7E1
:102C5000A3FF00211020FFF79FFF0021AE20FFF708
:102C60009BFF00BD30B500240CE0002506E00020ED
:102C7000CC4901EBC5010855681CC5B2802DF6DBB7
:102C8000601CC4B2082CF0DBFFF7ADFF30BDF0B51F
:102C9000144600267F2801DC3F2900DDF0BD0B46ED
:102CA000CF1701EB5777FF10C7F10707FAB2CF171D
:102CB00001EB5777FF10A1EBC707FDB2C5F107077E
:102CC0000123BB40DEB24CB1B64B03EBC0039B5CAF
:102CD0003343B44F07EBC007BB5408E0B14B03EBE1
:102CE000C0039B5CB343AF4F07EBC007BB5400BFAF
:102CF000D4E72DE9F04F80460C4615461E46A34604
:102D0000A5F12000C5B200273EE00C2E07D105EB4F
:102D10004500A54901EB800010F8079004E0A348A6
:102D200000EB051010F807904FF0000A26E009F0BC
:102D3000800028B121464046099AFFF7A8FF09E024
:102D4000099808B9012000E00020024621464046CB
:102D5000FFF79DFF4FEA49604FEA1069601CC4B25B
:102D6000A4EB0B00B04205D15C4608F1010000F075
:102D7000FF0806E00AF1010000F0FF0ABAF1080FAF
:102D8000D5DB00BF781CC7B2B742BEDBBDE8F08F11
:102D900010B50246012000E050430B1EA1F10104D2
:102DA000E1B2F9D110BD2DE9FF4F81B00746914640
:102DB0001E460E9D4FF0000A002439E0301B401ED5
:102DC000C1B20A20FFF7E4FFB9FBF0F00A21B0FB23
:102DD000F1F201FB1208BAF1000F16D1701EA042E9
:102DE00013DDB8F1000F0ED10120AB4605EBDB710E
:102DF000491001FB04710090C8B22B4620220299B1
:102E0000FFF777FF12E04FF0010A0120AB4605EB18
:102E1000DB71491001FB04710090C8B208F1300168
:102E2000CAB22B460299FFF764FF00BF601CC4B210
:102E3000B442C3DB05B0BDE8F08F78B505460E4659
:102E4000144618E07A2D03DD002506F11000C6B205
:102E50003A2E04DD002005460646FFF703FF012059
:102E6000009022780C2331462846FFF742FF05F1F7
:102E70000800C5B2641C20780028E3D178BD08B5ED
:102E800001210820FEF7B6F93820ADF80000102027
:102E90008DF8030002208DF8020069464448FDF7D2
:102EA00087FE01210420FEF7A5F94FF40040ADF89C
:102EB000000002208DF8020010208DF80300694602
:102EC0003C48FDF775FE0120FDF7CBFF0020FEF723
:102ED000FEF80020FDF7B5FD0020FDF7C2FF002041
:102EE0002F49083908606420FFF737FB0120324979
:102EF000C1F88C010021AE20FFF74EFE0021D52045
:102F0000FFF74AFE00215020FFF746FE0021A820CF
:102F1000FFF742FE00213F20FFF73EFE0021D320B5
:102F2000FFF73AFE00210846FFF736FE0021402059
:102F3000FFF732FE00218D20FFF72EFE0021142026
:102F4000FFF72AFE00212020FFF726FE00210220A5
:102F5000FFF722FE0021A120FFF71EFE0021C02066
:102F6000FFF71AFE0021DA20FFF716FE00211220DB
:102F7000FFF712FE00218120FFF70EFE0021EF2057
:102F8000FFF70AFE0021D920FFF706FE0021F120FD
:102F9000FFF702FE0021DB2010E00000BC0121420F
:102FA000948121422C020020228500089689000885
:102FB000000C01400008014000802142FFF7ECFDB9
:102FC00000213020FFF7E8FD0021A420FFF7E4FDF9
:102FD0000021A620FFF7E0FD0021AF20FFF7DCFD78
:102FE000FFF740FE08BD000000B587B001214FF497
:102FF0000170FEF7FFF84FF40040FEF75FF8802005
:10300000ADF8040000208DF8070001A93648FDF74F
:10301000CFFD3648FDF7E2FA002002908DF80C0053
:103020008DF80D004FF460200490002005900120E1
:103030008DF8180002A92D48FDF7F7FA01212B4859
:10304000FDF71FFB2948FDF73EFB00BF2748FDF7B2
:103050003FFB0028FAD12548FDF744FB00BF234879
:10306000FDF745FB0028FAD107B000BD10B50446B6
:103070000723012221461D48FDF76FFB01211B4854
:10308000FDF73FFB00BF02211848FDF7ABFC00280D
:10309000F9D01648FDF7C8FB10BD2DE9F04F85B0FB
:1030A0000720FFF7E3FF019004F0EEFA4FF06632DD
:1030B0000F4BCDE9020104F037FB804600220D4B97
:1030C00004F032FB064600220B4B04F02DFB0446B5
:1030D00000220A4B04F03AF9824604F08FFA049079
:1030E000049805B0BDE8F08F0008014000240140BD
:1030F00066660A4000002640000059400000B040CB
:103100007FB505460C4601210846FEF780F8ADF86C
:103110000850ADF804400020ADF80A00ADF80600F4
:1031200001A94FF08040FEF79DF90122114690075A
:10313000FEF70FFD1C208DF8000000208DF8010027
:1031400001208DF802008DF803006846FDF7DDF9D7
:1031500001218807FEF7E2FC7FBD000030B589B091
:1031600005460C4601210420FEF751F801210820F4
:10317000FEF740F84FF47070ADF8200018208DF87D
:10318000230002208DF8220008A94D48FDF710FD0C
:10319000ADF81850ADF814400020ADF81A00ADF8A5
:1031A000160005A94748FEF75DF96020ADF8040058
:1031B0000120ADF806000020ADF80A00ADF80C00C3
:1031C00001A94048FEF78BF901A93E48FEF7C9F96D
:1031D00001A93C48FEF712FA01A93A48FEF759FA4C
:1031E00008213848FEF7CAFD08213648FEF7CFFD12
:1031F00008213448FEF7D8FD08213248FEF7DDFDEE
:1032000001213048FEF78AFD01212E48FEF786FC99
:1032100009B030BD2C4A926942F400622A4B9A618F
:103220001A46926942F004029A61284A12684FF2E3
:103230000F039A43254B1A601A4612684BF20B0390
:103240001A43224B1A60224A1080121F1180204A12
:10325000103A128842F4C0421D4B103B1A801A1FCC
:10326000128842F060021B1F1A801A1D128842F455
:1032700000621B1D1A801A1F128842F008021B1FD1
:103280001A80134A0C3A128842F48052104B0C3BBD
:103290001A801A46128842F001021A800C4A18322B
:1032A000128842F400420A4B18331A808022084BDD
:1032B0002C3B1A801A46128842F001021A8070478D
:1032C000000C0140000800400010024004080140CA
:1032D0002C2C014010B586B0044601210820FDF7D2
:1032E00089FF01218804FDF792FF4FF48060ADF85B
:1032F000140003208DF8160018208DF8170005A97A
:103300003948FDF755FC4FF40060ADF81400042077
:103310008DF8170005A93448FDF74AFC27208DF8E1
:10332000000000208DF8010001208DF802008DF8CA
:1033300003006846FDF7E9F801940020ADF80800A5
:10334000ADF80A00ADF80C00ADF810000C20ADF897
:103350000E0001A92548FEF702FF012240F2255187
:103360002248FEF794FF01212048FEF784FF06B0B3
:1033700010BD10B51D48FEF7EFFFC4B2204610BDCA
:1033800010B540F225511948FFF766F858B140F2E0
:1033900025511648FFF78AF8FFF7EBFF044614485B
:1033A000047001F0F1FE10BD10B50446214611482D
:1033B000FEF7CEFF00BF80210C48FFF737F800284A
:1033C000F9D010BD10B5044603E02078FFF7ECFFFC
:1033D000641C20780028F8D100BF40210348FFF783
:1033E00025F80028F9D010BD000C0140004800402D
:1033F000D001002000380140C848C9494860C94888
:1034000048607047C648006940F08000C4490861C0
:103410007047C348C16801F0010008B1012070473E
:1034200001F0040008B10220F9E701F0100008B132
:103430000320F4E70020F2E770B5044600BFFFF771
:10344000E8FF0546012D00D006E00120FFF761F8F6
:10345000601E84B2002CF2D100BF04B9FF252846BB
:1034600070BD70B50546002445F6FF70FFF7E4FF18
:103470000446C4B9AA48006940F00200A84908619E
:1034800008464561006940F04000086145F6FF705C
:10349000FFF7D2FF0446012C05D0A148006920F0B7
:1034A00002009F490861204670BD70B505460E4672
:1034B000FF20FFF7C1FF044694B99948006940F026
:1034C0000100974908612E80FF20FFF7B5FF0446F1
:1034D000012C05D09248006920F001009049086154
:1034E000204670BD0146088870472DE9F041054629
:1034F0000E461746002407E036F814102846FFF75A
:10350000D4FFAD1C601C84B2BC42F5DBBDE8F08189
:1035100030B503460C461546002207E01846FFF773
:10352000E1FF24F812009B1C501C82B2AA42F5DB7A
:1035300030BD2DE9F05F80468A461746B8F1006F2E
:1035400002D37948804501D3BDE8F09FFFF754FFCF
:10355000A8F1006B4FEA9B25CBF34809C9F500742D
:10356000A74200DC3C464EE04FF0006101EB8520B5
:103570008A146E49FFF7CCFF00260BE009EB06002A
:103580006A4931F810004FF6FF71884200D003E01D
:10359000701C86B2A642F1DB00BFA6421BDA4FF0D8
:1035A000006101EB8520FFF75CFF002608E03AF898
:1035B000160006EB09015D4A22F81100701C86B264
:1035C000A642F4DB4FF0006101EB85208A145749D5
:1035D000FFF78BFF04E0224651464046FFF785FF88
:1035E000A74200D110E06D1C4FF000090AEB440A1D
:1035F00008EB4408381B87B2B7F5007F02DD4FF4B3
:10360000007400E03C46AFE700BFFFF7FBFE00BFE1
:103610009AE713B50446012201A92046FFF789FF66
:103620001CBD10B50A2242494248FFF771FF4048CD
:1036300000884FF6FF71884218D13D484088884283
:1036400014D13B488088884210D13948C0888842CC
:103650000CD1394839490860002039490860394897
:103660003949086039483A49086027E030490888F4
:1036700004F01AFD0446374904F000FC2F490860A5
:103680002B49488804F010FD0446324904F0F6FB4B
:103690002B4908602649888804F006FD04462D4918
:1036A00004F0ECFB284908602149C88804F0FCFCC0
:1036B0000446284904F0E2FB2549086010BD10B516
:1036C00024491E48006804F037FD044604F0B4FCA9
:1036D000214908801F491A48006804F02DFD04465E
:1036E00004F0AAFC1C4948801A491748006804F0F5
:1036F00023FD044604F0A0FC1749888015491448AE
:10370000006804F019FD044604F096FC1249C880D4
:103710000A220848FFF70DFF10BD0000230167458E
:1037200000200240AB89EFCD000001082C060020EC
:103730000402002000E000080000AF436C000020FD
:103740007000002000008C42740000203333333FAF
:10375000780000200000C84218020020FA48806962
:1037600040F00400F84988610846806940F008008C
:103770008861F648006820F47020F4490860084623
:10378000006840F440300860F1480068C0F313005E
:10379000EF4908600846006840F04E5008607047E6
:1037A00038B50446012000900020EA494870012005
:1037B00000902DE0BDF80000204018B10120E6493E
:1037C000086002E00020E44908600120E349086045
:1037D0000520FEF79EFE0020E149C1F8B00105205A
:1037E000FEF797FE0120DE49C1F8B001DD48D0F8B0
:1037F000340130B1D7484078BDF800100843D549AE
:103800004870BDF800004FF6FF7101EA40000090DB
:10381000BDF80000FF28CDDD1020FEF77AFE38BD90
:1038200010B50020CC49091D0860CF490878FFF782
:10383000B7FFCD494878FFF7B3FF0120C949C1F868
:10384000BC01C4484078732801D1002010BD01207C
:10385000FCE71CB500200190012000900020BE492B
:10386000091D0860C0490878FFF79AFFBE494878EB
:10387000FFF796FF0220019035E00120009026E03E
:103880000120B64908600520FEF743FE0020B44938
:10389000C1F8B0010520FEF73CFE0120B049C1F897
:1038A000B001B048D0F8340150B1AA489DF80410D6
:1038B000405CBDF800100843A6499DF804208854D8
:1038C000BDF800004FF6FF7101EA40000090BDF81E
:1038D0000000FF28D4DD1020FEF71BFE9DF8040039
:1038E000401CC0B201909DF804000928C5DB0120EE
:1038F0009949091D08601CBD002004E00021954A7B
:103900001154411CC8B20928F8DB704710B5FFF705
:10391000F3FFFFF79EFF8F48C0788E49097940EA90
:1039200001209249088000240FE0914810F814000B
:10393000401E012101FA00F08C490988084010B9A5
:10394000601CC0B210BD601CC4B2102CEDDB0020A6
:10395000F8E701467F48405C704770B505460C4665
:1039600000207D49091D08601020FEF7D2FD0120CE
:10397000FFF716FF4220FFF713FF0020FFF710FFAD
:103980002846FFF70DFF2046FFF70AFF0020FFF74C
:1039900007FF0020FFF704FF0020FFF701FF0020D2
:1039A000FFF7FEFE01206F49C1F8BC011020FEF7B1
:1039B000B0FD70BD10B500206749091D08601020DA
:1039C000FEF7A7FD0120FFF7EBFE4220FFF7E8FE20
:1039D0000020FFF7E5FE0020FFF7E2FE0020FFF7E2
:1039E000DFFE01205F49C1F8BC011020FEF791FD08
:1039F00010BD10B500205849091D08601020FEF7C1
:103A000088FD0120FFF7CCFE4320FFF7C9FE002010
:103A1000FFF7C6FE0120FFF7C3FE0020FFF7C0FE40
:103A20000020FFF7BDFE0020FFF7BAFE0020FFF7E1
:103A3000B7FE0020FFF7B4FE01204A49C1F8BC01DF
:103A40001020FEF766FD10BD10B500204249091D8B
:103A500008600120FFF7A4FE4420FFF7A1FE00202C
:103A6000FFF79EFE0020FFF79BFE0320FFF798FE66
:103A70000020FFF795FE0020FFF792FE0020FFF7E1
:103A80008FFE0020FFF78CFE01203649C1F8BC01F3
:103A90001020FEF73EFD10BD10B500202E49091D77
:103AA00008601020FEF735FD0120FFF779FE4D205C
:103AB000FFF776FE0020FFF773FE0020FFF770FE91
:103AC0000120FFF76DFE01202649C1F8BC0110203E
:103AD000FEF71FFD10BD10B500201F49091D08602D
:103AE0001020FEF716FD0120FFF75AFE4320FFF7D6
:103AF00057FE0020FFF754FE0020FFF751FE5A202A
:103B0000FFF74EFE5A20FFF74BFE5A20FFF748FE04
:103B10005A20FFF745FE5A20FFF742FE01201149C7
:103B2000C1F8BC011020FEF7F4FC10BD10B5FFF782
:103B300041FFFFF73FFFFFF73DFFFFF75AFFFFF79A
:103B400083FFFFF7C8FF10BD0010024004080140CA
:103B5000040C01402C0A0020B8812142B00121420E
:103B600000002142008021420401002002010020C7
:103B70000601002030B50546039C012030BD2DE92B
:103B8000F04706460F4614461D46DDE90889FA4807
:103B90000168304604F004F9F74908603946F748EF
:103BA000006804F0FDF8F54908602146F448006813
:103BB00004F0F6F8F24908602946F248006804F07B
:103BC000EFF8F04908604146EF48006804F0E8F873
:103BD000ED4908604946ED48006804F0E1F8EB491A
:103BE0000860E548006804F027FAE9490880E348DE
:103BF000006804F021FAE649091D0880E0480068E1
:103C000004F01AFAE24908310880DE48006804F03E
:103C100013FADF490C310880DB48006804F00CFA25
:103C2000DC490880D948006804F006FAD9490C310B
:103C30000880BDE8F08770B5D748006804F0E0F967
:103C40000646D548006880F00045284604F0D8F9BB
:103C50000446204604F010FA0546D048016828467C
:103C600004F036FB04D2204604F006FACB49086083
:103C7000304604F001FA0546C8480168284604F0B9
:103C800027FA04D2304604F0F7F9C4490860204608
:103C900004F0F2F90546C2480168284604F018FB12
:103CA00004D2204604F0E8F9BD490860304604F02B
:103CB000E3F90546BA480168284604F009FA04D237
:103CC000304604F0D9F9B6490860204604F0D4F92A
:103CD0000546B4480168284604F0FAFA04D22046A2
:103CE00004F0CAF9AF490860304604F0C5F905464A
:103CF000AC480168284604F0EBF904D2304604F0E1
:103D0000BBF9A8490860204604F0B6F90546A64864
:103D10000168284604F0DCFA04D2204604F0ACF92D
:103D2000A1490860304604F0A7F905469E4801689D
:103D3000284604F0CDF904D2304604F09DF99A49A2
:103D40000860204604F098F905469848016828461E
:103D500004F0BEFA04D2204604F08EF993490860BC
:103D6000304604F089F9054690480168284604F079
:103D7000AFF904D2304604F07FF98C490860204640
:103D800004F07AF905468A480168284604F0A0FA4A
:103D900004D2204604F070F985490860304604F0EA
:103DA0006BF9054682480168284604F091F904D26F
:103DB000304604F061F97E49086070BD2DE9F04796
:103DC00004460D462946204604F0B3FA79490860B6
:103DD000084601687848006803F0E2FF7649086009
:103DE000764801687348006804F0AEFA814674486A
:103DF0000168484604F0A0F98046724904F03EF894
:103E000006466D4801687048006804F095F98246DE
:103E10006C4904F033F88046664801686B480068D6
:103E200004F08AF98246674904F028F88146414641
:103E300003F0B6FF0746314603F0B2FF644908605D
:103E40005C4800685D49086061480068BDE8F0872B
:103E50002DE9F04704460D462946204604F069FA4C
:103E60005C490860084601685B48006803F098FFF9
:103E700059490860594801685648006804F064FAD6
:103E800081464F480168484604F056F980464D493E
:103E900003F0F4FF0646504801684B48006804F000
:103EA0004BF98246474903F0E9FF804649480168DB
:103EB0004648006804F040F98246424903F0DEFFBC
:103EC0008146414603F06CFF0746314603F068FF28
:103ED000434908603F48006840490860404800681E
:103EE000BDE8F0872DE9F04704460D4629462046F7
:103EF00004F01FFA3B490860084601683A48006828
:103F000003F04EFF384908603848016835480068BA
:103F100004F01AFA81462A480168484604F00CF970
:103F20008046284903F0AAFF06462F480168264824
:103F3000006804F001F98246224903F09FFF8046A1
:103F4000284801682148006804F0F6F882461D49B7
:103F500003F094FF8146414603F022FF07463146B5
:103F600003F01EFF224908601E4800681F490860D0
:103F70001F480068BDE8F08744000020480000208A
:103F80004C00002050000020540000205800002069
:103F900034080040342C01405C0000202C0000203C
:103FA0003000002034000020380000203C000020B9
:103FB00040000020A0010020A8010020AC0100204A
:103FC000BC0000200000C842B8000020B40000205F
:103FD000A401002090010020980100209C010020F5
:103FE0009401002080010020880100208C01002025
:103FF000840100202DE9F04704460D46294620465D
:1040000004F097F9FA49086008460168F948006821
:1040100003F0C6FEF7490860F7480168F4480068F5
:1040200004F092F98146F5480168484604F084F8A6
:104030008046F34903F022FF0646EE480168F14846
:10404000006804F079F88246ED4903F017FF8046D6
:10405000E7480168EC48006804F06EF88246E849D9
:1040600003F00CFF8146414603F09AFE07463146B5
:1040700003F096FEE5490860DD480068DE49086007
:10408000E2480068BDE8F0872DE9F04704460D4698
:104090002946204604F04DF9DD49086008460168CC
:1040A000DC48006803F07CFEDA490860DA48016801
:1040B000D748006804F048F98146D048016848466E
:1040C00004F03AF88046CE4903F0D8FE0646D148BF
:1040D0000168CC48006804F02FF88246C84903F014
:1040E000CDFE8046CA480168C748006804F024F83D
:1040F0008246C34903F0C2FE8146414603F050FEAA
:104100000746314603F04CFEC4490860C0480068C9
:10411000C1490860C1480068BDE8F0872DE9F04753
:1041200004460D462946204604F003F9BC490860C0
:1041300008460168BB48006803F032FEB9490860D0
:10414000B9480168B648006804F0FEF88146AB48FB
:104150000168484603F0F0FF8046A94903F08EFE4F
:104160000646B0480168A748006803F0E5FF8246AC
:10417000A34903F083FE8046A9480168A24800686D
:1041800003F0DAFF82469E4903F078FE81464146FD
:1041900003F006FE0746314603F002FEA34908601D
:1041A0009F480068A0490860A0480068BDE8F08703
:1041B00070B54FF49664A510284603F05DFF0646DF
:1041C0009B480168304604F083F804D2284603F087
:1041D00053FF97490860204603F04EFF0646944877
:1041E0000168304603F074FF04D2204603F044FF18
:1041F0008F490860284603F03FFF06468D48016856
:10420000304604F065F804D2284603F035FF8949AA
:104210000860204603F030FF0646864801683046B5
:1042200003F056FF04D2204603F026FF81490860C0
:10423000284603F021FF06467F480168304604F017
:1042400047F804D2284603F017FF7B490860204650
:1042500003F012FF064678480168304603F038FF45
:1042600004D2204603F008FF73490860284603F093
:1042700003FF064671480168304604F029F804D26D
:10428000284603F0F9FE6D490860204603F0F4FE6D
:1042900006466A480168304603F01AFF04D22046F9
:1042A00003F0EAFE65490860284603F0E5FE06468D
:1042B00063480168304604F00BF804D2284603F046
:1042C000DBFE5F490860204603F0D6FE06465C48E8
:1042D0000168304603F0FCFE04D2204603F0CCFE19
:1042E00057490860284603F0C7FE0646554801684E
:1042F000304603F0EDFF04D2284603F0BDFE5149DD
:104300000860204603F0B8FE06464E480168304675
:1043100003F0DEFE04D2204603F0AEFE49490860F9
:1043200070BD2DE9F04104464748007801285DD171
:1043300046480068052807D145480168204603F033
:104340002FFD434908606CE140480068072807D109
:104350003F480168204603F0ECFF3D49086060E1FA
:104360003A4800680C2807D13A480168204603F013
:1043700017FD3849086054E1344800680A2807D11D
:1043800034480168204603F0D4FF3249086048E110
:104390002E48006808280CD12F49204603F0CCFE97
:1043A00005462E480168284603F0C3FF2B490860E4
:1043B00037E12648006806280CD12749204603F03B
:1043C000BBFE054625480168284603F0E9FC234961
:1043D000086026E11D4800680D2843D12048016887
:1043E000204603F0A6FF1E4908601AE18AE000009B
:1043F00070010020780100207C010020BC0000201A
:104400000000C842B8000020B40000207401002061
:1044100060010020680100206C0100206401002080
:1044200050010020580100205C01002054010020B0
:10443000880000208C0000209000002094000020C4
:10444000980000209C00002014000020D0000020D4
:10445000A0000020A400002000007A44A800002052
:10446000AC000020E74800680F2807D1E648016843
:10447000204603F095FCE4490860D2E0E14800687A
:104480000E280CD1E149204603F056FE0546E048CF
:104490000168284603F084FCDD490860C1E0D94882
:1044A000006810280CD1D949204603F045FE054686
:1044B000D7480168284603F03CFFD5490860B0E0C2
:1044C000D048006804280CD1D249204603F034FEBD
:1044D0000546D1480168284603F062FCCE490860D1
:1044E0009FE0C84800680128C7D1CA49204603F0A8
:1044F00023FE0546C8480168284603F01AFFC6494E
:1045000008608EE0BF480068082807D1C3480168EA
:10451000204603F045FCC149086082E0B9480068C4
:10452000062807D1BD480168204603F002FFBB49B9
:10453000086076E0B34800680C2807D1B8480168E5
:10454000204603F0F6FEB64908606AE0AD48006810
:104550000A2807D1B2480168204603F021FCB0497F
:1045600008605EE0A7480068052807D1AD480168EB
:10457000204603F0DEFEAB49086052E0A148006827
:10458000072807D1A7480168204603F009FCA54980
:10459000086046E09B4800680D2807D1A2480168E2
:1045A000204603F0C6FEA04908603AE0954800683E
:1045B0000F2807D19C480168204603F0F1FB9A4977
:1045C00008602EE08F4800680E2807D190480168E7
:1045D000204603F0E5FB8E49086022E08948006828
:1045E000102807D18A480168204603F0A2FE8849B6
:1045F000086016E083480068042807D18B480168EA
:10460000204603F096FE894908600AE07D4800686C
:10461000012806D185480168204603F0C1FB834983
:104620000860784800680B280ED18148006803F0C4
:104630008BFB05467F4A804B02F0CCFD074602F01B
:1046400097FD7B49086011E06E48006809280DD18C
:104650007748006803F078FB0546764A764B03F00E
:1046600089FA074602F084FD714908607349704871
:10467000006803F02DFD02D870486D49086070494C
:104680006B48006803F024FE02D86D486849086052
:10469000BDE8F0810146B1F52F7F01DA012000E08D
:1046A0000020704710B53220FEF78DF90446012C2A
:1046B00007D16448007808B9012000E00020614972
:1046C000087010BD1CB501218807FDF7F0FC00281B
:1046D0007ED001218807FDF7FBFC5B4800780128AC
:1046E0000BD15A480078401CC0B2584908700528C0
:1046F00003D10020087054490870FFF7D3FF5448D5
:104700000068FFF7C7FF002853D14E480078012802
:1047100003D1504801F0CAF807E04849444800680E
:1047200003F0ACFB0446FFF7FCFDFFF741FD3B48FF
:10473000016849480068FFF7F1FC484908603848BB
:10474000016847480068FFF79FFC46490860354804
:10475000016845480068FFF74DFC4449086032484D
:10476000016843480068FFF7BDFB424908602848DC
:10477000016841480068FFF76BFB404908602B481F
:1047800001683F480068FFF719FB3E490860FFF7E2
:1047900052FA3C48006839490968CDE900103548AB
:1047A0000368324802682F4801682C480068FFF708
:1047B000E6F96420FEF7BEF8FEF76FFC324909689F
:1047C00008443149086031480068401C2F4900E026
:1047D0000EE0086064280BD12B480068642190FB30
:1047E000F1F01B490860002027490860274908604C
:1047F00000201CBD0146002901DA484200E00846BD
:1048000070470000D0000020AC00002000803B4535
:104810009800002000007A44B000002088000020AA
:104820008C00002090000020940000209C000020BC
:104830005C0000209A9999999999A93F00004040FD
:104840000000F041140000206500002064000020FA
:1048500060000020600A0020440000202C0000209E
:1048600048000020300000204C00002034000020D0
:104870005000002038000020540000203C000020A0
:10488000580000204000002044010020400100208A
:1048900038B5FAA200210846FEF7CFFA0C20022311
:1048A0000090F748002102680520FEF77CFAF5A287
:1048B00000211420FEF7C1FAF348006803F0BCFBA6
:1048C00004460C2002232246002100901B20FEF704
:1048D0006AFAEEA200213520FEF7AFFAECA2002121
:1048E0004B20FEF7AAFAEB480068642190FBF1F434
:1048F0000C2002232246002100902820FEF753FAC4
:10490000E4480068642190FBF1F201FB12040C20E2
:1049100002232246002100903F20FEF744FADD48A2
:104920000068642190FBF1F201FB12000A2807DA0B
:104930000C2002230022114600903920FEF733FAA2
:10494000D5480078012805D1D4A200215A20FEF7CD
:1049500074FA07E0D048007820B9D1A200215A208B
:10496000FEF76BFA0021CF48006803F0B1FB15D2C7
:10497000CDA20A210020FEF760FACA48006880F044
:104980000045284603F058FB04460C200623224627
:104990000A2100900F20FEF706FA11E0C3A20A21B7
:1049A0000020FEF74AFABF48006803F045FB0446C2
:1049B0000C20062322460A2100900F20FEF7F3F96F
:1049C0000021BB48006803F083FB15D2B6A20A2180
:1049D0003C20FEF732FAB648006880F000452846D1
:1049E00003F02AFB04460C20062322460A210090ED
:1049F0004B20FEF7D8F911E0ACA20A213C20FEF7CB
:104A00001CFAAB48006803F017FB04460C20062391
:104A100022460A2100904B20FEF7C5F90021A54847
:104A2000006803F055FB15D29FA214210020FEF769
:104A300004FAA048006880F00045284603F0FCFA1C
:104A400004460C2006232246142100900F20FEF776
:104A5000AAF911E095A214210020FEF7EEF995487D
:104A6000006803F0E9FA04460C20062322461421CC
:104A700000900F20FEF797F900218F48006803F09F
:104A800027FB15D288A214213C20FEF7D6F98A48CC
:104A9000006880F00045284603F0CEFA04460C205A
:104AA00006232246142100904B20FEF77CF911E0EA
:104AB0007EA214213C20FEF7C0F97F48006803F075
:104AC000BBFA04460C2006232246142100904B20FA
:104AD000FEF769F900217948006803F0F9FA15D268
:104AE00071A21E210020FEF7A8F97448006880F02A
:104AF0000045284603F0A0FA04460C20062322466F
:104B00001E2100900F20FEF74EF911E067A21E2132
:104B10000020FEF792F96948006803F08DFA044618
:104B20000C20062322461E2100900F20FEF73BF9A1
:104B300000216348006803F0CBFA15D25AA21E2167
:104B40003C20FEF77AF95E48006880F00045284670
:104B500003F072FA04460C20062322461E21009020
:104B60004B20FEF720F911E050A21E213C20FEF759
:104B700064F95348006803F05FFA04460C200623EA
:104B800022461E2100904B20FEF70DF900214D48D2
:104B9000006803F09DFA15D243A228210020FEF7F9
:104BA0004CF94848006880F00045284603F044FA74
:104BB00004460C2006232246282100900F20FEF7F1
:104BC000F2F811E039A228210020FEF736F93D481D
:104BD000006803F031FA04460C20062322462821FF
:104BE00000900F20FEF7DFF800213748006803F03F
:104BF0006FFA15D22CA228213C20FEF71EF932486C
:104C0000006880F00045284603F016FA04460C20A0
:104C100006232246282100904B20FEF7C4F811E01D
:104C200022A228213C20FEF708F92748006803F05B
:104C300003FA04460C2006232246282100904B202C
:104C4000FEF7B1F800212148006803F041FA3FD295
:104C500015A232210020FEF7F0F81C48006880F011
:104C60000045284603F0E8F904460C2006232246B6
:104C7000322100900F20FEF796F83CE04B00000038
:104C8000D0000020530000005C0000202E00000037
:104C900056000000600000201400002058595A00FF
:104CA00041424300880000202D0000002B0000003E
:104CB000440000208C0000204800002090000020CC
:104CC0004C0000209400002050000020980000209C
:104CD000AFF2280232210020FEF7AFF884480068C6
:104CE00003F0AAF904460C20062322463221009044
:104CF0000F20FEF758F800217E48006803F0E8F91D
:104D000016D2AFF25C0232213C20FEF796F87948C9
:104D1000006880F00045284603F08EF904460C2018
:104D200006232246322100904B20FEF73CF812E089
:104D3000AFF2880232213C20FEF77FF86D48006810
:104D400003F07AF904460C20062322463221009013
:104D50004B20FEF728F8FDF746FF38BD2DE9904FB0
:104D600087B065480068A0F256404000032190FBE0
:104D7000F1F4002C00DA0024642C00DD64245F4888
:104D8000007808B9012000E000205C4908705C4808
:104D90000078012834D15B495B48006803F0CCF906
:104DA000834603F02DF9074656495848006803F03A
:104DB000C3F9834603F024F98046524954480068F9
:104DC00003F0BAF9834603F01BF981464D49514877
:104DD000006803F0B1F9834603F012F9824600201F
:104DE000029003900490059043464A465146CDE90F
:104DF000007049A000F082FD0020414908702CE0BD
:104E00003E48007840B90020E3B2F2B2E9B2009027
:104E100049A000F073FD20E03648006803F0F0F888
:104E200007464948006803F0EBF8804647480068A9
:104E300003F0E6F881464648006803F0E1F8824650
:104E40004448006803F0DCF883464B465246594616
:104E500041A0CDE9008700F051FD07B0BDE8908F7B
:104E600010B52548006803F007F90446254903F00A
:104E700005F83E49086001213648006800F08EF8C8
:104E800002213348006800F089F803212F480068A8
:104E900000F084F804212C48006800F07FF8052118
:104EA0001448006800F07AF8052000F0C6F8304990
:104EB000087000202F49087012E000BF2E480088BB
:104EC00000F040000028F9D02C482A490978405CBD
:104ED0002949091D088027480078401C2549087089
:104EE00024480078224909788842E6DB10BD00009A
:104EF000980000205400002060000020B80100202D
:104F0000670000200000C8427800002074000020E4
:104F1000700000206C0000207B4325643A25643A31
:104F200025643A25643A25643A25643A25643A258D
:104F3000643A25647D2400007B4125643A25643A67
:104F400025643A25647D2400500000204C00002098
:104F500048000020440000207B4225643A25643A42
:104F600025643A25643A25647D240000B4010020BC
:104F7000B1010020B001002000380140350A0020B6
:104F800030B503461C788C545D78541C0D559D78C3
:104F9000941C0D55DD78D41C0D5530BD13B50C4651
:104FA0000A2C00DC04B91CBD0B2C43D2DFE804F052
:104FB00042060C12181E242A30363C0001224449B5
:104FC0006846FFF7DDFF35E0052241496846FFF7F7
:104FD000D7FF2FE009223E496846FFF7D1FF29E0BD
:104FE0000D223B496846FFF7CBFF23E011223849E9
:104FF0006846FFF7C5FF1DE0152235496846FFF7F3
:10500000BFFF17E0192232496846FFF7B9FF11E0E8
:105010001D222F496846FFF7B3FF0BE021222C49E0
:105020006846FFF7ADFF05E0252229496846FFF7EE
:10503000A7FF00BF00BF00BFB5E701460A2900DC9B
:1050400009B9002070472420214A10700B293CD256
:10505000DFE801F03B060B10151A1F24292F35003D
:1050600005201B4A50710620ECE70920184A5072AF
:105070000A20E7E70D20164A50730E20E2E71120C0
:10508000134A50741220DDE71520114A507516207E
:10509000D8E719200E4A50761A20D3E71D200C4A73
:1050A00050771E20CEE72120094A82F821002220D5
:1050B000C8E72520064A82F825002620C2E72920D5
:1050C000034A82F829002A20BCE70020BAE7000042
:1050D000350A002001460A461078AA2801D101208D
:1050E00070470020FCE70246114608780A2803D1E1
:1050F000012048700220704708780F2803D1022051
:1051000048700320F7E70020F5E701460A4650788B
:10511000012803D110789070002070470020FCE730
:1051200001460A465078022803D11078D070042036
:1051300070470020FCE770B505462C46E078A128B2
:1051400008D120782071207902F0AEFF144908635D
:10515000002070BDE078A22808D120782071207945
:1051600002F0A2FF0E4988620020F2E7E078A3284F
:1051700008D120782071207902F096FF0849C86292
:105180000020E6E70020E4E710B504460548064A9B
:10519000127850F82210204688470349087010BD45
:1051A000600A0020BC010020D50100202DE9F04F4D
:1051B0008FB081464C46FE49606B03F0C5F80E90F7
:1051C000A06B02F0C1FD00224FF08043CDE9020147
:1051D00001F0BCFACDE906010E99084602F0ACFFD9
:1051E000834602F0B1FDCDE90401DDE9062301F0BB
:1051F000F1FF074601F096FF054601F0B9FF824630
:105200005146EC4802F098FF51460290504602F099
:1052100093FFE949009002F0C3FD8346E74903F09C
:1052200093F80190029902F029FE039002F08CFDA0
:10523000074600F0EFFF05460022E14B02F074FA4A
:10524000E04AE14BCDE9040102F080F8CDE9060126
:1052500001F08EFF0D905146DC4802F06DFF514683
:105260000390504602F068FFD449009002F098FD88
:10527000D149019003F068F80290039902F0FEFD15
:10528000834602F061FDCDE9040100F0C3FF002276
:10529000CB4BCDE9060102F047FA0746C94ACA4B93
:1052A00002F054F8054601F063FF0C905146504659
:1052B00002F042FFC649029003F03BF88346C5491D
:1052C00002F0DCFD039002F03FFDCDE9040100F0A7
:1052D000A1FF0022BA4BCDE9060102F025FA0746EC
:1052E000B84AB94B02F032F8054601F041FF0B9085
:1052F000A06B0E9902F0C2FD834602F025FDCDE9B8
:10530000000101F0C5F805460022AD4B02F00CFA91
:10531000AC4AAD4BCDE9020102F018F807468846C9
:10532000AD480D9903F010F8054602F00DFD3A4620
:105330004346CDE9040102F01DFCCDE9060101F070
:1053400017FF0A90A5480B9902F0FEFF0990A06B89
:105350000E9902F093FD834602F0F6FC054601F03B
:1053600097F881F0004107460022954B02F0DCF9E6
:10537000944A954BCDE9000101F0E8FFCDE9040125
:105380000C9802F0E1FCCDE90201DDE9042302F012
:10539000F1FBCDE9060101F0EBFE089090490A9877
:1053A00002F0CAFE05468F4902F0C3FFA0618C4996
:1053B000099802F0C1FE05468A4902F0F1FCE0615D
:1053C0008749089802F0B8FE0546864902F0B1FF09
:1053D00020620FB0BDE8F08F2DE9F04F97B0044682
:1053E0002546DFF80492D5F828A0286B02F0ACFC23
:1053F0000746744A744B02F097F90022704BCDE9CE
:10540000120101F0A3FFCDE9140101F0B1FE8346C2
:10541000584602F099FC074601F04AF9CDE90C0123
:1054200049464FF0804002F087FE8046514602F028
:1054300083FE074602F088FCCDE90A01DDE90C2372
:1054400002F072F9CDE91001504602F07DFC0746EA
:1054500000224FF0804301F079F9CDE90C01484674
:1054600002F072FC074600224FF0804301F06EF913
:10547000CDE90A01DDE90C2301F0ACFECDE90E0116
:10548000DDE9102302F076FBCDE9120101F04AFEBE
:10549000CDE9140101F06CFE064649464FF080400C
:1054A00002F04AFE8046314602F046FE074602F010
:1054B0004BFCCDE90A01504602F046FC07460022AB
:1054C0004FF0804301F042F9CDE90601304602F089
:1054D0003BFC074600224FF0804301F037F9CDE94D
:1054E0000201484602F030FC074600224FF080439C
:1054F00001F02CF9CDE90001DDE9022301F06AFE9B
:10550000CDE90401DDE9062302F034FBCDE9080111
:10551000DDE90A2301F01AFFCDE90C0100F07AFE63
:105520000022274BCDE90E0102F0FEF8254A264B5A
:10553000CDE9100101F00AFF0022214BCDE9120153
:1055400002F026FACDE9140101F012FE1690169829
:10555000E8636E632549E86A02F0F6FEA86317B0B7
:10556000BDE8F08F70B50446254621488078A02814
:1055700007D12846FFF730FF2846FFF717FE012026
:1055800070BD0020FCE72DE9FE4F04462546D5F806
:105590000490D5F808A0D5F80CB0AE69E86902907F
:1055A000286A01903146484602F0CEFE009021E084
:1055B000295C8F3D3D0A573E33A2343C4B5CC73BD0
:1055C000008066406E861BF0F921094077BE1F3EC1
:1055D0002C288C3C592F863C0000B44200003443F8
:1055E0000000A04000803B440AD7233CF4FD543C1B
:1055F000D001002002F0A8FB21F000410746002264
:10560000B04B02F055F825D25046029902F09CFEAC
:10561000009002F099FB21F0004107460022A94BBF
:1056200002F046F816D25846019902F08DFE00901D
:1056300002F08AFB21F0004107460022A14B02F054
:1056400037F807D2A049304602F0AAFBA861022031
:10565000BDE8FE8F0120FBE72DE9F05F04462546FB
:105660006E68D5F81890D5F83CA04946304602F04F
:105670006BFE834602F068FB21F0004107460022E2
:10568000904B02F015F80BD29049504602F054FDB1
:1056900007468F4902F04DFE68610320BDE8F09F88
:1056A0000220FBE72DE9F05F044625462E68D5F879
:1056B0001490D5F818A04946304602F045FE8346BE
:1056C00002F042FB21F00041074600227D4B01F031
:1056D000EFFF07D27C49504602F036FEA861042055
:1056E000BDE8F09F0320FBE72DE9F047044625467F
:1056F0006E68D5F818904946304602F025FE82467D
:1057000002F022FB21F00041074600226D4B01F020
:10571000CFFF04D26F4969620520BDE8F0870420FD
:10572000FBE72DE9F05F044625462E69D5F8189071
:10573000D5F824A05146304602F006FE834602F01A
:1057400003FB21F00041074600225E4B01F0B0FF51
:1057500007D25D49484602F023FBA8610620BDE858
:10576000F09F0520FBE72DE9F047044625466E68CB
:10577000D5F818904946304602F0E6FD824602F020
:10578000E3FA21F00041074600224E4B01F090FF62
:1057900004D2514868610720BDE8F0870620FBE786
:1057A0002DE9F047044625462E68D5F81490494661
:1057B000304602F0C9FD824602F0C6FA21F00041EF
:1057C000074600223F4B01F073FF05D2AD20FDF7E5
:1057D000EBFD0820BDE8F0870720FBE702461146F5
:1057E0003E488078AF2809D13D4B8B613D4BCB6162
:1057F0003D4B0B623D4B4B62092070470820FCE794
:105800002DE9F04F85B0044625466E68D5F808901E
:10581000D5F80CA0D5F810B0A8690490E8690390F9
:10582000286A0290686A01903046049902F08CFD63
:10583000009002F089FA21F0004107460022214B36
:1058400001F036FF30D24846039902F07DFD00900A
:1058500002F07AFA21F0004107460022194B01F0CC
:1058600027FF21D25046029902F06EFD009002F00F
:105870006BFA21F0004107460022124B01F018FF9D
:1058800012D25846019902F05FFD009002F05CFAD6
:1058900021F00041074600220A4B01F009FF03D224
:1058A000002005B0BDE8F08F0920FAE710B50446E6
:1058B0000F48104A127850F82210204688470D49A8
:1058C000087010BD0000F03F000016430000A0402B
:1058D00000803B440000FA4300009643D0010020C2
:1058E000000096440080684400002F4400808944F2
:1058F000D801002000020020704700000FB40449C6
:1059000010B503AA029800F0DDF810BC5DF814FB96
:10591000EC0000202DE9F0410E46044600202062F4
:105920002046E168884730B3252805D0D4E9012115
:105930009047206A401CF2E7E1682046002788472C
:10594000050018D0A5F14100192802D820354FF4E0
:1059500000673246294620462760FAF721FC40B10D
:10596000012804D0F61D26F007060836D8E7361DB4
:10597000D6E72846DAE7206ABDE8F0812DE9F04154
:105980000646002410687529314616A510D0AFF3DD
:105990000080002802DA404213A507E031688A0738
:1059A00001D512A502E0490704D511A5012401E0A3
:1059B000AFF3008000210A2206F1240709E0B0FBC2
:1059C000F2FCB0FBF2F302FB1C00303078541846B6
:1059D000491C0028F3D123462A463046BDE8F04151
:1059E00000F017B8000000002D0000002B000000A0
:1059F00020000000704770477047704710B500F0F6
:105A000073F8006810BD10B5044600F06DF804602E
:105A100010BD2DE9F0470D4699469246044600F127
:105A200024080168880604D5E06921F0100121608E
:105A300000E00120A84201DD471B00E00027A1692A
:105A40007A1902EB0900081AA0612078C00602D476
:105A50002046AFF30080002608E0D4E901211AF8BF
:105A600006009047206A401C761C20624E45F4DBFD
:105A70002078C0060AD52046AFF3008006E0D4E9BE
:105A8000012130209047206A401C2062381EA7F177
:105A90000107F4DC07E0D4E9012118F8050090477C
:105AA000206A401C2062281EA5F10105F3DC204677
:105AB000AFF300802078000602D50220BDE8F08711
:105AC0000120FBE7074B70B50D467B4400F015F84D
:105AD0000446284600F024F810B14FF0FF3070BDA6
