:020000040800F2
:10000000900600204501000891270008771D000890
:1000100069260008150A0008AD2F0008000000003E
:100020000000000000000000000000000B28000895
:10003000170A00080000000009280008992B000892
:100040005F0100085F0100085F0100085F01000810
:100050005F0100085F0100085F0100085F01000800
:10006000590A00085F0100085F0100085F010008ED
:100070005F0100085F0100085F0100085F010008E0
:100080005F0100085F0100085F0100085F010008D0
:100090005F0100085F0100085F0100085F010008C0
:1000A0005F0100085F0100085F0100085F010008B0
:1000B0005F0100085F0100085F0100085F010008A0
:1000C0005F0100085F0100085F0100085F01000890
:1000D0005F0100085F010008A12F00085F01000810
:1000E000190A00085F0100085F0100085F010008AD
:1000F0005F0100085F0100085F0100085F01000860
:100100005F0100085F0100085F0100085F0100084F
:100110005F0100085F0100085F0100085F0100083F
:100120005F0100085F0100085F0100085F0100082F
:10013000DFF80CD000F0E4FB004800471D32000857
:10014000900600200648804706480047FEE7FEE785
:10015000FEE7FEE7FEE7FEE7FEE7FEE7FEE7FEE777
:10016000212C000831010008202A04DB203A21FA62
:1001700002F00021704721FA02F3D040C2F12002C0
:100180009140084319467047F0B480EA0102D40F49
:100190004200B2EB410F02D20246084611464A0025
:1001A00042D0C30DDDB2C1F3C752AD1A202D35DAEE
:1001B000C1F3160141F4000204B15242C5F1200618
:1001C00002FA06F12A411044B3EBD05F23D0C4B148
:1001D000012DA0EBC35009DCF0BC4FF0004202EA55
:1001E000C352DBB200F5000000F0D0BA400000F1CD
:1001F000807000EBC350A0F1807040EAD1704900DC
:1002000009E0490841EAC071A0EBC35000F50000C5
:10021000400800EBC350F0BC00F0AFBA61420122CD
:1002200002EB4101001BF6E7F0BC704781F0004192
:10023000AAE780F00040A7E780EA010210B502F0CB
:100240000043400022D04A001FD0010E01EB126192
:10025000C0F35600C2F3560240F4000042F400021C
:10026000A0FB022000047F39140400D0401C50EA97
:10027000124001D44000491EC2B20C0604EBD0105B
:10028000401C4008802A02D003E0002010BD20F06E
:100290000100002900DA0020184310BD2DE9FE4FAF
:1002A000804681EA0300C00F0C46009021F0004117
:1002B00023F00045B8EB0200A94105D24046214693
:1002C00090461C460B46024623F00040104347D0A0
:1002D000270DC7F30A00C3F30A510290401A019098
:1002E00040286BDAC3F3130040F4801B0098924659
:1002F00020B10023D2EB030A63EB0B0B01985946A4
:10030000C0F14002504600F017FA06460D4650462E
:100310005946019A00F01FFA10EB080061410024D1
:1003200087EA115284EAE7731A4340D0009A62B315
:10033000019A012A4FEA075215DC001B61EB02010A
:100340004FF0004202EA0752CDE90042001C41F59D
:10035000801132462B4600F056FA03B0BDE8F08F0C
:1003600040462146F9E7001B61EB0201001C41F504
:10037000801300185B412018A2F5001747EB03011A
:1003800040EAD570B6196D4111E06D084FEA3606A6
:1003900045EAC0754FEA0752001B61EB0201001CE1
:1003A00041F5801149084FEA3000001951413246A9
:1003B0002B4603B0BDE8F04F00F016BA00980122BA
:1003C00040000023D0EB020263EBE073009821466B
:1003D0004FEAE074B8EB000061EB0401E9E783F059
:1003E00000435BE781F0004158E72DE9FE4F81EAC9
:1003F000030404F0004421F0004100944FF0000B8E
:1004000023F0004350EA01045ED052EA03045BD0BB
:10041000C3F30A54C1F30A552C44A4F2F3340194F3
:10042000A0FB0254C1F3130141F48011C3F3130381
:1004300043F4801301FB024400FB034E840A970A35
:1004400044EA815447EA8357A4FB076802958D0A62
:1004500005FB07854FEA932C04FB0C542705029DEE
:100460004FEA065847EA1637B5EB08056EEB070C5E
:10047000870E920E47EA811742EA8312A7FB020118
:10048000B6EB0B0164EB00042B0D43EA0C335E1852
:1004900044EB1C50DA465146E7FB0201C5F3130456
:1004A0004FEA0B3343EA14534FEA0432019C43EA08
:1004B0000603A4F10C040294009CCDE900B400F002
:1004C000A2F903B0BDE8F08F00200146F9E72DE95D
:1004D000F04D81EA030404F0004B21F0004514467E
:1004E0004FF0000A23F0004150EA050220D054EA00
:1004F00001021DD0C5F30A570246C5F31303C1F329
:100500001300C1F30A5640F4801543F48013A7EB9F
:100510000608101BD64608F2FD3873EB050002D31F
:1005200008F1010801E092185B41B8F1000F03DA0D
:1005300000200146BDE8F08D00204FF480110646F2
:1005400084460EE0171B73EB050705D3121B63EB04
:10055000050306434CEA010C49084FEA30009218A3
:100560005B4150EA0107EDD152EA030012D082EA62
:10057000040083EA0501084305D0101BAB4106D2F5
:100580000122002306E000224FF0004302E06FF05A
:10059000010253101AEB06004CEB085110EB0A0055
:1005A00041EB0B01BDE8F04D00F01EB9C10F80EA30
:1005B000E0700844CA079623002100F0E7B89623AC
:1005C0000022114600F0E2B80EB5C10F80EAE070DB
:1005D0000844CA07002140F233438DE80E000A4662
:1005E0000B4600F010F903B000BD00F0004220F00F
:1005F0000040C10DC0F3160040F400007F2901DA6D
:1006000000207047962903DCC1F19601C84001E043
:1006100096398840002AF4D04042704720F00040CC
:10062000C10DC0F3160040F400007F2901DA00205C
:100630007047962903DCC1F19601C840704796398E
:100640008840704770B5C1F30A5201F0004500249C
:10065000C1F3130140F2FF3341F480119A4201DAF1
:10066000002070BD40F233439A42A2F2334203DCD1
:100670005242FFF779FD00E090402C43F1D0404218
:1006800070BD00F0004230F000400AD0C10D01F50D
:100690006071C0F3160042EA0151C20840071143DD
:1006A000704700200146704730B5041E71F1000408
:1006B00004DB4FF00044404264EB0101141E73F16F
:1006C000000405DB1C464FF00043524263EB040379
:1006D0008B4208BF824230BD01F0004330B421F0AC
:1006E000004150EA010206D00A0DA2F56072C1F382
:1006F0001301002A02DC30BC00207047440F44EA9A
:10070000C104C100E01830BC00EBC25000F035B8A5
:10071000002801DBC0F10040002901DBC1F10041EC
:1007200081427047002801DBC0F10040002901DB55
:10073000C1F1004188427047202A04DB203A00FAC8
:1007400002F1002070479140C2F1200320FA03F328
:10075000194390407047202A06DBCB17203A41FA14
:1007600002F043EAE07306E041FA02F3D040C2F13E
:10077000200291400843194670470029A8BF7047DE
:10078000401C490008BF20F00100704710B4B0FAC7
:1007900080FC00FA0CF050EA010404BF10BC704762
:1007A00049B1CCF1200421FA04F411FA0CF118BF7C
:1007B000012121430843A3EB0C01CB1D4FEA00614B
:1007C0004FEA102042BF002010BC704700EBC3501E
:1007D00010440029A4BF10BC7047401C490008BF4A
:1007E00020F0010010BC704710B5141E73F1000416
:1007F00008DA401C41F1000192185B411A4301D113
:1008000020F0010010BD2DE9F04D92469B4611B13C
:10081000B1FA81F202E0B0FA80F220329046FFF79E
:100820008BFF04460F4640EA0A0041EA0B0153469B
:100830005A46084313D0114653EA010019D0C8F1B3
:1008400040025046FFF790FC05460E46504659467A
:100850004246FFF771FF084305D0012004E020461F
:100860003946BDE8F08D0020054346EAE0762C438A
:1008700037430A986305E40AA0EB08000022FD0A4A
:1008800044EA47540A3002D500200146E9E7010551
:1008900010196941DDE9084500196941BDE8F04DCD
:1008A000A2E770B521F0004303430CD0C1F30A5511
:1008B0000024D5EB040564EB0403D617AD1AB3414D
:1008C00002DB0020014670BD201841EB025170BDD3
:1008D00030B5041E71F1000404DB4FF000444042C7
:1008E00064EB0101141E73F1000405DB1C464FF09C
:1008F0000043524263EB0403994208BF904230BD6B
:10090000064C074D06E0E06840F0010394E807005C
:1009100098471034AC42F6D3FFF70EFC183F00089E
:10092000383F00082DE9F04D00231A461B1A8A4172
:1009300003DB00200146BDE8F08DC1F30A52C1F38C
:10094000130141F480154FF0000BD10702D10018BC
:100950006D41521E0027044640F2FF11384601EB5C
:10096000620A3E468046024600204FF48011FFF79F
:10097000FBFBC2197141BB1846EB0100B4EB030C41
:1009800075EB000C04D3E41A65EB000517460E4620
:10099000241908F101006D4180463428E3DDF9197E
:1009A00046EB0600091BA84103D24FF0FF32134665
:1009B00001E0002213461BEB070046EB0A51BDE89D
:1009C000F04DFFF711BF000070B504460068816864
:1009D000C943C9071CD1816821F00101816000F081
:1009E000C3FB05460FE000BF00F0BEFB401B022822
:1009F00009D9A06A40F01000A062E06A40F001004E
:100A0000E062012070BD20688068C043C007EBD061
:100A1000002070BDFEE770470B480168090411D53E
:100A20004FF4004101600948D0F808210848D0F887
:100A30003C3108499A42B1F9020001D1401E00E060
:100A4000401C48807047000014040140008021428F
:100A500000002142500000200A480168490710D5D3
:100A6000042101600848D0F808210848D0F83C313A
:100A700007499A42B1F9020001D1401C00E0401E32
:100A80004880704714040140008021420000214248
:100A90005000002030B50E49B1F90200404200EB91
:100AA000D07042100B4802600B4A13681BB283607F
:100AB0000A4B1C6824B264424460094C25682DB27C
:100AC000C5600020488010601860206030BD0000C4
:100AD00050000020AC010020240400402408004005
:100AE000240C00402DE9F047264CD4E9035631464A
:100AF0002846FFF749FBD4F8148082464146FFF7A9
:100B000043FBDFF884904946FFF796FB1F4C0746EE
:100B1000314620602846FFF789FB05464146FFF72E
:100B200033FB4946FFF788FB606028464146FFF7E4
:100B30007DFB4946FFF780FBA06050464146FFF72A
:100B400075FB4946FFF778FB114D124EE0602A46CF
:100B50003146384600F036F820602A463146606853
:100B600000F030F860602A463146A06800F02AF8AC
:100B7000A0602A463146E06800F024F8E060BDE855
:100B8000F0870000D0010020000020425800002023
:100B900000001CC200001C424FF0E0204169826945
:100BA0004069891A4FF47A725143B1FBF0F004495D
:100BB0008A684FF47A71A2FB011240187047000056
:100BC0000000002070B514460D460646FFF7AAFD4A
:100BD00001D2284670BD21463046FFF799FD01D26B
:100BE000204670BD304670BDF8B50024009490F8E2
:100BF00024202546012A12D0012280F824204A68A8
:100C00001F23072A0DD20668776B521E02EB820261
:100C100093409F430B6893401F43776319E0022082
:100C2000F8BD06680D2A0AD2376BD21F02EB82028A
:100C300093409F430B6893401F43376309E0F76A73
:100C40000D3A02EB820293409F430B6893401F438F
:100C5000F7620A68072306680A2A0AD3F7680A3A7D
:100C600002EB420293409F438B6893401F43F7601F
:100C700008E0376902EB420293409F438B68934040
:100C80001F4337610A68102A01D0112A20D1124B64
:100C900002689A4217D193681B0219D4936843F4EF
:100CA000000393600968102912D10C490C4A0968A5
:100CB000B1FBF2F101EB8101490000E0491E009116
:100CC0000029FBD104E0816A41F020018162012406
:100CD00080F824502046F8BD002401407400002014
:100CE00040420F002DE9F04104004FF000057FD095
:100CF000A06A002628B9E66284F82460204600F045
:100D000081F82046FFF760FEA16AC90600D420B131
:100D1000A06A40F01000A0626AE0A16A21F4885144
:100D200041F00201A162334923688B42E16904D199
:100D3000B1F5402F01D14FF40021E7684FF4807CDA
:100D400041EA470261680A43A168614508D0012968
:100D500006D00021D4F814E0BEF1010F02D00AE061
:100D60006146F7E7C7B1A76A47F02007A762E76ABD
:100D700047F00107E7625F6827F469470F435F6048
:100D8000236899681C4F394011439960A1686145F7
:100D90000BD0012909D00CE0DFF860E0A7690EEB69
:100DA00047370F4347F40061E5E7218A0D05A5F5B4
:100DB00080152168CB6A23F470032B43CB62216832
:100DC00089680F4B1940914208D1E662A16A21F06F
:100DD000020141F00101A162BDE8F081A06A20F0AA
:100DE000020040F01000A062E06A40F00100E06202
:100DF0000120F1E7003C0140FDF7E1FF00E0FFFFCB
:100E0000FE0E1FFF00B500680B4985B0884210D167
:100E10000A48816941F4007181618069694600F482
:100E2000007004901020009003200190044800F00E
:100E3000A1F805B000BD00000024014000100240F0
:100E4000000801402DE9F05F90F8211000240229EC
:100E500003D004218163012485E001680A6822F03F
:100E60000E020A6001680A6822F001020A603F4E21
:100E70003E4FB215DFF8F4C0DFF8F090DFF8ECA0D9
:100E8000DFF8E8B0DFF8E4E00168783F130115020D
:100E9000ACF1640CA9F15009AAF13C0AABF1280BA2
:100EA000AEF1140E4FF48018B14227D9B9420ED0DA
:100EB000614512D049451DD0514518D0594518D02B
:100EC000714501D1424615E0294EB14201D10122BE
:100ED00010E0274E1436B14201D110220AE0244E10
:100EE0002836B14206D0224A3C32914201D11A46FC
:100EF00000E02A461E49091F0A602BE0B94213D0C0
:100F0000614517D0494522D051451DD059451DD0C6
:100F1000714501D142461AE0B14202D14FF08072D0
:100F200015E0134EB14201D1012210E0104E1436EB
:100F3000B14201D110220AE00D4E2836B14206D04E
:100F40000B4A3C32914201D11A4600E02A46074939
:100F500080394A60012180F82110002180F820109A
:100F6000416B01B188472046BDE8F09F80000240F8
:100F7000080402402DE9F84FDFF8B8A100220AF179
:100F8000040B144601274FF00F090BF1040E00BFAC
:100F90000B6807FA04F52B40AB4274D1DFF898C117
:100FA0004E68A6EB0C0866452BD00DDC032E34D022
:100FB00005DC36B3012E19D0022E2FD11BE0112EE5
:100FC00016D0122E2AD119E0B8F5881F19D006DCE8
:100FD000B8F5803F15D0B8F5801F1FD111E0B8F5E6
:100FE000001F0ED0B8F5041F18D10AE0CA6815E03A
:100FF000CA68121D12E0CA6808320FE0CA680C32D3
:101000000CE08A682AB1012A4FF0080203D045613A
:1010100004E0042202E0056100E00022FF2B01D879
:10102000064601E000F104064FEA840501D9A5F166
:101030002005D6F800C009FA05F82CEA080C02FAD7
:1010400005F54CEA050CC6F800C04D68ED006AD500
:101050003A4DAE6946F00106AE61AD6924F0030673
:1010600005F001050095364D06EB050CDCF808503F
:10107000A6074FEA167809FA08F6B543314EB04292
:1010800002D100261AE04EE02F4EB04201D10126D7
:1010900014E02E4EB04201D102260FE02C4EB04299
:1010A00001D103260AE02B4EB04201D1042605E00F
:1010B000294EB04201D1052600E0062606FA08F6C0
:1010C0002E43CCF808604D68DAF80060ED03554611
:1010D00001D51E4300E09E432E604D68AD0305D54B
:1010E000DBF800601E43CBF8006004E0DBF8005042
:1010F0009D43CBF800504D68DEF80060ED02754668
:1011000001D51E4300E09E432E604D68AD0205D51B
:10111000084D0C352E681E432E6004E0054E0C363B
:1011200035689D433560641C102CFFF431AFBDE879
:10113000F88F000000040140000011100010024070
:101140000000014000080140000C01400010014077
:101150000014014000180140001C01400AB1016167
:1011600070470904FBE700000148806870470000F1
:10117000680000200248816802781144816070474D
:1011800068000020074810B5016841F010010160B7
:10119000032000F09DF8002000F006F800F024F88D
:1011A000002010BD0020024070B50D4D04464FF4E4
:1011B0007A712878B1FBF0F00A490968B1FBF0F0C8
:1011C00000F0AEFB48B9102C07D200222146501E79
:1011D00000F05EF800206C6070BD012070BD000062
:1011E0006800002074000020214808B5816941F0A2
:1011F00001018161816901F001010091C16941F042
:101200008051C161C06900F080500090032000F05F
:101210005FF8002211466FF00B0000F039F8002251
:1012200011466FF00A0000F033F8002211466FF00B
:10123000090000F02DF800221146501F00F028F898
:1012400000221146101F00F023F800221146901EC4
:1012500000F01EF800221146501E00F019F8054853
:10126000416821F0E06141F00071416008BD00007B
:10127000001002400000014000F01F0201219140D7
:101280004009800000F1E020C0F800117047000024
:10129000F0B40E4B1B680C46C3F30223C3F10705E1
:1012A000042D00D90425191D072901D2002300E0CF
:1012B000DB1E012606FA05F1491E214099409E4099
:1012C000761E16403143F0BC01F063BA0CED00E02D
:1012D000064900F0070208684FF6FF03184040EA8D
:1012E0000220034A10430860704700000CED00E044
:1012F0000000FA052DE9F84305460078354CC00793
:1013000054D0E0690026C00008D4E06940F0805065
:10131000E061E069012600F0805000902E480168ED
:10132000C90512D40168804641F480710160FFF75D
:101330001BFF074605E000BFFFF716FFC01B642830
:1013400023D8D8F80000C005F6D5206A10F4407004
:1013500021D0A98801F4407181421CD0206A1F4924
:10136000012220F440700A6000220A602062C00757
:1013700011D0FFF7F9FE074641F2883808E000BFB8
:10138000FFF7F2FEC11B414502D90320BDE8F883F7
:10139000206A8007F4D5206A696820F44070084309
:1013A00020621EB1E06920F08050E061287880075B
:1013B00005D56068A96820F440400843606028783B
:1013C000C00605D56068696920F480000843606044
:1013D0000020DBE700100240007000404004424261
:1013E0002DE9F047DFF83C8105460E46D8F80000AD
:1013F00000F00700B0420CD2D8F8001021F007012D
:101400003143C8F80010D8F8000000F00700B042DF
:1014100063D12878444C800705D56068A96820F01E
:10142000F000084360602878C00745D0686801284C
:1014300016D02168022816D0890700294DDA616884
:1014400021F0030101436160FFF78EFE69680746E2
:1014500041F2883001290FD00229814619D027E0B6
:1014600021688903E9E78901E7E700BFFFF77CFE10
:10147000C11B494501D918E081466068C0F381006D
:101480000128F3D118E000BFFFF76EFEC11B4945EC
:101490000BD86068C0F381000228F5D10CE000BFD2
:1014A000FFF762FEC11B494502D90320BDE8F08762
:1014B000606810F00C0FF3D1D8F80010404601F02E
:1014C0000701B1420BD9016821F0070131430160E6
:1014D000006800F00700B04201D00120E6E728785C
:1014E000400705D56068E96820F4E0600843606063
:1014F0002878000706D56068296920F4605040EA22
:10150000C100606000F03CF86168084AC1F3031153
:10151000515CC840064908600020FFF745FE0020E6
:10152000C4E7000000200240001002406C3E0008AA
:10153000740000200148006870470000740000201B
:101540000448054900684968044AC1F30221515C16
:10155000C840704774000020001002407C3E000824
:101560000448054900684968044AC1F3C221515C36
:10157000C840704774000020001002407C3E000804
:1015800012A185B00FC98DE80F0014A0144A00689D
:1015900004905168134801F00C03042B10D0082B61
:1015A0000ED1C1F38343C9031DF803000AD5516866
:1015B00004AAC1F34041515C0A4A5043B0FBF1F028
:1015C00005B0704708494843FAE7000002030405E4
:1015D000060708090A0B0C0D0E0F1010010200007F
:1015E0000010024000127A0000093D002DE9F84F7A
:1015F00004460078B94DC00748D06868C0F3810040
:10160000012807D06868C0F38100022809D1686802
:10161000C00306D52868800338D5606800286FD0DD
:1016200034E06068B0F5803F0BD010B1B0F5A02F6A
:1016300011D0286820F480302860286820F48020A9
:1016400002E0286840F480302860606888B1FFF7C5
:101650008BFD064609E0286840F480202860F0E70A
:10166000FFF782FD801B642875D828688003F7D5B2
:101670000CE0FFF779FD064605E000BFFFF774FDBB
:10168000801B6428F0D828688003F7D42078944E13
:1016900080074FF001094FF000083BD5686810F053
:1016A0000C0F07D06868C0F38100022809D1686870
:1016B000C00306D42868800714D5206901281FD1EB
:1016C00010E02069B0B1C6F80090FFF74DFD074665
:1016D00005E000BFFFF748FDC01B0228C4D82868FA
:1016E0008007F7D52868616920F0F80040EAC1005A
:1016F00028600FE0C6F80080FFF736FD074606E0D9
:10170000E9E000BFFFF730FDC01B022823D828689E
:101710008007F7D4207800072CD57248A169D9B189
:10172000C0F80090FFF720FD074604E0FFF71CFD1E
:10173000C01B02280FD8686A8007F7D56A484FF4A3
:10174000FA510068B0FBF1F0009000BF0098411E14
:101750000091FAD20EE080E0C0F80080FFF704FDAF
:10176000074604E0FFF700FDC01B022875D8686A31
:101770008007F7D42078400760D5E8690027C000CB
:1017800008D4E86940F08050E861E869012700F07A
:101790008050009055480168C90513D401688346FC
:1017A00041F480710160FFF7DFFC824606E000BF74
:1017B000FFF7DAFCA0EB0A0064284ED8DBF8000043
:1017C000C005F5D5E06801280AD008B1052813D076
:1017D000286A20F001002862286A20F0040002E054
:1017E000286A40F001002862E06841F2883B98B125
:1017F000FFF7BAFC82460BE0286A40F0040028623A
:10180000EEE700BFFFF7B0FCA0EB0A0159455AD83C
:10181000286A8007F6D50CE0FFF7A6FC824605E0B3
:10182000FFF7A2FCA0EB0A0159454CD8286A8007B3
:10183000F6D41FB1E86920F08050E861E06988B310
:101840006968C1F38101022945D00228C6F8608089
:1018500004D0FFF789FC044638E034E0FFF784FC4D
:10186000074604E0FFF780FCC01B02282BD828683D
:101870008001F7D4206AB0F5803F05D16868A1687F
:1018800020F4003008436860D4E90801084369681F
:1018900021F4741108436860C6F86090FFF764FC97
:1018A000044606E015E000BFFFF75EFC001B0228BF
:1018B00009D828688001F7D50BE000BFFFF754FC7A
:1018C000001B022802D90320BDE8F88F2868800198
:1018D000F4D40020F8E70120F6E7000000100240F1
:1018E0000000424280044242740000200070004028
:1018F0004FF0E0210428086903D020F004000861BB
:10190000704740F00400FAE70448D0E90212491C8D
:1019100042F10002C0E902127047000000000020FE
:1019200010B5401EB0F1807F01D3012010BD4FF0F3
:10193000E02460610F21601700F02BFF0020A06100
:1019400007202061002010BD10B5FFF7DDFF10BD9E
:1019500030B590F83C20012A20D0012280F83C20AC
:10196000022380F83D3003685C6824F070045C60FA
:1019700003685C680D682C435C6003689C6824F015
:1019800080049C6003689C6849680C439C6080F8F4
:101990003D20002180F83C10084630BD022030BDBB
:1019A000022180F83D1001680A6842F001020A60D5
:1019B000012180F83D10002070472DE9F0410D46CF
:1019C000040003D094F83D0018B108E00120BDE800
:1019D000F081002084F83C00204600F039F8022015
:1019E00084F83D002068816821F007018160211D95
:1019F000206801F039F9226890689169166A2B68AD
:101A0000AF69034340F20330814341EA0721A868EC
:101A1000EF6908434FF6FC418843E96840EA072034
:101A2000014328692F6A000140EA073008436968CA
:101A30006D6926F0AA0646EA0515294393602268D7
:101A4000906120680162012084F83D000020BEE71B
:101A500010B5234C03680021224A234886B0A342D4
:101A600019D1D36943F00203D361D269029102F024
:101A7000020204923022CDE900216946FFF77AFA8A
:101A80001A48416821F4406141F0E06141F400618D
:101A9000416006B010BD164CA3420DD1D36943F08E
:101AA0000403D361D269029102F004020492C022BD
:101AB000CDE90021694610E00E488342E9D1D069A2
:101AC00040F00800D061D069029100F00800049055
:101AD0000320CDE9000169460748FFF74BFAD8E734
:101AE0000004004000100240000C014000000140D2
:101AF00000080040000C00400008014010B50446FA
:101B0000006891B1042904D00122002101F0F2F80B
:101B1000206801225FF0040101F0ECF82068016800
:101B200041F001010160002010BD01220021F3E716
:101B30007047000070B5026804461068D1685369A8
:101B400010F00F0F50D003F0010501F490763543EB
:101B50005DD0C20705D0CA0503D5E26B42F0010291
:101B6000E263420705D5DA0703D0E26B42F00202D6
:101B7000E263820705D5DA0703D0E26B42F0040284
:101B8000E263020705D5DA0703D0E26B42F00802F0
:101B9000E263E26B002A33D0800604D5880602D5C2
:101BA000204601F0C8F820684069E16BC0F380105E
:101BB000090700D428B3204601F0AFF82068416936
:101BC00049061AD5416921F040014161606BA0B11D
:101BD0001B494163606BFFF735F9002810D0606B3B
:101BE000416BBDE870400847830610D58B060ED5C3
:101BF0002046BDE8704001F09EB82046FFF798FFF0
:101C000070BD2046FFF794FF0020E06370BD03061F
:101C100006D50B0604D52046BDE8704001F08EB90C
:101C20004006F3D54806F1D5D168204621F04001A1
:101C3000D160202184F8391000F09CF870BD0000BC
:101C40000B2D000870B5040004D094F8390000256D
:101C500010B106E0012070BD84F83850204600F035
:101C600023F8242084F839002068C16821F4005149
:101C7000C160204601F0AAF82068016921F4904172
:101C800001612068416921F02A0141612068C16831
:101C900041F40051C160E563202084F8390084F8E4
:101CA0003A00002070BD000010B50068114986B0F0
:101CB00088421CD11048C16941F40031C161C0693A
:101CC0000E4C00F40030049004200090022001909B
:101CD0000320039069462046FFF74CF900210820B5
:101CE000CDE90001029169462046FFF743F906B0AD
:101CF00010BD0000004400400010024000080140F8
:101D000090F83A30202B22D1F9B1F2B190F8383066
:101D1000012B1CD081628285C2850021C1632222F1
:101D200080F83A2080F838100168CA6842F480725E
:101D3000CA6001684A6942F001024A610068C168EC
:101D400041F02001C160002070470120704702204F
:101D50007047000010B5012204490548FFF7D0FF85
:101D600002480078BDE8104001F0C0B94C000020E6
:101D70006C0100207047FEE7F0B50A68C2F30F253A
:101D800095FAA5F2B2FA82F369E001229A402A425A
:101D900064D0082B03D240F201129A4006E0A3F16E
:101DA00008024FF00114944044F0806292FAA2F7C6
:101DB00000EB1264B7FA87F74FEA870C0F27266803
:101DC00007FA0CF7BE4392FAA2F7D1F804E0B7FA8B
:101DD00087F7BF000EFA07FE46EA0E0626600E6978
:101DE000C7684FEA122C9CFAACFCBCFA8CFC27EAC0
:101DF000122706FA0CF63743C7604E68012E01D051
:101E0000092E2BD192FAA2F7B7FA87F74FEA870C7F
:101E1000032707FA0CF72668D1F808E0BE4392FAC8
:101E2000A2F7B7FA87F7BF000EFA07FE92FAA2FCF4
:101E300046EA0E06BCFA8CFC4FEA8C0E4FF0040CFE
:101E400026600CFA0EFC92FAA2F2B2FA82F2CF6885
:101E5000920026EA0C0697403E4326605B1C35FA4A
:101E600003F292D10120F0BD30B591FAA1F400EB5C
:101E70001160B4FA84F4A5000F24AC4091FAA1F1EA
:101E80000368B1FA81F18900A3438A4013430360D8
:101E900030BD30B591FAA1F400EB1160B4FA84F4CE
:101EA000A5000F24AC4091FAA1F10368B1FA81F1C9
:101EB0008900A3438A401343036030BD0A7B8B68CB
:101EC0001A434B6822F480621A430B6822F40062C2
:101ED0001A43CB8922F480521A430B6922F4005230
:101EE0001A434B6922F480421A4322F400411943F9
:101EF0004164012070470000F0B502681C4B1D4D85
:101F00001D4E1E4F1E4C4FF0804C984209D0A042EF
:101F100007D0604505D0A84203D0B04201D0B842F6
:101F200005D1D1F804E022F0700242EA0E02984294
:101F300009D0A04207D0604505D0A84203D0B042E6
:101F400001D0B84203D1CD6822F440722A43026026
:101F50008A68C2620A888262984201D0A04201D196
:101F6000097C0163416941F0010141610120F0BD3B
:101F7000002C01400004004000080040000C00401C
:101F800000340140012919D0042919D0102919D091
:101F9000402919D0B1F5807F18D0B1F5806F17D0E6
:101FA00006210C4A18300B4B525CDB1D10445B5C65
:101FB0000421026899408A43026070470021F0E7DB
:101FC0000121EEE70221ECE70321EAE70421E8E73B
:101FD0000521E6E7503E0008012919D0042919D04F
:101FE000102919D0402919D0B1F5807F18D0B1F54A
:101FF000806F17D006210C4A18300B4B525CDB1D4A
:1020000010445B5C0821026899400A4302607047F3
:102010000021F0E70121EEE70221ECE70321EAE7E6
:102020000421E8E70521E6E7503E0008F0B5002668
:1020300001236E4C6E4D012908D010293BD0B1F51B
:10204000807F73D0B1F5805F6ED1A6E0016A21F088
:1020500001010162016A46688769D2F800C027F071
:10206000730747EA0C07D2F810C021F0020141EAD9
:102070000C01D2F804C021F0010141EA0C01A04298
:1020800001D0A84212D1546921F0080141EA84012B
:10209000946821F0040141EA8401956926F4807472
:1020A0002C43D56924F4007444EA450646608761F0
:1020B000D26842636FE0016A21F010010162066A92
:1020C00041688769D2F800C027F4E64747EA0C2741
:1020D000D2F810C026F0200646EA0C16D2F804C04A
:1020E00026F0100646EA0C16A04201D0A84213D1F1
:1020F000556926F0800444EA8514956824F040046C
:1021000044EA8516946921F4806141EA8401D46926
:1021100021F4006141EAC40141608761D1688163B3
:1021200061E003E000E01E463046F0BD016A21F4A4
:1021300080710162016A4668C769D2F800C027F061
:10214000730747EA0C07D2F810C021F4007141EA86
:102150000C21D2F804C021F4807141EA0C21A04284
:1021600001D0A84213D1546921F4006141EA8421CD
:10217000946821F4806141EA8421956926F48054B1
:1021800044EA0514D56924F4005444EA451646602F
:10219000C761D268C2630162C5E7016A21F4805158
:1021A0000162066A4168C769D2F800C027F4E647B1
:1021B00047EA0C27D2F810C026F4005646EA0C363F
:1021C000D2F804C026F4805646EA0C36A04201D06C
:1021D000A84204D1946921F4804141EA841141600C
:1021E000C761D168016406629DE70000002C0140D0
:1021F0000034014010B5012916D0042916D0102949
:1022000016D0402916D0B1F5807F15D0B1F5806F7A
:1022100014D00623016A0A4CE35C02249C40A143CB
:102220009A401143016210BD0023F3E70123F1E757
:102230000223EFE70323EDE70423EBE70523E9E7B8
:102240005E3E000810B5012916D0042916D01029C9
:1022500016D0402916D0B1F5807F15D0B1F5806F2A
:1022600014D00623016A0A4CE35C02249C40A1437B
:102270009A401143016210BD0023F3E70123F1E707
:102280000223EFE70323EDE70423EBE70523E9E768
:10229000653E0008704770477047000010B5FEF7B4
:1022A000F9FB00F0E3F907490868421C0A601928A5
:1022B00007DB0548D0F88821D243C0F888210020E8
:1022C000086010BD00000020008022420122024967
:1022D0000248FFF715BD00004C0000206C010020F3
:1022E0003EB50F4800240D498460C460446101601C
:1022F000012505614FF460214460C161FEF7F2FCE5
:1023000000B1FEE70420CDE90005694602940448C7
:10231000FEF76AFC002800D0FEE73EBD0024014025
:102320007C0000202DE9F0472C4886B0816941F0FF
:1023300010018161816901F010010491816941F00E
:1023400020018161816901F020010491816941F0DE
:1023500004018161816901F004010491816941F006
:10236000080181618069DFF8789000F008004FF47F
:1023700080560490002231464846FEF7EFFEDFF813
:1023800064A0002204215046FEF7E8FE0425DFF891
:10239000588000240095CDE9018469464846FEF73F
:1023A000E9FD0096022701260397CDE901646946FD
:1023B0004846FEF7DFFD6803CDE900086946029450
:1023C0000A48FEF7D7FD03970095CDE901646946F9
:1023D0005046FEF7CFFD06B0BDE8F0870010024082
:1023E000000C0140001401400000311000080140C1
:1023F000F0B5474899B0816941F400618161806915
:10240000002400F400601890B320ADF84C0040F2B6
:10241000E730CDE914403F4D16948DF85C4013A988
:102420002846FFF769FD286820F080002860012118
:102430002846FFF7D1FD6020CDE9000404A80294EE
:102440000226AF15039480E8D0006A460121284691
:102450000797FFF7EBFD01212846FFF793FD1021B9
:102460002846FFF7B9FD01946A46102128460294D8
:10247000FFF7DCFD10212846FFF784FD394628468A
:10248000FFF7AAFD01946A46394628460294FFF7F1
:10249000CDFD39462846FFF775FDAF14394628466D
:1024A000FFF79AFD029401946A463946284607943C
:1024B000FFF7BCFD39462846FFF764FD686820F049
:1024C00070006860A86820F08000A8608DF8404027
:1024D0000D940E940F94ADF842406814CDE91104A8
:1024E0000DA92846FFF7EAFC0B4808A909250B941B
:1024F00081E861000948FFF73FFC094808A90B94EF
:1025000081E861000748FFF737FC19B0F0BD000013
:1025100000100240002C0140E000E004000C0140EB
:102520000F000F040008014010B514488CB0124988
:102530000024C0E900144FF6FF71C0E902410461B4
:1025400084610120CDE90004CDE902040494CDE9C1
:1025500005400794694609480894FFF72EFA00B130
:10256000FEE7099409A905480A94FFF7F1F9002844
:1025700000D0FEE70CB010BD00040040AC0000200D
:1025800010B514488CB012490024C0E900144FF66D
:10259000FF71C0E90241046184610120CDE90004BA
:1025A000CDE902040494CDE9054007946946094841
:1025B0000894FFF702FA00B1FEE7099409A905485B
:1025C0000A94FFF7C5F9002800D0FEE70CB010BD53
:1025D00000080040EC00002010B514488CB01249EF
:1025E0000024C0E900144FF6FF71C0E90241046104
:1025F00084610120CDE90004CDE902040494CDE911
:1026000005400794694609480894FFF7D6F900B1D8
:10261000FEE7099409A905480A94FFF799F90028EB
:1026200000D0FEE70CB010BD000C00402C010020D3
:1026300070B50C4D002400BFFEF7AEFA04EB440366
:1026400005EB830291685668411AB14204D3906049
:1026500055F8232008469047641CE4B2052CEBD3C0
:10266000002070BD10000020FEE700002DE9FF5F94
:10267000FEF738FADFF8F8A0DFF8F8B000253E489A
:1026800050F82500FDF792FF3C4951F82510FDF761
:10269000D0FD394905EB8502403101EBC204064605
:1026A000206251F832003146FDF7C6FD60603046C9
:1026B000FDF7E7FF06460F46A068FDF7E2FF52462A
:1026C0005B46FDF792FE32463B46FDF78EFE064620
:1026D0000F462069FDF7D5FF32463B46FDF7DEFD8C
:1026E000FDF7FAFF264A27492061FEF76BFA2061C1
:1026F000D4E9089180464846FDF798FDFDF7C1FFF3
:1027000006460F466069FDF7BCFF52465B46FDF783
:102710006CFE32463B46FDF768FEFDF7DDFFC4F870
:1027200024900646A06141466068FDF72DFD3146C4
:10273000FDF72AFDE169FDF727FD134A1349E06122
:10274000FEF740FA6D1CEDB2E061042D97D30A4804
:102750004030C1690091416C0191C16E0291D0F885
:1027600094000390684600F051F8BDE8FF9F000018
:102770007B14AE47E17A943FAC0100205800002062
:10278000000020C100002041000020C200002042C3
:1027900070470907090E002806DA00F00F0000F163
:1027A000E02080F8141D704700F1E02080F800144C
:1027B0007047000012484FF07E5200210260114B1A
:1027C0008160436182620163C3638165C0F88010E8
:1027D00001618163C0E918130265C0E92213C16178
:1027E0004164C166C0F89410016281640167C0F859
:1027F00098104162C164C0E91D12C0F89C10704776
:10280000EC01002000001643704770472DE9F05F8F
:10281000CB4D0446E86820F00040FDF732FF064645
:10282000A868884620F00040FDF72BFF074668683F
:102830008A4620F00040FDF724FF814628688B4639
:1028400020F00040FDF71DFF4A465B46FDF726FDE0
:102850003A465346FDF722FD32464346FDF71EFD3C
:102860000022B84BFDF720FF2ED8B74C4FF4805014
:102870002061B74D0922B5492846FFF70AFB092216
:10288000B4492846FFF705FB0922B3492846FFF75C
:1028900000FB0922B1492846FFF7FBFA0922B0499B
:1028A0002046FFF7F6FA0922AE492046FFF7F1FA73
:1028B0000922AD492046FFF7ECFAAC48416C21F4FF
:1028C00000414164BDE8F09FA84D686C40F40040B1
:1028D000686420684FF40006B04206DB09229B4979
:1028E0009B48FFF7D6FA012205E001229749984854
:1028F000FFF7CFFA09229A499348FFF7CAFA6068AE
:10290000B04206DB012293499148FFF7C2FA09223F
:1029100005E009228F498E48FFF7BBFA0122914951
:102920008948FFF7B6FAA068B04206DB01228A495F
:102930008748FFF7AEFA092205E009228649844854
:10294000FFF7A7FA012288497F48FFF7A2FAE0685B
:102950004FF48051B0427C4802DB4161002201E02B
:10296000016102222846FFF76DFC002054F8201078
:10297000B14201DA81F0004144F82010401C0328E4
:10298000F4DB2068FDF77DFEDFF8E4B189460546FB
:102990005A46784BFDF729FD0746884628464946A2
:1029A00000224FF0804300F041FD734A734BFDF766
:1029B0001CFD054689462068FDF763FE0022704B2A
:1029C00000F034FD6F4A704BFDF70FFD2A464B4671
:1029D000FDF705FD3A464346FDF760FCDFF8ACA184
:1029E0006B4B5246FDF75AFCFDF72CFE5F49343124
:1029F00008606068FDF745FE0F4605465A465D4B88
:102A0000FDF7F3FC814688462846394600224FF000
:102A1000804300F00BFD584A584BFDF7E6FC074693
:102A20000D466068FDF72DFE0022554B00F0FEFCC0
:102A3000544A554BFDF7D9FC3A462B46FDF7CFFCDF
:102A40004A464346FDF72AFC5246514BFDF726FC09
:102A5000FDF7F8FD454938310860A068FDF711FE23
:102A60000F4605465A46434BFDF7BFFC8046894654
:102A70002846394600224FF0804300F0D7FC3E4AFA
:102A80003E4BFDF7B2FC05460F46A068FDF7F9FD89
:102A900000223B4B00F0CAFC3A4A3B4BFDF7A5FC39
:102AA0002A463B46FDF79BFC42464B46FDF7F6FBAC
:102AB0005246374BFDF7F2FBFDF7C4FD2B493C3185
:102AC0000860E06801F10409B04230DBFDF7D9FD90
:102AD000884605465A46274BFDF787FC06460F46B3
:102AE0002846414600224FF0804300F09FFC224AD6
:102AF000224BFDF77AFC05468846E068FDF7C1FDEC
:102B000000221F4B00F092FC1E4A1F4BFDF76DFC8C
:102B10002A464346FDF763FC32463B46FDF7BEFBC3
:102B200052461B4BFDF7BAFBFDF78CFD04E019493B
:102B3000FDF782FBFDF772FDC9F80000C2E6000058
:102B4000580000200000F03F000C0140010001048B
:102B50000008014002000204040004040800080404
:102B6000200020044000400480008004002C01402C
:102B7000B4C876BE9F4A4340431CEBE2361A03407A
:102B800000000840F2D24D621058A93F1D5A643B24
:102B9000DF8F36400000C8C110B5FEF7EBFABDE884
:102BA0001040FEF7D1BE30B595B001210804CDE943
:102BB00000100025029502240491CDE907404FF44E
:102BC000E01009906846FEF711FD00B1FEE70AA982
:102BD0000F2081E831004FF48060CDE90D0502211E
:102BE0000AA8FEF7FDFB00B1FEE74FF4004011908C
:102BF0000F940FA8FEF77EFB00B1FEE7FEF79AFCEC
:102C00004FF47A71B0FBF1F0FEF78AFE0420FEF774
:102C10006FFE00221146501EFEF73AFB15B030BD84
:102C20000D48016841F00101016041680B4A114003
:102C3000416001680A4A11400160016821F4802165
:102C40000160416821F4FE0141604FF41F01816081
:102C50000449C00308607047001002400000FFF8FC
:102C6000FFFFF6FE08ED00E0F0B502681C4B1D4DBD
:102C70001D4E1E4F1E4C4FF0804C984209D0A04272
:102C800007D0604505D0A84203D0B04201D0B84279
:102C900004D122F0700E4A6842EA0E02984209D02E
:102CA000A04207D0604505D0A84203D0B04201D071
:102CB000B84203D122F44075CA682A4322F0800545
:102CC0004A692A4302608A68C2620A68826298423C
:102CD00001D0A04201D10969016301214161F0BD28
:102CE000002C01400004004000080040000C00409F
:102CF0000034014010B50123046A8B409C430462F8
:102D0000036A8A401343036210BD10B5406A002174
:102D1000C185C184FEF70CFF10BD0168CA6822F4AA
:102D20009072CA6001684A6922F001024A6120215A
:102D300080F83A10704710B590F83A10222901D067
:102D4000022010BD8168B1F5805F11D001690029B2
:102D500001681FD0496801F07F03816A4A1C8262C2
:102D60000B70C18D491E0904090CC18518D02BE0D8
:102D70000269816A002A0268526805D0D2B20A80CC
:102D8000816A491C8162ECE7C2F308020A80816A09
:102D9000891CF7E74A68816A4B1C83620A70E0E786
:102DA0000168CA6822F02002CA600168CA6822F479
:102DB0008072CA6001684A6922F001024A612021DA
:102DC00080F83A10FEF7C6FF002010BD2DE9F04153
:102DD000044600680169E26821F440511143016131
:102DE0002169A0680843616908432168CA6841F203
:102DF0000C639A430243CA6020684169A26921F4C6
:102E00004071114341614C49206864253226884253
:102E10003CD1FEF7A5FB00EBC00101EB001061689F
:102E20008900B0FBF1F7FEF79BFB00EBC00101EB63
:102E300000106168B0468900B0FBF1F0B0FBF5F01E
:102E40006FF01801484307EB800106EB0110B0FB5F
:102E5000F5F000F0F006FEF783FB00EBC00101EB9C
:102E6000001061688900B0FBF1F0B0FBF5F006EBF3
:102E70000016FEF775FB00EBC00101EB0010616866
:102E80008900B0FBF1F7FEF76BFB3BE0FEF758FB68
:102E900000EBC00101EB001061688900B0FBF1F7A5
:102EA000FEF74EFB00EBC00101EB00106168B0467D
:102EB0008900B0FBF1F0B0FBF5F06FF0180148436A
:102EC00007EB800106EB0110B0FBF5F000F0F00617
:102ED000FEF736FB00EBC00101EB001061688900D2
:102EE000B0FBF1F0B0FBF5F006EB0016FEF728FBA7
:102EF00000EBC00101EB001061688900B0FBF1F745
:102F0000FEF71EFB00EBC00101EB001061688900B9
:102F1000B0FBF1F0B0FBF5F06FF01801484307EBA0
:102F2000800108EB0110B0FBF5F0216800F00F0004
:102F300030448860BDE8F0810038014090F83910D5
:102F4000212901D0022070478168B1F5805F016AB4
:102F50000BD04A1C0262026809785160C18C491E7C
:102F60000904090CC1840ED017E009880268C1F376
:102F70000801516001690029016A02D0491C0162FF
:102F8000ECE7891CFBE70168CA6822F08002CA608E
:102F90000068C16841F04001C16000207047000036
:102FA0000148FEF7C7BD00006C010020FEE74900A4
:102FB00050EAC12018BF04204A0D18BF40F001009C
:102FC00040F2FF72B2EB515F08BF40F002000128EF
:102FD00008BF052070472DE9F0414F1E00EBC701E7
:102FE0000446D1E9000115461E4637F006020DD011
:102FF0002A463346FDF7F9F97F1E04EBC703D3E9F0
:103000000023FDF74BF937F00602F1D1022F25D04E
:10301000042F13D0062F18BFBDE8F0812A4633468F
:10302000FDF7E3F9D4E90A23FDF738F92A463346D8
:10303000FDF7DBF9D4E90823FDF730F92A463346DA
:10304000FDF7D3F9D4E90623FDF728F92A463346DC
:10305000FDF7CBF9D4E90423FDF720F92A463346DE
:10306000FDF7C3F9D4E90223FDF718F92A463346E0
:10307000FDF7BBF9D4E90023BDE8F041FDF70EB937
:103080000022134610460149FDF721BA0000F03F27
:10309000FDF704B90022134610461146FDF717BA92
:1030A00040F2013200204FF0E041FDF7FABB000092
:1030B000024A00201107FDF7F4BB000001FDFFFFED
:1030C00002E008C8121F08C1002AFAD170477047F1
:1030D000002001E001C1121F002AFBD1704700004F
:1030E0000149086070470000780000202DE9F04792
:1030F000454A516800296CD0012970D09146434A55
:103100004FF0000A02F1140402296DD003295ED1A8
:10311000108847BA2760508846BA6660908845BADA
:10312000A560D08840BAFDF74AFA8046A061B81978
:10313000284400B2FDF73AFA4146FDF7E9FA44D1D6
:103140002068FDF733FA324D324E2A463146FDF7FC
:1031500039FDFDF74AFA20606068FDF727FA2A4634
:103160003146FDF72FFDFDF740FA6060A068FDF7DE
:103170001DFA2A463146FDF725FDFDF736FA0546CC
:10318000A0602068A0F2DC50FDF71EFA224E00225B
:103190003346FDF79CF9FDF79FFAE0606068A0F206
:1031A000DC50FDF711FA00223346FDF790F9FDF7E8
:1031B00093FA2061A5F2DC50FDF706FA00223346AF
:1031C000FDF785F9FDF788FA6061C9F804A0BDE84C
:1031D000F087AA28FBD1012004E000E004E0BB282E
:1031E000F5D102205060F2E799F800304946D054FA
:1031F0005B1CD8B289F800000828E8D10320486099
:1032000089F800A084E7000050000020BC010020E5
:1032100000007A440000FA4400407F40FDF7B2FF0E
:10322000FFF7C1FCFFF77EF8FFF7AAF9FFF77CF97B
:10323000FFF7D2F970486F490C2201604FF4E13179
:10324000416000218160C160C0E904128161C161F7
:10325000FEF7F8FC00B1FEE7FFF7CAF8FFF740F809
:10326000002201212620FEF713F82620FEF704F89D
:10327000002211462820FEF70BF82820FDF7FCFF5E
:10328000002211460820FEF703F80820FDF7F4FF9E
:103290005A4C606C40F400406064206840F00100CB
:1032A0002060206A40F001002062206A40F0100097
:1032B0002062206AA51540F480702062206AA6145E
:1032C00040F480502062206A40F004002062206AAE
:1032D00040F040002062206A271540F480602062A0
:1032E000002201212046FEF785FF00221021204602
:1032F000FEF780FF002229462046FEF77BFF0022D2
:1033000031462046FEF776FF022204212046FEF7D2
:1033100071FF022240212046FEF76CFF022239464F
:103320002046FEF767FF374C3549656148146061F8
:103330006761354F80006061354DDFF8D0808000D7
:103340006861DFF8D09040006861DFF8CCB04000E1
:103350006861DFF8C8A06E6101222046FEF784FD97
:1033600001222F492046FEF77FFD01222D492046EC
:10337000FEF77AFD092239462046FEF775FD012247
:1033800041462846FEF770FD012249462846FEF7D1
:103390006BFD012259462846FEF766FD0122514683
:1033A0002846FEF761FD1448C038FEF7F9FA1248C6
:1033B0008038FEF7F5FA10484038FEF7F1FA0E486B
:1033C0001821C038FEF79AFB0B4818218038FEF709
:1033D00095FB094818214038FEF790FBFFF7EAF902
:1033E000012211490448FEF78BFC00BFFFF720F9CA
:1033F000FCE70000004400406C010020002C01406C
:103400000100010400080140080008042000200415
:10341000000C0140400040048000800410001004B3
:1034200002000204040004044C0000202DE9F04DC9
:103430001D460C4698B0174621F0004123F000438A
:10344000002814BF4FF0010C4FF0000C0CEB440CA3
:10345000FE4A0CEB02064FEA620C66452BD33E0097
:1034600018BF012606EB45061644F94A964222D3B8
:10347000F84A53EA070C02D0944205D148B918B073
:1034800000201146BDE8F08D002808BF4FF0000C69
:1034900001D04FF0010C0CEB440212F5001F0AD8CA
:1034A000002F14BF4FF0010C4FF0000C0CEB450245
:1034B00012F5001F07D918B03A462B462146BDE841
:1034C000F04DFFF7E5BD0022DFF88CA3002CB8BF5C
:1034D000534526DADFF884C36345A8BF022220DA09
:1034E000DFF870C39C451CDCDFF874C30CEB235C75
:1034F000BCF1140F08DDCCF1340627FA06FC0CFAF7
:1035000006F6BE420DD108E05FB9CCF1140623FAED
:1035100006FC0CFA06F69E4203D10CF00102C2F141
:10352000020251EA000C19D1002D17DA002C18BF45
:10353000022A01D0012A07D00220FFF7D1FD18B0DE
:10354000BDE8F04DFFF79CBD0220FFF7C9FDFFF776
:1035500097FD18B081F00041BDE8F08DB7F1000C87
:103560006CD1534525D104F1804212F5801201BF80
:1035700000280020B74918B008BFBDE8F08DB54855
:10358000884207DC002DA1BF6046294618B0BDE87F
:10359000F08D07E0281E05DA80F0004118B0604683
:1035A000BDE8F08DAF497944D1E9000118B0BDE81C
:1035B000F08DDFF8A0C2634525D1002D1FDA19B1C7
:1035C000514512D1D8B909E0002840F0EC82A24A56
:1035D000214618B062F31E01BDE8F08D002021469F
:1035E00018B060F31E01BDE8F08D08DA18B023466C
:1035F000BDE8F04D024600206146FCF768BF18B0F8
:103600002146BDE8F08D514518DAB5F1804F0DD057
:10361000A5F1005CBCF1FF5C10D1B4F1000C0DDB36
:1036200018B06146BDE8F04D00F0ECBB234618B081
:103630000246BDE8F04D1946FCF7D7BE060024F05F
:10364000004C3BD1D9B1514533D1002C06DD002DC2
:10365000A1BF0020514618B0BDE8F08D002C01DD5F
:10366000002D1BDB002C13DA002D11DB012A4FF09B
:10367000000014BF78497C4918B0BDE8F08D022ADB
:1036800018BF002C0AD0012A08D1002C06DA0AE063
:10369000002CB8BF002D11DA012A04D0002018B088
:1036A0000146BDE8F08D18B000204FF00041BDE8A4
:1036B000F08DA1F14050B0F17F601AD0012000EBF5
:1036C000E47050EA020421D0624C521E4FF0000B0D
:1036D000104304BF4FF0000B644C654883427CDD0F
:1036E000644A654893421FDD884217DB002D25DBC5
:1036F00037E0002C00DA4AB1022A0CBF01204FF05B
:10370000FF3018B0BDE8F04DFCF75EBF0120FFF7B9
:10371000E7FC18B0BDE8F04DFFF7BCBC4D4A8A424B
:1037200002DC002D0ADC1CE0814202DA002D18DAEE
:1037300004E0484B994220DD002D12DD0220FFF706
:10374000CFFCFFF7ADFC05460E4600225346584617
:103750002146FCF74AFE18B066F31E012846BDE874
:10376000F08D0220FFF7BCFCFFF7A2FC0A462146C1
:1037700018B062F31E01BDE8F08D002230466146AC
:10378000FCF72DFE80460E466FF00102FDF789F82A
:103790004FF05532394BFCF725FE42463346FCF7D5
:1037A00024FE0022364BFCF71DFE8246424633467D
:1037B000049110461946FCF718FE5246049BFCF78C
:1037C00014FE8A4600904FF0C0422E4B40463146D0
:1037D000FCF70BFE2C4A2B4B00E027E0CDE906015D
:1037E00051460098FCF701FE82460191274A284B7A
:1037F00040463146FCF7F9FD5246019BFCF7EFFDD0
:1038000082460B4602460591DDE90601FCF746FDBE
:10381000DDE90623002688463046FCF7E0FD5246E7
:10382000059BFCF7DFFD024600F07EB90020B1F5F4
:10383000801F07DA352230466146FDF732F806462A
:103840006FF0340000EB215024E00000FFFF1F0068
:10385000FFFF0F000000F03F0000F07F000040433A
:1038600001FCFFFF660900000000F0FF0000F0BF50
:103870000000E0410000F043FFFFEF3F5555D53F0A
:103880000000E03F4715F73FFE822B6544DF5DF8FF
:103890000BAE543EA0F2FF300190C1F3130040F094
:1038A0007F6141F040510291FE498842D8BF00201B
:1038B00004DDFD498142C8BF012001DD0D9008E013
:1038C00000200D900198401C01900298A0F58010F6
:1038D00002900299F54878440B910D9900EBC100D4
:1038E000D0E900230F9330460A920B99FCF777FD3D
:1038F000CDE90601DDE90A2130460F9BFCF7CEFC3D
:1039000002460B460020EA49FCF7E1FD059102461C
:103910000B460090DDE90601FCF767FD1490E548D1
:103920008A464FF0000878440299006812904FF0E0
:10393000005040EA61010D980F9B01EB804000F5BB
:10394000002109910A9A1298FCF749FD32460B9B17
:10395000FCF748FD42465346FCF747FD06460291F8
:1039600040465146099B129AFCF73FFDDDE90623CC
:10397000FCF738FD3246029BFCF731FD059B009AAF
:10398000FCF733FD0091149A0490534610461946F3
:10399000FCF72BFD06460246C7480B46029106215E
:1039A0007844FFF718FBCDE90510029B324610461C
:1039B0001946FCF71AFDDDE90532FCF716FD059105
:1039C0000646534640461946149AFCF767FC009B8E
:1039D000049AFCF70AFD3246059BFCF75FFCCDE933
:1039E00005104246534610461946FCF7FEFC0022DD
:1039F000B24B02910A90FCF751FCDDE90532FCF76D
:103A00004DFC0E464246AD4B4046FCF7E8FC029B9F
:103A10000A9AFCF7E4FCDDE90532FCF7E3FC4246D8
:103A200002910A90334610465146FCF7DEFCCDE980
:103A300006015346149A02990A98FCF7D6FC8A4666
:103A400002903346424600990498FCF7CEFC534658
:103A5000029AFCF723FC82460B4602460591DDE9FB
:103A60000601FCF71BFCDDE906230020884606461C
:103A7000FCF7B5FC5246059BFCF7B4FC8246099165
:103A80004FF060428E4B30464146FCF7AEFC04904E
:103A900006918C4A8A4B50460999FCF7A6FC82464F
:103AA0000291894A894B30464146FCF79EFC5246BA
:103AB000029BFCF7F3FB864B7B440D9A03EBC2039E
:103AC000D3E90023FCF7EAFB0E9007910198FCF77D
:103AD0007BFD0591DDE9061382460E9A0498FCF7FA
:103AE000DDFB7C4A7A440D9B02EBC303D3E9002340
:103AF00000930292FCF7D2FB5246059BFCF7CEFBEB
:103B00000026884652463046059BFCF768FC009B21
:103B1000029AFCF764FC069B049AFCF760FC079B86
:103B20000E9AFCF75FFC024600200B4602903846D6
:103B30002946FCF75AFC824601912B463846194625
:103B4000029AFCF74CFC32464346FCF74EFC5246C8
:103B5000019BFCF7A3FB07468A46324643462946AB
:103B60000298FCF742FC05460E463A465346FCF7DF
:103B700095FB594A8846914221DBA8EB020353EAA0
:103B8000000210D12A463346FCF729FCCDE9040196
:103B9000524A534B38465146FCF780FBDDE904237B
:103BA000FCF796FE21D20220FFF79AFAFFF778FA87
:103BB0000A46214618B062F31E01BDE8F08D494B5C
:103BC00028F000429A4210D3474A08EB020353EA16
:103BD00000027FF4C6AD2A463346FCF700FC3A46A5
:103BE0005346FCF775FE7FF6BCAD0022019228F02B
:103BF00000403E493E4A01EB2051824223DA481CF4
:103C00004FF4801121FA00F040443A4AC0F30A51BF
:103C10007A44394BA1F2FF31CB4020EA0303C0F3D1
:103C2000130040F48010C1F11401C84012680190E3
:103C3000B8F1000FBCBF4042019028463146FCF766
:103C4000CEFB05460E462A46334638465146FCF71B
:103C500025FB4FF000084246284B40460591FCF7F3
:103C6000C4FBCDE90601264A264B40460599FCF7E0
:103C7000BCFB009102902A46334640460599FCF76A
:103C8000AEFB3A465346FCF7ADFB1F4A1F4BFCF711
:103C9000ACFB009B029AFCF701FB074688460246F4
:103CA0000B4635E08E9803007AB60B00AE05000097
:103CB0000000F03FE6050000140500000000084089
:103CC00009C7EE3FFD033ADCF5015B14E02F3EBE71
:103CD000EC030000B003000000009040FE822B6562
:103CE0004715973C00CC904000346F3F01FCFFFF2C
:103CF0000000E03FFC020000FFFF0F00432EE63F04
:103D0000396CA80C615C20BEEF39FAFE422EE63F0A
:103D1000DDE90601FCF7C2FADDE9062305460E4699
:103D2000FCF75DFB3A464346FCF75CFB0F462A4630
:103D30003346009010461946FCF757FB8246024670
:103D40002E4888460B4605217844FFF744F9524631
:103D50004346FCF74AFB2A463346FCF743FB8046C2
:103D60008A463B4628463146009AFCF73EFB3B46D6
:103D7000009AFCF793FA0691009000224FF08043DE
:103D800040465146FCF72BFB0F460C9042465346EB
:103D900028463146FCF729FB3B460C9AFCF797FB7B
:103DA000069B009AFCF71BFB2A463346FCF717FBE1
:103DB0000022134BFCF716FB054601980E4601EB5B
:103DC00000510815002810DC28463146019AFCF7FE
:103DD00068FDFFF7ECF8042808BFFFF769F92846EB
:103DE0003146019AFCF75DFD05460B4618B02A46A0
:103DF00058462146BDE8F04DFCF7F7BA9C0100009B
:103E00000000F03F2DE9F04106460F46FCF78AFD21
:103E1000041E0D4618BF0120284320F00040C0F1C9
:103E20007F6000F1E040C00F0ED0301C18BF0120B1
:103E3000384320F00040C0F17F6000F1E040C00F47
:103E400004BF0120FFF74CF920462946BDE8F08168
:103E50000000000004040400000800000008000244
:103E60000406080A0C00020406080A0C0000000000
:103E7000000000000102030406070809000000001A
:103E80000102030400000000000000000000F03FF9
:103E9000000000000000F83F0000000000000000EB
:103EA0000000004003B8E23F0000000000000000F6
:103EB00006D0CF43EBFD4C3E033333333333E33F84
:103EC000FFAB6FDBB66DDB3F4D268F515555D53FB0
:103ED00001411DA96074D13F65DBC9934A86CD3F7E
:103EE000EF4E454A287ECA3F3E5555555555C53F6C
:103EF00093BDBE166CC166BF2CDE25AF6A56113F5E
:103F0000F16BD2C541BDBBBED0A4BE726937663E5F
:103F10000000000000000000383F00080000002002
:103F20007C000000C0300008B43F00087C00002086
:103F300014060000D030000800000000000000005F
:103F4000000000000000000095220008D0070000DB
:103F50000000000097220008701700000000000019
:103F600099220008F82A0000000000009D220008A5
:103F7000204E000000000000CD22000850C30000C9
:103F80000000000000000000000000000000000031
:103F90000000A0410000A0410000A0410000A0419D
:103FA00001000000100000000000000000A24A0410
:043FB000000000000D
:0400000508000131BD
:00000001FF
