:020000040800F2
:1000000030060020A9010008F71700085D16000857
:10001000F5170008910200082921000800000000DF
:10002000000000000000000000000000BB180008F5
:100030001503000800000000B9180008BD180008EA
:10004000C3010008C3010008C3010008C301000880
:10005000C3010008C3010008C3010008C301000870
:10006000C3010008C3010008C3010008C301000860
:10007000C3010008C3010008C3010008C301000850
:10008000C3010008C3010008C3010008000000000C
:10009000000000000000000000000000C301000894
:1000A000C3010008C1190008C3010008C30100080A
:1000B000CD190008D9190008C3010008C3010008C0
:1000C000C3010008C3010008C3010008C301000800
:1000D000C3010008112100081D21000800000000D4
:1000E000C3010008C3010008C301000800000000AC
:1000F000000000000000000000000000C301000834
:1001000000000000C3010008C3010008C30100088B
:1001100000000000000000000000000000000000DF
:10012000C3010008C3010008C3010008C30100089F
:10013000C3010008000000000000000000000000F3
:10014000000000000000000000000000C3010008E3
:10015000C3010008C3010008C3010008C30100086F
:10016000C3010008C30100080000000000000000F7
:10017000000000000000000000000000000000007F
:1001800000000000C30100080000000000000000A3
:10019000C3010008DFF80CD000F068F80048004701
:1001A000A521000830060020064880470648004781
:1001B000FEE7FEE7FEE7FEE7FEE7FEE7FEE7FEE717
:1001C000FEE7FEE76D190008950100082DE9F05FD4
:1001D0000546002092469B468846064681464024B6
:1001E0001BE0284641464746224600F02FF853467A
:1001F0005A46C01A914110D311461846224600F0C3
:1002000016F82D1A67EB01084F46224601200021FF
:1002100000F00DF817EB00094E41201EA4F1010477
:10022000DFDC484631462A464346BDE8F09F202A97
:1002300004DB203A00FA02F1002070479140C2F13D
:10024000200320FA03F3194390407047202A04DB6F
:10025000203A21FA02F00021704721FA02F3D0403F
:10026000C2F120029140084319467047064C074DE1
:1002700006E0E06840F0010394E807009847103476
:10028000AC42F6D3FFF78AFF302300085023000862
:10029000FEE700001C4882B0AA210170BB2141701A
:1002A0001A494FF6FF734979817018490979C1706D
:1002B0001649497801711549097841711349497BFB
:1002C00081711249097BC171A0F128018A780272FB
:1002D000CA7842720A7982724979C1720B490B4A13
:1002E000898812881144094A92891144ADF8001096
:1002F0009DF8011001739DF80010417301460E2214
:10030000034802B001F04CB9940000200C0000201A
:10031000EC010020704790F83510022903D08021AD
:10032000416501207047052180F83510006801689B
:1003300021F0010101600020704700002DE9F84F15
:10034000DFF860B100224FF001084FF0030A4FF0D0
:100350000F090BF1040E00BF0B6808FA02F42340EA
:10036000A3426ED14D68022D01D0122D0ED1D508B9
:1003700000EB850CDCF820505607F70E09FA07F65B
:10038000B5430E69BE402E43CCF820600668550088
:100390000F790AFA05FC07F0030726EA0C06AF40BE
:1003A000374307604E68012E05D0022E03D0112E70
:1003B00001D0122E0ED18668CF6826EA0C06AF4017
:1003C000374387604668A6430C79C4F30014944011
:1003D00034434460C6688C6826EA0C06AC4034435B
:1003E000C4604C68E40056D52F4C256845F4804520
:1003F0002560246822F0030504F4804400942B4C0B
:100400002E19D6F8084895072F0F09FA07F5AC43BF
:10041000274DA84201D1002515E0264DA84201D163
:10042000012510E0244DA84201D102250BE0234D07
:10043000A84201D1032506E0214DA84202D104259E
:1004400001E028E00725BD402543C6F80858DBF841
:1004500000405D464E689C43F60300D51C432C606B
:10046000DEF8004075464E689C43B60300D51C4339
:100470002C600C4D08352C684E689C43F60200D564
:100480001C432C60074D0C352C684E689C43B6020B
:1004900000D51C432C60521C102AFFF45DAFBDE850
:1004A000F88F0000003C0140443802400030014019
:1004B000000002400004024000080240000C02401C
:1004C0000010024042694A40426170470AB18161AE
:1004D00070470904FBE7000001488068704700008E
:1004E0005C000020024881680278114481607047F6
:1004F0005C0000200B4810B5016841F400710160F8
:10050000016841F480610160016841F4807101601B
:10051000032000F097F8002000F006F800F024F81F
:10052000002010BD003C024070B50D4D04464FF454
:100530007A712878B1FBF0F00A490968B1FBF0F054
:1005400000F01DFB48B9102C07D200222146501E96
:1005500000F058F800206C6070BD012070BD0000F4
:100560005C000020680000201F4808B5016841F4C5
:1005700080410160006800F4804000901A48001F2C
:10058000016841F080510160006800F080500090E7
:10059000032000F057F8002211466FF00B0000F026
:1005A00031F8002211466FF00A0000F02BF800220B
:1005B00011466FF0090000F025F800221146501F87
:1005C00000F020F800221146101F00F01BF8002256
:1005D0001146901E00F016F80022BDE808401146B2
:1005E000501E00F00FB800004438024000F01F0217
:1005F000012191404009800000F1E020C0F8001185
:1006000070470000F0B40E4B1B680C46C3F3022386
:10061000C3F10705042D00D90425191D072901D2AE
:10062000002300E0DB1E012606FA05F1491E2140E9
:1006300099409E40761E16403143F0BC01F0DCB874
:100640000CED00E0064900F0070208684FF6FF03D2
:10065000184040EA0220034A104308607047000037
:100660000CED00E00000FA052DE9F0470E4605000C
:1006700065D0DFF81481D8F80000F7B200F00F0061
:10068000B04207D288F80070D8F8000000F00F00E0
:10069000B04254D128683D4C810712D5400703D59C
:1006A000206840F4E05020602878000703D52068D7
:1006B00040F4604020602068A96820F0F000084302
:1006C00020602878C0072DD0304968680839012893
:1006D00012D0022813D0032811D0096889070029F5
:1006E0002DDA216821F0030101432160FFF7F4FEB8
:1006F000814641F2883A0EE009688903EFE709680C
:100700008901ECE7FFF7E8FEA0EB0901514502D9AA
:100710000320BDE8F0872068696800F00C00B0EBAA
:10072000810FEFD1D8F80010404601F00F01B1421F
:1007300007D90770006800F00F00B04201D0012017
:10074000E7E72878400705D52068E96820F4E050FD
:10075000084320602878000706D52068296920F41E
:10076000604040EAC100206000F03CF82168084A7F
:10077000C1F30311515CC840064908600020FFF72F
:10078000D3FE0020C5E70000003C024008380240CC
:100790001623000868000020014800687047000028
:1007A000680000200448054900680968044AC1F34C
:1007B0008221515CC8407047680000200838024020
:1007C000262300080448054900680968044AC1F363
:1007D0004231515CC8407047680000200838024030
:1007E00026230008154810B5006810F00C021448C4
:1007F00013D01449042A0FD0082A0ED10F4C241FFD
:100800002268236802F03F025B0207D52068C0F32C
:100810008810A0FB010106E0084610BD2168C1F365
:100820008811A1FB00010023FFF7D0FC2168C1F370
:100830000141491C4900B0FBF1F010BD08380240ED
:100840000024F40040787D012DE9F84F050076D0B2
:100850002878DFF8F8B2BE4CC00749D0DBF80010AA
:100860005846C1F38101012908D00068C0F3810016
:1008700002280AD1201D0068400206D520688003A6
:1008800036D568680028E2D032E06868B0F5803F6D
:1008900010D0B0F5A02F206810D020F48030206058
:1008A000206820F4802020606868A0B1FFF714FE63
:1008B00006460CE0206840F48030F4E740F48020E5
:1008C0002060F7E7FFF708FE801B642873D82068D4
:1008D0008003F7D50CE0FFF7FFFD064605E000BFFB
:1008E000FFF7FAFD801B6428F0D820688003F7D456
:1008F0002878DFF8608280074FF000093ED5DBF8EA
:100900000010584611F00C0F09D00068C0F38100A8
:1009100002280BD18D48001F0068400206D42068D1
:10092000800715D5E868012809D111E0E868B8B159
:100930000120C8F80000FFF7CFFD064605E002E100
:10094000FFF7CAFD801B0228C0D820688007F7D5B2
:100950002068296920F0F80040EAC10020600DE01D
:10096000C8F80090FFF7B8FD064604E0FFF7B4FDB5
:10097000801B02281FD820688007F7D4287800073A
:1009800022D5724E744869696C3671B101210160DB
:10099000FFF7A2FD074604E0FFF79EFDC01B0228FB
:1009A00009D830688007F7D50EE0C0F80090FFF74F
:1009B00093FD074605E083E0FFF78EFDC01B02288C
:1009C0007ED830688007F7D42878400768D5DFF8EC
:1009D0007CA100270AF1380ADAF80000C0000BD425
:1009E000DAF8001041F08051CAF80010DAF800007F
:1009F000012700F080500090584E3068C00510D498
:100A0000306840F480703060FFF766FD009005E0CC
:100A1000FFF762FD0099401A022851D83068C005DE
:100A2000F6D54A4EA868683601280FD005283068E8
:100A300010D020F001003060306820F004003060F9
:100A4000A868B8B1FFF748FD00900FE0306840F0AB
:100A50000100F4E740F004003060F7E7FFF73CFDE9
:100A60000099411A41F28830814264D83068800789
:100A7000F4D50EE0FFF730FD009007E0FFF72CFD06
:100A80000099411A41F28830814254D83068800779
:100A9000F4D42FB1DAF8001021F08051CAF8001018
:100AA000A869C0B3DBF80010C1F3810102294AD064
:100AB0000228484607D0C8F86000FFF70DFD00E0A7
:100AC00039E005463AE04746C8F86000FFF704FD04
:100AD000064604E0FFF700FD801B02282BD82068A3
:100AE0008001F7D4D5E907010843A96A1C4A4908DF
:100AF00002EB01416A6A41EA8211084395F82C1021
:100B000040EA01611148001F016001203866FFF7CB
:100B1000E3FC054605E014E0FFF7DEFC401B02287D
:100B200009D820688001F7D50BE000BFFFF7D4FC9F
:100B3000401B022802D90320BDE8F88F20688001FD
:100B4000F4D40020F8E70120F6E70000083802405E
:100B50000038024000004742800E474200700040CB
:100B60000000FFFF4FF0E0210428086903D020F0C7
:100B700004000861704740F00400FAE7704710B5C0
:100B8000401EB0F1807F01D3012010BD4FF0E02462
:100B900060610F21601700F02FFE0020A061072088
:100BA0002061002010BD10B5FFF7E8FF10BD7047B1
:100BB000704710B590F83820012A25D0012280F81E
:100BC0003820CA688C6822F4407222434C6822F4B0
:100BD000806222430C6822F4006222430C6922F4F2
:100BE000805222434C6922F4005222438C6922F441
:100BF0008042224322F400410268002321435164D1
:100C000080F83830002010BD022010BD30B590F8BB
:100C10003820012A20D0012280F83820022380F8D1
:100C2000393003685C6824F070045C6003685C68B9
:100C30000D682C435C6003689C6824F080049C6011
:100C400003689C6849680C439C6080F83920002147
:100C500080F83810084630BD022030BD10B50400C1
:100C600003D094F8390010B107E0012010BD002036
:100C700084F83800204600F00DF8022084F839008E
:100C8000211D206800F0AEFE012084F8390000200C
:100C900010BD000000B501681E4887B0814212D126
:100CA0001D48016841F0010101600068002200F068
:100CB0000100059001211920FFF7A4FC1920FFF77E
:100CC00095FC07B000BD1448001FB1F1804F17D04C
:100CD000124A9142F5D1016841F0020101600068B9
:100CE000032100F002000590402000900220CDE991
:100CF00002010190049069460948FFF71FFBE0E7F5
:100D0000016841F001010160006800F001000590F8
:100D1000D7E70000000001404438024000040040D2
:100D200000000240022180F8391001680A6842F090
:100D300001020A60012180F8391000207047016823
:100D4000CA6842F00102CA600068016841F001010E
:100D500001600020704770B5044690F83800012803
:100D600017D0012584F83850022084F83900206813
:100D7000826822F0770222F47F428260086850285D
:100D800037D00DDC202859D005DC88B3102841D19C
:100D900051E0022070BD302853D040283AD13FE0C6
:100DA00060282ED070280BD0B0F5805F03D0B0F54E
:100DB000005F2FD110E02068816821F0070115E065
:100DC000CB68D1E90121206800F05FFE21688868C6
:100DD00040F0770088601DE0CB68D1E901212068F0
:100DE00000F053FE2068816841F48041816011E089
:100DF0001EE0CA684968206800F0FCFE50212068A7
:100E000006E0CA684968206800F03EFF602120685B
:100E100000F045FE84F83950002084F8380070BD99
:100E2000CA684968206800F0E5FE40212068EFE7C5
:100E300000212068ECE710212068E9E720212068E4
:100E4000E6E730212068E3E70249884201D100F05B
:100E50001FBD7047700100202DE9F041044690F855
:100E600038000D4601283DD0012684F83860022064
:100E700084F83900AAB3042A46D02068082A55D03D
:100E8000D5E90027E968036A23F480530362D0F8A8
:100E90001CC0036A2CF4407C4CEA07274FF6FF7C09
:100EA00027F470470CEA013139434FF4204723F40B
:100EB000204307EA02321A43C16102622068C16915
:100EC00021F44061C1612068C169AA6841EA022138
:100ED000C0F81C1084F83960002084F83800BDE8A0
:100EE000F08101E00220FAE7D5E90012EB68206802
:100EF00000F092FE2068816921F00C018161206878
:100F00008169AA6811430FE0D5E90012EB682068F7
:100F100000F0CCFE2068816921F440618161206885
:100F20008169AA6841EA02218161D3E7D5E9002CF1
:100F30002F7B016A21F480710162C169036A21F08B
:100F4000030141EA0C0121F0F00C39074FF420674E
:100F50004CEA116123F4206307EA02221A43C161BB
:100F600002622068C16921F00C01C1612068C16979
:100F7000AA681143ACE710B5040003D094F8390017
:100F800010B107E0012010BD002084F83800204691
:100F900000F00CF8022084F83900211D206800F0D0
:100FA00021FD012084F83900002010BD704710B5E4
:100FB0000268044631B1042908D0082915D00C294B
:100FC00008D116E0D06840F0020002E0D06840F09E
:100FD0000400D0600122206800F04CFD2068016808
:100FE00041F001010160002010BDD06840F0080010
:100FF000EFE7D06840F01000EBE770B504460068FA
:1010000001694FF00005C943890715D4C168C94378
:10101000890711D4E91E01610120207620688069CA
:101020008007204602D0FFF70FFF04E000F0C0F871
:10103000204600F042F9257620680169C943490736
:1010400017D4C168C943490713D46FF00401016183
:10105000022020762068806910F4407F204602D06C
:10106000FFF7F2FE04E000F0A3F8204600F025F9B7
:10107000257620680169C943090716D4C168C943A8
:10108000090712D46FF0080101610420207620685E
:10109000C0698007204602D0FFF7D6FE04E000F0CA
:1010A00087F8204600F009F9257620680169C943D0
:1010B000C90617D4C168C943C90613D46FF010011B
:1010C0000161082020762068C06910F4407F204626
:1010D00002D0FFF7B9FE04E000F06AF8204600F005
:1010E000ECF8257620680169C943C90708D1C168B1
:1010F000C943C90704D1891E0161204600F0F6F8F2
:1011000020680169C943090609D4C168C9430906B1
:1011100005D46FF0800101612046FFF748FD20688B
:101120000169C943490609D4C168C943490605D4C0
:101130006FF040010161204600F0FEF8206801696F
:10114000C94389060BD4C168C943890607D46FF027
:10115000200101612046BDE87040FFF729BD70BD48
:1011600070B50068104986B088421AD18015009089
:1011700012200225CDE9010503200124CDE9030455
:101180000A4E69463046FFF7D9F84FF46060009088
:101190000021CDE90151CDE9031469463046FFF73E
:1011A000CDF806B070BD0000000001400000024014
:1011B000704770B5044690F838000D4601280DD0F0
:1011C000012684F83860022084F8390042B1042AEC
:1011D00018D0082A2AD00C2A4DD139E0022070BD3F
:1011E000206800F065FC2068816941F00801816198
:1011F0002068816921F004018161206881692A6980
:10120000114311E0206800F07BFC2068816941F403
:10121000006181612068816921F4806181612068B9
:1012200081692A6941EA0221816124E0206800F095
:1012300093FC2068C16941F00801C1612068C1695F
:1012400021F00401C1612068C1692A69114311E0DC
:10125000206800F0ADFC2068C16941F40061C16103
:101260002068C16921F48061C1612068C1692A696F
:1012700041EA0221C16184F83960002084F8380015
:1012800070BD10B5040003D094F8390010B107E028
:10129000012010BD002084F83800204600F00CF832
:1012A000022084F83900211D206800F09BFB0120FA
:1012B00084F83900002010BD7047704710B504460F
:1012C0000068012200F0D6FB07492068884203D15C
:1012D000416C41F4004141642068016841F0010122
:1012E0000160002010BD0000000001400F4910B552
:1012F00088421AD1FEF7CEFF0D4C0521606890FBA5
:10130000F1F201FB120028B9084801222146B4304D
:1013100000F012F96068411C6160192805DB20218A
:101320000448FFF7CFF80020606010BDF8000020EF
:1013300054000020000002407047704770B50268FA
:1013400004461068D168536910F00F0F50D003F0B5
:10135000010501F4907635435DD0C20705D0CA057A
:1013600003D5E26B42F00102E263420705D5DA07DA
:1013700003D0E26B42F00202E263820705D5DA078E
:1013800003D0E26B42F00402E263020705D5DA07FC
:1013900003D0E26B42F00802E263E26B002A33D032
:1013A000800604D5880602D5204600F0B0FC2068EF
:1013B0004069E16BC0F38010090700D428B32046D0
:1013C00000F097FC2068416949061AD5416921F06F
:1013D00040014161606BA0B11B490165606BFEF784
:1013E0009AFF002810D0606B016DBDE8704008477F
:1013F000830610D58B060ED52046BDE8704000F060
:1014000086BC2046FFF799FF70BD2046FFF795FF89
:101410000020E06370BD030606D50B0604D5204608
:10142000BDE8704000F010BE4006F3D54806F1D587
:10143000D168204621F04001D160202184F8391084
:1014400000F00BF970BD0000E31C000870B504004B
:1014500004D094F83900002510B106E0012070BDD9
:1014600084F83850204600F023F8242084F839000E
:101470002068C16821F40051C160204600F08EFC54
:101480002068016921F4904101612068416921F0DF
:101490002A0141612068C16841F40051C160E563DF
:1014A000202084F8390084F83A00002070BD000044
:1014B00030B500681B4D022101220323072487B0A9
:1014C000A84219D11848056845F010050560006864
:1014D00000F010000590C0208DE81F0069461348F9
:1014E000FEF72CFF002211462520FFF78BF8252060
:1014F000FFF77CF807B030BD0D4DA842FAD10A487D
:10150000001F056845F400350560006800F40030F0
:1015100005900C208DE81F0069460648FEF70EFF77
:10152000E8E7000000100140443802400004024097
:10153000004400400000024090F83A30202B1DD1BA
:10154000D1B1CAB190F83830012B17D081628285B1
:10155000C2850021C163222280F83A2080F8381029
:1015600001684A6942F001024A610068C16841F4B9
:101570009071C160002070470120704702207047C1
:1015800010B5012204490548FFF7D6FF024800784C
:10159000BDE8104000F0D8BD54000020AC01002090
:1015A0002DE9F843044690F839001F4616460D46CB
:1015B000202850D1A5B19EB194F8380001284AD016
:1015C000012084F838004FF00008C4F83C80212046
:1015D00084F83900FEF780FFA6848146E68426E081
:1015E0000120BDE8F883E08C401EE084A0684B46F3
:1015F000B0F5805F4FF000024FF080012046009769
:1016000003D000F052FDE8B90DE000F04EFDC8B97E
:1016100028882168C0F308004860206908B16D1C63
:1016200005E0AD1C03E0216815F8010B4860E08C73
:101630000028D8D14B46002240212046009700F0D8
:1016400034FD08B10320CCE7202084F8390084F869
:1016500038800020C5E70220C3E77047FEE700009E
:1016600010B5314894B02F49016040F24731002451
:10167000C0E9011440F2CF71C0E903144461FFF7DF
:10168000EDFA00B1FEE74FF480500E900EA9264807
:10169000FFF761FB00B1FEE72348FFF7F2FD00B161
:1016A000FEE7129412A920481394FFF7AFFA00B195
:1016B000FEE76020CDE900040294039404940594AD
:1016C0000022694618480694FFF773FD00B1FEE753
:1016D000042269461448FFF76CFD00B1FEE70822BA
:1016E00069461148FFF765FD00B1FEE70C22694627
:1016F0000D48FFF75EFD00B1FEE7079408940994DA
:101700004FF400500A94CDE90B4007A906480D9408
:10171000FFF74FFA00B1FEE70348FFF721FD14B0D1
:1017200010BD000000000140F800002010B5134873
:1017300086B04FF08041016042F2CF010024C0E941
:10174000011440F2E731C0E90314FFF787FA00B152
:10175000FEE74FF48050009069460848FFF7FBFA17
:1017600000B1FEE7049404A904480594FFF74EFA7B
:10177000002800D0FEE706B010BD000034010020B4
:1017800010B51B488AB01949016053210024C0E9F3
:1017900001144FF6FF71C0E90314FFF75FFA00B1BF
:1017A000FEE74FF48050049004A91148FFF7D3FAE4
:1017B00000B1FEE70E48FFF7DEFB00B1FEE708943C
:1017C00008A90B480994FFF721FA00B1FEE70120B0
:1017D000CDE9004002940022694605480394FFF7D2
:1017E0003BFB002800D0FEE70AB010BD000400401B
:1017F00070010020FEE770470907090E002806DA8D
:1018000000F00F0000F1E02080F8141D704700F197
:10181000E02080F8001470471B4B10B541F288316E
:10182000A3F12C0288421DDD002010703221DFED73
:10183000171A0C3253F8204001EE101A00EE104A2D
:10184000F0EE610AB8EEC11AB8EEC00A00F04CFD25
:10185000BDEEC00A10EE104A42F82040401C082895
:10186000E8DB10BDA0F2213140F27754A142F8D25A
:1018700011781029F5D2072900D9072143F8210052
:10188000491C117010BD00002C0000200080BB44DA
:1018900007480168074A116050688142A1EB0000C7
:1018A00002DC4FF6FF7318445160FFF7B5BF00002C
:1018B00034040040040000207047704710B5FEF764
:1018C00011FEBDE81040FFF76EB9000030B52548A5
:1018D00093B00024016841F080510160006800F07D
:1018E000805011902048016821F4404141F40041AA
:1018F00001600068022500F440401190012003902F
:1019000010200490009506950820CDE9074054204A
:10191000CDE9090504200B906846FEF795FF00B15C
:10192000FEE70F20CDE90C054FF48050CDE90E40C5
:1019300002210CA81094FEF797FE00B1FEE7FEF717
:101940002BFF4FF47A71B0FBF1F0FFF718F9042088
:10195000FFF708F900221146501EFEF753FE13B0A0
:1019600030BD00004038024000700040104801685F
:1019700041F4700101600F48016841F0010101600C
:101980000C4A00210832116002680B4B1A400260B9
:10199000031D0A4A1A60026822F480220260054888
:1019A0000C30016002495806803908607047000019
:1019B00088ED00E000380240FFFFF6FE1030002402
:1019C0000148FFF71ABB0000F80000200148FFF7AC
:1019D00014BB0000340100200148FFF70EBB0000DB
:1019E00070010020F0B502681B4B1C4C9F031C4D7E
:1019F0001C4E984207D0B84205D0A04203D0A8425E
:101A000001D0B04204D122F0700C4A6842EA0C02C4
:101A1000984210D0B8420ED0A0420CD0A8420AD0B2
:101A2000B04208D0104CA04205D0104CA04202D0C9
:101A30000F4CA04203D122F44074CA6822430260D2
:101A40008A68C2620A688262984201D109690163A8
:101A500001214161F0BD0000000001400004004090
:101A600000080040000C00400040014000440140DC
:101A70000048014010B50123046A8B409C43046276
:101A8000036A8A401343036210BD10B5846842EABA
:101A9000032224F47F440A432243826010BD8268FB
:101AA00022F070020A4342F0070181607047000093
:101AB00030B5026A22F001020262026A4368846958
:101AC00024F073050C682C4322F002058A682A432F
:101AD0000A4DA8420BD122F00805CA6823F44073CE
:101AE0002A434D6922F004021D438B692B43436056
:101AF000846149684163026230BD0000000001401A
:101B000030B5026A22F010020262026A43688469F8
:101B10000D6824F4E64444EA05248D6822F020028E
:101B200042EA05120B4DA8420ED1CD6822F0800288
:101B300042EA05124D6923F4406343EA85038D6947
:101B400022F0400243EA850343608461496881636F
:101B5000026230BD0000014030B5026A22F480729A
:101B60000262036A4268C46923F4007324F07305B7
:101B70000C682C438D6843EA05230C4DA8420ED116
:101B8000CD6823F4006343EA05234D6922F44052F3
:101B900042EA05128D6923F4806342EA051242602D
:101BA000C4614968C163036230BD000000000140A8
:101BB00030B5026A22F480520262046A4268C36944
:101BC0000D6823F4E64343EA05238D6824F40054AA
:101BD00044EA0534064DA84204D14D6922F48042FE
:101BE00042EA85124260C36149680164046230BD03
:101BF0000000014010B5036A046A24F00104046285
:101C0000846924F0F00444EA021423F00A020A432F
:101C10008461026210BD000070B5046A24F0010402
:101C200004628469056A134EB0420ED0B0F1804F51
:101C30000BD0114EB04208D0104EB04205D0104E1D
:101C4000B04202D00F4EB04203D124F0030414433B
:101C500003E024F0030242F001041A0724F0F00428
:101C600044EA126225F00A0301F00A011943826175
:101C7000016270BD00000140000400400008004007
:101C8000000C00400040014010B5036A23F010032F
:101C900003628369046A23F4704343EA023224F046
:101CA000A00343EA01118261016210BD30B5046AEC
:101CB00024F0100404628469056A24F4407444EA40
:101CC000022222F470444FF6FF7202EA03322243EA
:101CD000A02425F0A00304EA0111194382610162E6
:101CE00030BD10B5806B0021C185C184FFF725FB95
:101CF00010BD0168CA6822F49072CA6001684A691E
:101D000022F001024A61202180F83A10704710B594
:101D100090F83A10222901D0022010BD8168B1F557
:101D2000805F11D00169002901681FD0496801F066
:101D30007F03816A4A1C82620B70C18D491E0904AF
:101D4000090CC18518D026E00269816A002A026860
:101D5000526805D0D2B20A80816A491C8162ECE7E0
:101D6000C2F308020A80816A891CF7E74A68816A1F
:101D70004B1C83620A70E0E70168CA6822F4907223
:101D8000CA6001684A6922F001024A61202180F894
:101D90003A10FFF7F5FB002010BD00002DE9F041DF
:101DA00004460068016921F44052E1681143016171
:101DB0002168C86849F20C6290432369A268E5690A
:101DC0001A4363692B431A430243CA602168486976
:101DD00020F44072A06910434861E1696425B1F5BF
:101DE000004F9748974A21684FF032083FD0914200
:101DF00001D081427CD1FEF7E5FC00EBC00101EB94
:101E0000001061688900B0FBF1F6FEF7DBFC00EB27
:101E1000C00101EB001061688900B0FBF1F0B0FB7C
:101E2000F5F06FF01801484306EB800108EB011054
:101E3000B0FBF5F000F0F006FEF7C4FC00EBC001CB
:101E400001EB001061688900B0FBF1F0B0FBF5F028
:101E500006EB0016FEF7B6FC00EBC00101EB00102C
:101E600061688900B0FBF1F7FEF7ACFCD2E091426B
:101E700001D081423DD1FEF7A5FC00EBC00101EB92
:101E8000001061684900B0FBF1F0B0FBF5F006010D
:101E9000FEF798FC00EBC00101EB001061684900FF
:101EA000B0FBF1F7FEF78EFC00EBC00101EB001078
:101EB00061684900B0FBF1F0B0FBF5F06FF018017C
:101EC000484307EB800108EBC100B0FBF5F000F0E0
:101ED000F80006EB4006FEF775FC00EBC00101EBD5
:101EE000001061684900B0FBF1F7FEF76BFC3CE0C5
:101EF00055E0FEF757FC00EBC00101EB00106168F4
:101F00004900B0FBF1F0B0FBF5F00601FEF74AFC2A
:101F100000EBC00101EB001061684900B0FBF1F774
:101F2000FEF740FC00EBC00101EB001061684900C6
:101F3000B0FBF1F0B0FBF5F06FF01801484307EB90
:101F4000800108EBC100B0FBF5F000F0F80006EBF3
:101F50004006FEF727FC00EBC00101EB00106168B2
:101F60004900B0FBF1F7FEF71DFC00EBC00101EBEF
:101F7000001061684900B0FBF1F0B0FBF5F06FF0C4
:101F80001801484307EB800108EBC100B0FBF5F0F6
:101F900000F00700216830448860BDE8F081FEF75A
:101FA00001FC00EBC00101EB001061688900B0FB8F
:101FB000F1F6FEF7F7FB00EBC00101EB00106168E2
:101FC0008900B0FBF1F0B0FBF5F06FF01801484369
:101FD00006EB800108EB0110B0FBF5F000F0F00615
:101FE000FEF7E0FB00EBC00101EB00106168890027
:101FF000B0FBF1F0B0FBF5F006EB0016FEF7D2FBFC
:1020000000EBC00101EB001061688900B0FBF1F743
:10201000FEF7C8FB00EBC00101EB0010616889000E
:10202000B0FBF1F0B0FBF5F06FF01801484307EB9F
:10203000800108EB0110B0FBF5F000F00F00A9E7FC
:10204000001401400010014090F83910212901D0FE
:10205000022070478168B1F5805F016A0BD04A1C8D
:102060000262026809785160C18C491E0904090C9A
:10207000C1840ED017E009880268C1F308015160DD
:1020800001690029016A02D0491C0162ECE7891C40
:10209000FBE70168CA6822F08002CA600068C16874
:1020A00041F04001C160002070472DE9F0419846A1
:1020B00017460E460446069D1DE0681C1BD02DB138
:1020C000FEF70AFAA0EB0800A84214D92068C168FC
:1020D00021F4D071C1602068416921F001014161A2
:1020E000202084F8390084F83A00002084F8380071
:1020F0000320BDE8F0812068006836EA000004D0C3
:102100000020B842D9D00020F3E70120F9E7000011
:102110000148FFF713B90000AC0100200148FFF7A8
:102120000DB90000EC010020FEE702E008C8121F14
:1021300008C1002AFAD170477047002001E001C1B0
:10214000121F002AFBD1704770B514494A682AB1A2
:10215000012A07D00025022A09D01BE0AA2805D1B0
:10216000012002E0BB2801D10220486070BD0C4B69
:102170000C781855641CE0B208700828F6D10020CD
:10218000A3F114041E5C2654401C0828FADB521CE0
:102190004A600D70032AE9D14D6070BD4C000020EB
:1021A0008000002086B0FEF7A5F9FFF78FFB4748B7
:1021B0000024016841F001010160016801F00101A2
:1021C0000591016841F0020101600068404D00F096
:1021D00002000590224620212846FEF777F92020AC
:1021E00000900120CDE90104694628460394FEF7DA
:1021F000A5F8394837494FF4E1350160C0E9015489
:102200000C26C460C0E904468461C461FFF71EF96E
:1022100000B1FEE7FFF78AFAFFF722FAFFF7B0FAFC
:102220002D482E4940380160C0E90154C460C0E91E
:1022300004468461C461FFF709F900B1FEE700229A
:1022400011461C20FEF7DEF91C20FEF7CFF9002214
:1022500011462620FEF7D6F92620FEF7C7F9002200
:1022600011461D20FEF7CEF91D20FEF7BFF91A48D2
:10227000F438FEF764FD18487C38FEF753FD184823
:1022800096214163F0218163C163016412480021FA
:102290007C38FEF78CFE10480021F438FFF70EF86A
:1022A0000D480421F438FFF709F80B480821F438E9
:1022B000FFF704F808480C21F438FEF7FFFF064842
:1022C000012208494038FFF737F9FEE7303802406D
:1022D0000000024000440040EC01002000100140DA
:1022E0000000014054000020B4EEE00AF1EE10FAC4
:1022F00009DD30EE410AB4EEE00AF1EE10FA01D247
:10230000B0EE600A704730EE010AB4EEE00AF1EE7A
:1023100010FAF5DC70470000000000000000010228
:10232000030406070809000000000102030400007E
:1023300050230008000000206C0000002A21000843
:10234000BC2300086C000020C40500003A210008EE
:10235000000000000000000000000000DC0500009C
:10236000DC050000DC050000DC050000DC050000E9
:10237000DC050000DC050000DC050000DC050000D9
:10238000DC050000DC050000DC050000DC050000C9
:10239000DC050000DC050000DC050000000000009A
:1023A000000000000000000000000000010000002C
:0C23B00010000000000000000024F400F9
:040000050800019559
:00000001FF
