:020000040800F2
:10000000A808002001010008BF1E000853150008C1
:10001000BD1E00082F04000815260008000000007F
:10002000000000000000000000000000991F000810
:10003000E104000800000000E11E00084D22000855
:100040001B0100081B0100081B0100081B01000820
:100050001B0100081B0100081B0100081B01000810
:100060001B0100081B010008250600081B010008F1
:100070001B0100081B0100081B0100081B010008F0
:100080001B0100081B0100081B0100081B010008E0
:100090001B0100081B0100081B0100081B010008D0
:1000A0001B0100081B0100081B0100081B010008C0
:1000B0001B0100081B0100081B0100081B010008B0
:1000C0001B0100081B0100081B0100081B010008A0
:1000D0001B010008092600081B0100081B0100087D
:1000E0001B0100081B0100081B010008DFF80CD0F1
:1000F00000F060F9004800479D280008A80800208B
:100100000648804706480047FEE7FEE7FEE7FEE7B1
:10011000FEE7FEE7FEE7FEE7FEE7FEE7C522000892
:10012000ED000008F0B480EA0102D40F4200B2EB07
:10013000410F02D20246084611464A0042D0C30D82
:10014000DDB2C1F3C752AD1A202D35DAC1F3160165
:1001500041F4000204B15242C5F1200602FA06F150
:100160002A411044B3EBD05F23D0C4B1012DA0EBE2
:10017000C35009DCF0BC4FF0004202EAC352DBB2CC
:1001800000F5000000F0E7B8400000F1807000EBDF
:10019000C350A0F1807040EAD170490009E04908DD
:1001A00041EAC071A0EBC35000F50000400800EB2D
:1001B000C350F0BC00F0C6B86142012202EB41011D
:1001C000001BF6E7F0BC704781F00041AAE780F021
:1001D0000040A7E780EA010210B502F000434000AA
:1001E00022D04A001FD0010E01EB1261C0F356006D
:1001F000C2F3560240F4000042F40002A0FB0220C9
:1002000000047F39140400D0401C50EA124001D48D
:100210004000491EC2B20C0604EBD010401C40083E
:10022000802A02D003E0002010BD20F00100002948
:1002300000DA0020184310BD30B480EA010202F059
:10024000004530F0004221F0004013D090B1C30DC2
:10025000D40DC2F31601C0F31600E41A41F40001F4
:1002600040F400027D34914201D3641C00E0490057
:10027000002C02DA30BC002070474FF4000000234D
:10028000914201D3891A034340084FEA4101F7D153
:1002900051B1914202D14FF0004105E002D24FF03E
:1002A000010101E06FF0010103EBC450284430BCB0
:1002B00000F048B8420005D0C0F3C7525242914204
:1002C00001DC0020704700EBC1507047C10F80EA8D
:1002D000E0700844CA079623002100F03CB896233A
:1002E0000022114600F037B800F0004220F0004034
:1002F000C10DC0F3160040F400007F2901DA002090
:100300007047962903DCC1F19601C84001E0963997
:100310008840002AF4D0404270470000002801DBEA
:10032000C0F10040002901DBC1F10041814270476A
:10033000002801DBC0F10040002901DBC1F10041D0
:10034000884270470029A8BF7047401C490008BF79
:1003500020F00100704710B4B0FA80FC00FA0CF0F5
:1003600050EA010404BF10BC704749B1CCF120042D
:1003700021FA04F411FA0CF118BF012121430843BA
:10038000A3EB0C01CB1D4FEA00614FEA102042BFE6
:10039000002010BC704700EBC35010440029A4BFDC
:1003A00010BC7047401C490008BF20F0010010BC81
:1003B00070470000064C074D06E0E06840F001037E
:1003C00094E8070098471034AC42F6D3FFF792FE4A
:1003D000F82E0008182F000870B58C1810F8015B73
:1003E00015F0070301D110F8013B2A1106D110F8CE
:1003F000012B03E010F8016B01F8016B5B1EF9D1D2
:100400002B0705D40023521E0DD401F8013BFAE757
:1004100010F8013BCB1A921C03E013F8015B01F8C2
:10042000015B521EF9D5A142D8D3002070BDFEE772
:100430000248002101604160816070475C02002039
:10044000F8B5234CAA20234D2070BB20224F6070AA
:1004500055F8DC0F3946FFF7BDFEFFF745FFADF855
:1004600000009DF80100A0709DF80000E070394682
:100470006868FFF7AFFEFFF737FF0646ADF80000EC
:100480009DF8010020719DF8000060713946A86850
:10049000FFF7A0FEFFF728FF0146ADF800009DF82A
:1004A0000100A0719DF80000E0717018ADF8000027
:1004B0009DF8010020729DF80000607201B0214695
:1004C000BDE8F0400A224FF6FF73044800F0E3BF96
:1004D0009C0300203C0000200000C842680400206B
:1004E0007047000008B580216B2002F0C3F90A2094
:1004F00000F0FEF801216B2002F0BCF90A2000F0A8
:10050000F7F86A460121752002F060F99DF80000B5
:10051000122857D10321682002F0ACF90A2000F01C
:10052000E7F801216A2002F0A5F90A2000F0E0F8BE
:100530004021702002F09EF90A2000F0D9F8002135
:100540006C2002F097F90A2000F0D2F8002119205F
:1005500002F090F90A2000F0CBF804211A2002F0F2
:1005600089F90A2000F0C4F818211B2002F082F952
:100570000A2000F0BDF818211C2002F07BF90A20A7
:1005800000F0B6F804211D2002F074F90A2000F0F2
:10059000AFF800211E2002F06DF90A2000F0A8F843
:1005A0000021232002F066F90A2000F0A1F802F0F1
:1005B0002BF9064A0121752002F008F9034800785A
:1005C000122801D0002008BD012008BDB001002084
:1005D00010B5044A0E213B2002F0F8F8BDE81040A7
:1005E00000F0B8BF0004002070B50D460646002498
:1005F00005E0FF2000F006F83055641CA4B2AC42C0
:10060000F7D370BD01B582B00A200090012301AA82
:1006100002A9034800F032FD9DF804000EBD000061
:1006200010040020102000F07BB800004FF0E02004
:10063000416982694069891A4FF47A725143B1FB6A
:10064000F0F004498A684FF47A71A2FB0112401855
:10065000704700004001002010B590F821100024E0
:10066000022903D00421816301243DE001680A6866
:1006700022F00E020A6001680A6822F001020A6094
:100680001A4A0168914201D1012121E0174A14322E
:10069000914201D110211BE0144A2832914201D12C
:1006A000891515E0114A3C32914201D189140FE0BD
:1006B0000E4A5032914202D14FF4803108E00B4A89
:1006C0006432914202D14FF4801101E04FF0807109
:1006D000064A083A5160012180F82110002180F873
:1006E0002010416B01B18847204610BD0800024030
:1006F00070B5044600F004F90546601C02D00448B9
:100700000078044400F0FCF8401BA042FAD370BD0E
:10071000B4010020102801D101F05CBA704700003C
:10072000044910B50A68024202D00860FFF7F2FFE0
:1007300010BD0000140401402DE9F84FDFF890A12E
:1007400000220AF1040B144601274FF00F090BF1A8
:10075000040E00BF0B6807FA04F52B40AB4274D1BE
:10076000DFF870C14E68A6EB0C0866452BD00DDC97
:10077000032E34D005DC36B3012E19D0022E2FD132
:100780001BE0112E16D0122E2AD119E0B8F5881FC1
:1007900019D006DCB8F5803F15D0B8F5801F1FD101
:1007A00011E0B8F5001F0ED0B8F5041F18D10AE00B
:1007B000CA6815E0CA68121D12E0CA6808320FE064
:1007C000CA680C320CE08A682AB1012A4FF008028C
:1007D00003D0456104E0042202E0056100E000224C
:1007E000FF2B01D8064601E000F104064FEA84051C
:1007F00001D9A5F12005D6F800C009FA05F82CEAC0
:10080000080C02FA05F54CEA050CC6F800C04D6864
:10081000ED0057D5304DAE6946F00106AE61AD69C9
:1008200024F0030605F0010500952C4D06EB050CA0
:10083000DCF80850A6074FEA167809FA08F6B5431F
:10084000274EB04202D1002610E03BE0254EB042D8
:1008500001D101260AE0244EB04201D1022605E072
:10086000224EB04201D1032600E0042606FA08F623
:100870002E43CCF808604D68DAF80060ED03554669
:1008800001D51E4300E09E432E604D68DBF80060FA
:10089000AD035D4601D51E4300E09E432E604D68CA
:1008A000DEF80060ED02754601D51E4300E09E4370
:1008B0002E604D68AD020E4D2E6801D51E4300E03E
:1008C0009E432E60641C102CFFF444AFBDE8F88FEB
:1008D000000401400000111000100240000001401F
:1008E00000080140000C01400010014000140140CC
:1008F0000C0401400AB1016170470904FBE70000E4
:100900000148806870470000B401002002488168F7
:100910000278114481607047B4010020074810B587
:10092000016841F010010160032000F09DF80020F3
:1009300000F006F800F024F8002010BD002002406E
:1009400070B50D4D04464FF47A712878B1FBF0F084
:100950000A490968B1FBF0F000F094FC48B9102C8A
:1009600007D200222146501E00F05EF800206C6085
:1009700070BD012070BD0000B4010020C001002046
:10098000214808B5816941F001018161816901F067
:1009900001010091C16941F08051C161C06900F05D
:1009A00080500090032000F05FF8002211466FF0A5
:1009B0000B0000F039F8002211466FF00A0000F039
:1009C00033F8002211466FF0090000F02DF80022E4
:1009D0001146501F00F028F800221146101F00F0A9
:1009E00023F800221146901E00F01EF80022114646
:1009F000501E00F019F80548416821F0E06141F00F
:100A00000071416008BD000000100240000001407C
:100A100000F01F02012191404009800000F1E02018
:100A2000C0F8001170470000F0B40E4B1B680C4674
:100A3000C3F30223C3F10705042D00D90425191DB2
:100A4000072901D2002300E0DB1E012606FA05F18A
:100A5000491E214099409E40761E16403143F0BC0D
:100A600001F02EBA0CED00E0064900F0070208681C
:100A70004FF6FF03184040EA0220034A1043086083
:100A8000704700000CED00E00000FA052DE9F0478A
:100A9000DFF83C8105460E46D8F8000000F007005C
:100AA000B0420CD2D8F8001021F007013143C8F849
:100AB0000010D8F8000000F00700B04263D1287899
:100AC000444C800705D56068A96820F0F000084311
:100AD00060602878C00745D06868012816D0216872
:100AE000022816D0890700294DDA616821F0030138
:100AF00001436160FFF704FF6968074641F28830EF
:100B000001290FD00229814619D027E021688903E5
:100B1000E9E78901E7E700BFFFF7F2FEC11B49459E
:100B200001D918E081466068C0F381000128F3D143
:100B300018E000BFFFF7E4FEC11B49450BD8606811
:100B4000C0F381000228F5D10CE000BFFFF7D8FE0A
:100B5000C11B494502D90320BDE8F087606810F049
:100B60000C0FF3D1D8F80010404601F00701B14254
:100B70000BD9016821F0070131430160006800F0E2
:100B80000700B04201D00120E6E72878400705D5EC
:100B90006068E96820F4E060084360602878000736
:100BA00006D56068296920F4605040EAC1006060A1
:100BB00000F03CF86168084AC1F30311515CC84079
:100BC000064908600020FFF7BBFE0020C4E70000D4
:100BD0000020024000100240E02E0008C00100206A
:100BE0000148006870470000C00100200448054922
:100BF00000684968044AC1F30221515CC84070474B
:100C0000C001002000100240F02E000804480549F1
:100C100000684968044AC1F3C221515CC84070476A
:100C2000C001002000100240F02E000812A185B083
:100C30000FC98DE80F0014A0144A00680490516891
:100C4000134801F00C03042B10D0082B0ED1C1F374
:100C50008343C9031DF803000AD5516804AAC1F3F0
:100C60004041515C0A4A5043B0FBF1F005B0704777
:100C700008494843FAE7000002030405060708098B
:100C80000A0B0C0D0E0F10100102000000100240A4
:100C900000127A0000093D002DE9F84F0446007863
:100CA000B94DC00748D06868C0F38100012807D05B
:100CB0006868C0F38100022809D16868C00306D5BE
:100CC0002868800338D5606800286FD034E06068F9
:100CD000B0F5803F0BD010B1B0F5A02F11D028682F
:100CE00020F480302860286820F4802002E0286802
:100CF00040F480302860606888B1FFF701FE064646
:100D000009E0286840F480202860F0E7FFF7F8FD4C
:100D1000801B642875D828688003F7D50CE0FFF79E
:100D2000EFFD064605E000BFFFF7EAFD801B6428E3
:100D3000F0D828688003F7D42078944E80074FF0CD
:100D400001094FF000083BD5686810F00C0F07D080
:100D50006868C0F38100022809D16868C00306D41E
:100D60002868800714D5206901281FD110E0206968
:100D7000B0B1C6F80090FFF7C3FD074605E000BF1D
:100D8000FFF7BEFDC01B0228C4D828688007F7D52E
:100D90002868616920F0F80040EAC10028600FE08F
:100DA000C6F80080FFF7ACFD074606E0E9E000BFAB
:100DB000FFF7A6FDC01B022823D828688007F7D4B8
:100DC000207800072CD57248A169D9B1C0F80090ED
:100DD000FFF796FD074604E0FFF792FDC01B0228CF
:100DE0000FD8686A8007F7D56A484FF4FA5100684F
:100DF000B0FBF1F0009000BF0098411E0091FAD2C4
:100E00000EE080E0C0F80080FFF77AFD074604E0BE
:100E1000FFF776FDC01B022875D8686A8007F7D4F3
:100E20002078400760D5E8690027C00008D4E86949
:100E300040F08050E861E869012700F080500090A0
:100E400055480168C90513D40168834641F480718F
:100E50000160FFF755FD824606E000BFFFF750FD39
:100E6000A0EB0A0064284ED8DBF80000C005F5D5D9
:100E7000E06801280AD008B1052813D0286A20F0BC
:100E800001002862286A20F0040002E0286A40F08D
:100E900001002862E06841F2883B98B1FFF730FD1D
:100EA00082460BE0286A40F004002862EEE700BFAB
:100EB000FFF726FDA0EB0A0159455AD8286A80079A
:100EC000F6D50CE0FFF71CFD824605E0FFF718FDA4
:100ED000A0EB0A0159454CD8286A8007F6D41FB107
:100EE000E86920F08050E861E06988B36968C1F37F
:100EF0008101022945D00228C6F8608004D0FFF79E
:100F0000FFFC044638E034E0FFF7FAFC074604E053
:100F1000FFF7F6FCC01B02282BD828688001F7D405
:100F2000206AB0F5803F05D16868A16820F40030E0
:100F300008436860D4E908010843696821F4741122
:100F400008436860C6F86090FFF7DAFC044606E0E4
:100F500015E000BFFFF7D4FC001B022809D8286861
:100F60008001F7D50BE000BFFFF7CAFC001B022889
:100F700002D90320BDE8F88F28688001F4D400204E
:100F8000F8E70120F6E700000010024000004242AE
:100F900080044242C00100200070004070B504008F
:100FA00005D00025A56294F8510010B104E001209D
:100FB00070BD204600F034F8022084F8510020680B
:100FC000016821F040010160D4E901010843D4E93E
:100FD00003121143084361690843218B01F4007136
:100FE0000843E1690843216A0843A16A084321686C
:100FF0000860A069042101EA1040616A0843216881
:1010000048602168E06A08612068C16921F40061D4
:10101000C1616565012084F85100002070BD0000A9
:1010200010B50068124986B088421ED11148C169C6
:1010300041F48041C161C0690F4C00F480400490CC
:101040004FF4204000900220019003200390694655
:101050002046FFF771FB00214FF48040CDE90001ED
:10106000029169462046FFF767FB06B010BD0000FD
:101070000038004000100240000C01402DE9F84FFC
:10108000044690F8500000260A9F9A4693460D4663
:101090004FF0010801280ED0012084F85000FFF71E
:1010A0002FFC814694F85100616801280CD0B1F5FD
:1010B000827F07D102E00220BDE8F88FA16809B95C
:1010C000042801D00226BDE055B1BBF1000F07D0C6
:1010D000BAF1000F04D094F85100012802D004E0C6
:1010E0000126AFE0052084F8510000206065C4F8B7
:1010F00038B0A4F83EA0A4F83CA02563A4F836A01C
:10110000A4F834A02064606420680168490603D410
:10111000016841F040010160E068B0F5006F60686F
:1011200004D0E8B3E08E01283BD06AE010B1E08E35
:1011300001282ED1216835F8020BC860E08E401ED0
:10114000E08626E0B8F1000F0DD0E08E58B120689F
:101150008168890707D535F8021BC160E08E401E03
:10116000E0864FF00008E08F58B120688168C90719
:1011700007D0C0682BF8020BE08F401EE0874FF0CD
:101180000108781C05D0FFF7BBFBA0EB0900B842B3
:1011900046D2E08E0028D5D1E08F0028D2D136E0AB
:1011A000FFE7216815F8010B0873E08E401EE0860A
:1011B00027E000BFB8F1000F0DD0E08E58B12068D5
:1011C0008168890707D515F8011B0173E08E401E61
:1011D000E0864FF00008E08F58B120688168C907A9
:1011E00007D0C0680BF8010BE08F401EE0874FF07E
:1011F0000108781C05D0FFF783FBA0EB0900B8427B
:101200000ED2E08E0028D5D1E08F0028D2D13B4607
:10121000012202212046CDF8009000F072FE08B1B4
:1012200003260FE04A463946204600F05AFE18B120
:1012300001262020606505E0A06818B92068C16813
:1012400080680090012084F85100002084F850004C
:10125000304631E74FF0E0210428086903D020F040
:1012600004000861704740F00400FAE70448D0E940
:101270000212491C42F10002C0E90212704700004C
:101280004001002010B5401EB0F1807F01D3012045
:1012900010BD4FF0E02460610F21601700F010FED8
:1012A0000020A06107202061002010BD10B5FFF7CD
:1012B000DDFF10BD7047000070B50268044610687D
:1012C000D168536910F00F0F50D003F0010501F4FD
:1012D000907635435DD0C20705D0CA0503D5E26BD1
:1012E00042F00102E263420705D5DA0703D0E26B60
:1012F00042F00202E263820705D5DA0703D0E26B0F
:1013000042F00402E263020705D5DA0703D0E26B7C
:1013100042F00802E263E26B002A33D0800604D573
:10132000880602D5204601F007F820684069E16B85
:10133000C0F38010090700D428B3204600F0EEFF68
:101340002068416949061AD5416921F0400141618F
:10135000606BA0B11B494163606BFFF77DF900280A
:1013600010D0606B416BBDE870400847830610D514
:101370008B060ED52046BDE8704000F0DDBF20464C
:10138000FFF798FF70BD2046FFF794FF0020E06351
:1013900070BD030606D50B0604D52046BDE8704097
:1013A00001F0CEB84006F3D54806F1D5D168204605
:1013B00021F04001D160202184F8391000F0C8F8F4
:1013C00070BD00000D23000870B5040004D094F82F
:1013D0003900002510B106E0012070BD84F83850B6
:1013E000204600F023F8242084F839002068C168E2
:1013F00021F40051C160204600F0EAFF2068016935
:1014000021F4904101612068416921F02A01416184
:101410002068C16841F40051C160E563202084F870
:10142000390084F83A00002070BD000010B5006853
:10143000154986B0884225D11448816941F480411C
:1014400081618069124C00F4804004904FF4007078
:101450000090022001900320039069462046FFF788
:101460006BF900212015CDE9000102916946204663
:10147000FFF762F9002211462520FFF7D5FA252053
:10148000FFF7C6FA06B010BD003801400010024058
:101490000008014070472DE9F843044690F83900F0
:1014A0001F4616460D46202850D1A5B19EB194F88E
:1014B000380001284AD0012084F838004FF0000895
:1014C000C4F83C80212084F83900FFF719FAA6847B
:1014D0008146E68426E00120BDE8F883E08C401ECA
:1014E000E084A0684B46B0F5805F4FF000024FF0FB
:1014F00080012046009703D001F053F8E8B90DE0D1
:1015000001F04FF8C8B928882168C0F30800486086
:10151000206908B16D1C05E0AD1C03E0216815F8D9
:10152000010B4860E08C0028D8D14B4600224021B6
:101530002046009701F035F808B10320CCE72020C1
:1015400084F8390084F838800020C5E70220C3E71A
:101550007047FEE72DE9F0471448154C018891FAD1
:1015600091FA418891FA91F9818891FA91F801896B
:101570004FBA41894EBA8189C0884DBA40BA00B28B
:10158000A4F84800FEF7A2FE0A49FEF755FE0A49F4
:10159000FEF7C8FDE064A4F804A0A4F80690A4F83F
:1015A00008806781A681E581BDE8F08700040020FE
:1015B000980200206666A3430000C8410B4908B5A5
:1015C000094A0A600A4A4A600A4A8A60FEF787FEA8
:1015D0000949FEF7FFFD0949094B009103F1240277
:1015E000024900F00FF808BDCDCC4C3E240100208C
:1015F0000AD7233CCDCCCC3D6F12833A3C0000206F
:10160000B00200202DE9FF4F8FB088461C9C994600
:10161000D4E900BA51465846FEF7DCFDFE4DE860BD
:10162000A76858463946FEF7D5FD51462861084659
:10163000FEF7D0FD6861E66850463146FEF7CAFD08
:101640003946A8610846FEF7C5FDE86131463846CF
:10165000FEF7C0FD314628620846FEF7BBFD686212
:1016600039465046FEF7B6FDA86231465846FEF7A9
:10167000B1FDE86298F81400DFF8A0A34FF0000570
:1016800078B300274FEA070606EB46010AEB810014
:1016900050F8251004EB8600C06FFEF79BFD8346D3
:1016A0003846FEF713FE5946FEF73CFDFEF71CFEDA
:1016B000761CF6B20746032EE6D3FEF707FE04EBD0
:1016C0008507064647F8880F59F82500FEF7FEFD06
:1016D0003146FEF779FD6D1CEDB2F860032DD0D3D5
:1016E0000CE0FFE759F82500FEF7F0FD04EB85015B
:1016F0006D1CEDB2C1F89400032DF3D3D4F89C0017
:1017000094340146FEF766FD064660680146FEF722
:1017100061FD054654F894090146FEF75BFD294634
:10172000FEF700FD3146FEF7FDFC01F089F90646A3
:1017300010F0FF4004D031464FF07E50FEF77CFDA4
:10174000834600250DF11C0704EB85003146D0F8D7
:101750009400FEF73FFD47F825006D1CEDB2032D08
:10176000F2D3AD4E0121706AFEF7A4FD05460C9040
:101770000121F069FEF79EFD29460290FEF7D2FC9A
:101780004FF07E573946FEF722FD2061CAF800006F
:1017900055460121F06AFEF78DFD0E900190012162
:1017A000B06AFEF787FD0D900199FEF70DFD6061AF
:1017B000686001213069FEF77DFD0B9000900121EA
:1017C000B069FEF777FD03900099FEF7ABFCA061CE
:1017D000A860DDE90D01FEF7A5FCE061E8600C986A
:1017E000019001217069FEF765FD0C900199FEF7EB
:1017F00099FC3946FEF7EBFC206228610121F06874
:10180000FEF758FD0E9001900121306AFEF752FD5F
:1018100006460199FEF7D8FC606268610B9903984F
:10182000FEF7D2FCA062A86130460E99FEF77AFC62
:10183000E062E86102990C98FEF774FC3946FEF705
:10184000C6FC20632862E8680146FEF7C3FC064632
:1018500028680146FEF7BEFC3146FEF763FC01F046
:10186000EFF8064631462868FEF7B4FC606331465F
:10187000E868FEF7AFFC0025C4F8380004EB8507E4
:101880006749B86AFEF7A6FC064659F82500FEF738
:101890001DFD3146FEF798FCFEF726FDFEF716FD0E
:1018A0006D1CEDB23864032DE8D300265B48002799
:1018B00006EB46013D4600EB810900BF04EB8500C5
:1018C00059F82510006CFEF785FC82463846FEF775
:1018D000FDFC5146FEF726FCFEF706FD6D1CEDB241
:1018E0000746032DEAD3FEF7F1FC04EB8601761CD4
:1018F000F6B2C864032ED9D3474904F158026C31BB
:1019000004F14C0001F0C8F8E76A09993846FEF77F
:1019100061FC266B054631460898FEF75BFC2946BC
:10192000FEF752FC3D4D3146243528600798FEF7FE
:1019300051FCA66A814609993046FEF74BFC4946A0
:10194000FEF742FC686031460898FEF743FC064605
:1019500038460799FEF73EFC3146FEF735FCDFF8C6
:10196000B8A0A8600026DAF8081001912D49DAF82D
:1019700004000BEB010905F10C07AB46CDF82C0078
:10198000B9F50E1F06D90021CBF80810CBF80410CA
:10199000CBF800105BF8265023498D4203D223492F
:1019A0008D4200DC29460F98FEF714FC0199FEF7E2
:1019B00011FC57F82610FEF7B5FB47F82600014644
:1019C0002846FEF7AFFB0B99FEF704FC119951F87E
:1019D0002610FEF7A7FB0F99FEF7FCFB4FF0FF3137
:1019E000FEF768FC04A941F82600761CF6B2032E27
:1019F000C6D3E06806990090FEF7ECFBD4F8089097
:101A0000064605994846FEF7E5FB656807460499D2
:101A10002846FEF7DFFB0BE0040000200402002054
:101A20000040754400009FBBCDCCCCBDCDCCCC3D9F
:101A30002168FEF7CCFB3946FEF7C6FB3146FEF7C0
:101A4000C3FB2060074605990098FEF7C3FB0A9088
:101A500048460699FEF7BEFB064638460499FEF74F
:101A6000B9FB2946FEF75EFB3146FEF75BFB0A99A0
:101A7000FEF7AAFB6060064604990098FEF7AAFBF1
:101A80000B9030460699FEF7A5FB054638460599AA
:101A9000FEF7A0FB2946FEF797FB4946FEF742FBFF
:101AA0000B99FEF73FFBA06005460499FEF792FBF9
:101AB0000A9030460599FEF78DFB81463846069917
:101AC000FEF788FB4946FEF72DFB0A99FEF77CFBE3
:101AD0000099FEF727FB0146E060FEF77BFB2946F5
:101AE00000900846FEF776FB814631460846FEF731
:101AF00071FB054639460846FEF76CFB2946FEF7A2
:101B000011FB4946FEF70EFB0099FEF70BFB00F0B8
:101B100097FF054629462068FEF75CFB20602946B2
:101B20006068FEF757FB60602946A068FEF752FB2D
:101B3000A0602946E068FEF74DFBE06098F81200CF
:101B4000E0B198F81000F8B1544620480025C4E9E7
:101B50000105DBF804104FF40006B14201DA81F010
:101B60000041DBF80000B04201DA80F00040FEF7EF
:101B7000D9FA2063B04210DA002013E00020CAF83E
:101B8000040013B0BDE8F08FD8F80010CAF80410B4
:101B9000D8F80410CAF80810F3E74FF07E518842D5
:101BA00000DD08460A492063884202DA98F81100ED
:101BB00008B12580E5E72088801C80B22080B0F540
:101BC000C87FDED9258088F81050DAE70000204170
:101BD000CDCC4C3D02480178491C01707047000093
:101BE00040010020704700F025BD704710B5FEF79A
:101BF00027FC07494868421C4A60192807DB05484A
:101C0000D0F8B421D243C0F8B4210020486010BD00
:101C10004001002000002242704700002DE9F05FE3
:101C2000434802464178177819B917B98278002AD3
:101C30007CD0404D2A78521CD2B22A700A2A75D321
:101C4000DFF8ECA04FF00009DFF8ECB085F8009069
:101C50008046AAF1580A51B3A8885146401C82B266
:101C6000AA80002001EB800308EB4004DE68B4F991
:101C70000A40401C3444C0B2DC600328F2D3322A4C
:101C800015D300240AEB8406F068FEF71FFB2B49EE
:101C9000FEF7D2FA0BEB8401641C0861E4B2C6F8CB
:101CA0000C90032CEED3A5F8049088F801904646DA
:101CB000012F3BD169881E48491C89B26980683070
:101CC000DAF80020036854461A44CAF80020DAF80B
:101CD00004204368A8461A44CAF80420DAF8082009
:101CE000806832291044A0F50060CAF80800B6F9EF
:101CF0004820DAF818001044A06117D34F46002599
:101D0000D9464FF0320A00BF54F8251091FBFAF083
:101D1000FEF7DCFA09EB8501486044F825706D1C7C
:101D2000EDB2032DF0D3A8F802703770BDE8F09F34
:101D3000980200208C010020C401002000004842CD
:101D40002DE9F0432C4885B0816941F01001816193
:101D5000816901F010010491816941F020018161E4
:101D6000816901F020010491816941F008018161DC
:101D7000816901F008010491816941F004018161E8
:101D80008069DFF8788000F004004FF4005404907C
:101D9000002221464046FEF7ADFDDFF86490671152
:101DA000002239464846FEF7A5FD0125CDE900454C
:101DB00000240226CDE9024669464046FEF7BCFCF7
:101DC00000970396CDE9015469464846FEF7B4FCF6
:101DD000102000900B48CDE9010469460A48FEF73F
:101DE000ABFC002211460A20FEF71EFE0A20FEF779
:101DF0000FFE05B0BDE8F083001002400010014066
:101E00000008014000001110000C01400E4810B500
:101E10000C4901604FF48271416000218160C16012
:101E20004FF400720161C0E905120822C0E90721E0
:101E3000416281620A21C162FFF7B0F8002800D038
:101E4000FEE710BD003800401004002070B51848AF
:101E50000024017899B1491E017000F0F5F90120C4
:101E600000F0A8F80120FFF7A9FB1248417819B942
:101E7000017809B9807810B10F49012008740C4D20
:101E800015F11005FEF7D2FB04EB440305EB8302CA
:101E900091685668411AB14204D3906055F82320E6
:101EA00008469047641CE4B2052CEBD3002070BDBB
:101EB000400100209802002024010020FEE7704726
:101EC0000907090E002806DA00F00F0000F1E020F3
:101ED00080F8141D704700F1E02080F8001470476E
:101EE000704738B50B46009204460022802100F06E
:101EF00008F8002804D0606D40F0200060650320E1
:101F000038BD2DE9F0411D4617460E460446DDF862
:101F1000188035E0681C33D02DB1FEF7F1FCA0EB42
:101F20000800A8422CD32068416821F0E0014160FC
:101F30006068B0F5827F0BD1A068B0F5004F02D089
:101F4000B0F5806F04D12068016821F04001016084
:101F5000A06AB0F5005F0AD1206801684DF6FF72F3
:101F6000114001602068016841F4005101600120C6
:101F700084F85100002084F850000320BDE8F0816F
:101F80002068806836EA000004D00020B842C1D141
:101F90000020F3E70120F9E77047000000B5FEF7E5
:101FA00047FA0348012181700221417000BD000001
:101FB000980200202DE9F84F04004FF00000009037
:101FC00006D04FF47A70B0FBF4F0FEF788F9009079
:101FD000204600F08BFCFFF721FE954E954D002426
:101FE0009448503800EB4400B0F9041045F8241030
:101FF000B0F90A00FEF76AF906EB84010969FEF7F9
:10200000E3F8FEF771F905EB8401641CE4B2C860E3
:10201000032CE5D3874C002014F1180455F8201048
:1020200044F82010401CC0B20628F7D3814D206927
:102030003035E860E0684042286160696861606846
:10204000FEF744F9B168FEF7BFF8FEF74DF92860D6
:102050002068FEF73BF97168FEF7B9F8FEF744F91E
:102060006860A068FEF732F9F168FEF7ADF8FEF798
:102070003BF9A86000F08CFC00246FF0010905F129
:10208000240B05F1540A6B4D303505EB8400C06814
:10209000FEF71CF90BEB84015E46486255F82400FC
:1020A000FEF714F90AEB84020325B346C2F82400B4
:1020B00005EB45080BEB880000EB840750F8240083
:1020C00057F80C6D3146FEF77FF84946FEF7F2F8F7
:1020D0003146FEF727F838600AEB880000EB8407EA
:1020E00050F8240057F80C6D3146FEF76DF849465C
:1020F000FEF7E0F83146FEF715F86D1E386015F072
:10210000FF05D5D1641CE4B2032CBCD3DFF82481D5
:10211000DFF8249100245D46A8F18C0808EB8406C2
:102120004946F768B76155F82400FEF753F8394679
:10213000F060FEF749F80099FEF74CF8641CE4B231
:102140007062032CEAD34446D8F80880D4F828B04B
:1021500041465846FEF73EF8D4F80490E66A074632
:1021600049463046FEF736F83946FEF72DF820632B
:10217000276830463946FEF72DF80090666A4146DA
:102180003046FEF727F80099FEF71EF860634946CF
:102190003046FEF71FF8064639465846FEF71AF84D
:1021A0003146FEF711F8A046A063224C0026A9464E
:1021B000224F5546503C00BF04EB860159F82600DB
:1021C000486208EB86003946006BFEF735F855F893
:1021D0002610FDF7FCFFFEF787F804EB4601761C9E
:1021E000F6B20882032EE7D3DFF85480DFF854906C
:1021F000002500BF04EB85064146706AFDF7EAFF43
:1022000049463063FDF7E6FFF06304EB4500B0F9A3
:102210001000FEF75BF83946FDF7DCFFFEF764F8C7
:102220006D1CEDB2B061032DE4D3BDE8F88F000062
:10223000C4010020E802002078978B3A7D3FF53EEC
:10224000E2007A3D4DF38E3CFEF7C2B910B5FEF7C1
:102250005DFBBDE81040FFF729B830B58FB0012114
:102260000804CDE900100024029402250491CDE970
:1022700007504FF4E01009906846FEF70DFD00B1DD
:10228000FEE70F20CDE90A054FF48060CDE90C4050
:1022900002210AA80E94FEF7F9FB00B1FEE7FEF753
:1022A0009FFC4FF47A71B0FBF1F0FEF7EBFF0420D6
:1022B000FEF7D0FF00221146501EFEF7B5FB0FB00F
:1022C00030BD00000D48016841F001010160416826
:1022D0000B4A1140416001680A4A114001600168DF
:1022E00021F480210160416821F4FE0141604FF436
:1022F0001F0181600449C00308607047001002405C
:102300000000FFF8FFFFF6FE08ED00E010B5406AA0
:102310000021C185C184FEF7CDFF10BD0168CA68E8
:1023200022F49072CA6001684A6922F001024A618F
:10233000202180F83A10704710B590F83A10222901
:1023400001D0022010BD8168B1F5805F11D0016914
:10235000002901681FD0496801F07F03816A4A1C87
:1023600082620B70C18D491E0904090CC18518D009
:102370002BE00269816A002A0268526805D0D2B255
:102380000A80816A491C8162ECE7C2F308020A8074
:10239000816A891CF7E74A68816A4B1C83620A706C
:1023A000E0E70168CA6822F02002CA600168CA68D2
:1023B00022F48072CA6001684A6922F001024A610F
:1023C000202180F83A10FFF765F8002010BD0000CA
:1023D0002DE9F041044600680169E26821F44051AA
:1023E000114301612169A0680843616908432168BC
:1023F000CA6841F20C639A430243CA60206841698B
:10240000A26921F44071114341614C49206864255F
:10241000322688423CD1FEF7F9FB00EBC00101EB0C
:10242000001061688900B0FBF1F7FEF7EFFB00EBED
:10243000C00101EB00106168B0468900B0FBF1F00B
:10244000B0FBF5F06FF01801484307EB800106EB95
:102450000110B0FBF5F000F0F006FEF7D7FB00EB43
:10246000C00101EB001061688900B0FBF1F0B0FB26
:10247000F5F006EB0016FEF7C9FB00EBC00101EB1F
:10248000001061688900B0FBF1F7FEF7BFFB3BE08D
:10249000FEF7ACFB00EBC00101EB001061688900A6
:1024A000B0FBF1F7FEF7A2FB00EBC00101EB00105F
:1024B0006168B0468900B0FBF1F0B0FBF5F06FF059
:1024C0001801484307EB800106EB0110B0FBF5F063
:1024D00000F0F006FEF78AFB00EBC00101EB0010F4
:1024E00061688900B0FBF1F0B0FBF5F006EB001677
:1024F000FEF77CFB00EBC00101EB00106168890076
:10250000B0FBF1F7FEF772FB00EBC00101EB00102E
:1025100061688900B0FBF1F0B0FBF5F06FF01801D5
:10252000484307EB800108EB0110B0FBF5F0216890
:1025300000F00F0030448860BDE8F08100380140B1
:1025400090F83910212901D0022070478168B1F537
:10255000805F016A0BD04A1C0262026809785160F0
:10256000C18C491E0904090CC1840ED017E00988EA
:102570000268C1F30801516001690029016A02D0B3
:10258000491C0162ECE7891CFBE70168CA6822F07C
:102590008002CA600068C16841F04001C16000204B
:1025A00070472DE9F041984617460E460446069DB1
:1025B0001DE0681C1BD02DB1FEF7A2F9A0EB0800AE
:1025C000A84214D92068C16821F4D071C160206884
:1025D000416921F001014161202084F8390084F82B
:1025E0003A00002084F838000320BDE8F08120681C
:1025F000006836EA000004D00020B842D9D000209C
:10260000F3E70120F9E700000148FEF755BE00009E
:1026100068040020FEE702E008C8121F08C1002A73
:10262000FAD170477047002001E001C1121F002A53
:10263000FBD1704770B51E4CA0690146FDF7CAFD7D
:102640004FF07E552946FDF7C2FD4FF4000290423F
:1026500001DA002002E0A84200DD2846154901F118
:1026600038054863296B914201DA81F00041124A32
:1026700091421CDD00F0DAF90146A06900F022F871
:102680000E4E3146FDF7A6FDC5F8E000D4E907017E
:10269000DC3500F017F83146FDF79CFD2860216815
:1026A000E06800F00FF80649FDF794FDA86070BDE2
:1026B0000402002004000020CDCC4C3D33336542A1
:1026C000333365C22DE9F05F0D46064610F0FF4F2B
:1026D00002D115F0FF4044D0304600F0A1F9834606
:1026E000284600F09DF9824601465846FDF716FE41
:1026F00002D25146584601E059465046FDF79CFD2E
:102700002749DFF8A09088421FDB0821FDF7D2FDA2
:102710004FF07C51FDF758FD0746FDF7E5FD0446F7
:10272000FDF7D4FD3946FDF752FD1F4A804602EB06
:10273000840052F8241040680F46FDF745FD4146DD
:10274000FDF748FD3946FDF7EDFC04465946504675
:10275000FDF7EEFD494614D28D4207D24E4502D216
:102760002046BDE8F09F84F00040FAE70F484E4550
:1027700001D2214601E001462046BDE8F05FFDF7A9
:1027800023BD8E4203D20A484D45F2D302E00948E8
:102790004D45EED22146BDE8F05FFDF7C3BC000019
:1027A0008180803B00008080DC2A0008DB0F4940EC
:1027B000DB0FC93FDB0FC9BF034908B1002000E0B0
:1027C0000120C1F8A0017047000021427CB50346FA
:1027D00015460C460120FFF7EFFF43F080008DF80F
:1027E00004000A20009001232A4601A90548FEF7AB
:1027F00045FC21462846FDF7F7FE0020FFF7DCFFE9
:102800007CBD00001004002010B5002207213720F5
:1028100000F016F800220621372000F011F80022FF
:102820000521372000F00CF801220421372000F0A8
:1028300007F801220021BDE810403820AFF30080E6
:10284000F8B515460E4604466A460121FFF7BEFF5D
:102850000123B3401DB19DF80000034303E09DF840
:10286000001021EA0303D9B28DF80010204600F0D1
:1028700001F8F8BD70B502460D460120FFF79CFF38
:1028800002F07F00FDF7BEFE04462846FDF7BAFEC3
:102890000020FFF791FF204670BD0000FEF73EF8D4
:1028A000FFF7DBFCFFF74CFAFFF7B0FA0E480D49D3
:1028B0000C2201604FF4E131416000218160C16070
:1028C000C0E904128161C161FEF77EFD00B1FEE73F
:1028D000FDF708FE0028FBD0FFF760FBFFF7B6FA14
:1028E000FCE7000000380140680400202DE9F84FA3
:1028F00000252C46FDF7F3FCDFF88080DFF880A090
:10290000DFF880904FF4000BA8F11007CDF800001D
:1029100009EB440037F91410B0F90A60701A002866
:1029200000DC881B00EB4000FDF7D0FC58F82410B9
:10293000FDF7F8FB01460098FDF749FC48F8240034
:10294000584501DA002003E00F49884200DD0846BF
:1029500048F82400504501DD6D1CEDB227F81460E5
:10296000641CE4B2032CD3D30848022D01D3002108
:1029700000E001218170BDE8F88F0000A401002073
:102980000000204198020020000048430000002081
:1029900070B5214B987800283CD02049C888401C4D
:1029A00082B203F19800CA80A0F118040568266875
:1029B000322A35440560456864682C444460A0F1BF
:1029C00030058468AD682C44846023D300229A705B
:1029D000124CCA803223114614F10E0450F82150D3
:1029E00095FBF3F524F8115040F82120491CC9B299
:1029F0000329F3D3B4F90010B4F90200494300FBF2
:102A00000010C0F58000FDF761FC00F00FF8FDF745
:102A10006BFCE08070BD0000980200208C0100205B
:102A200010F1FF4F01D380F00040704710B504460D
:102A300000F006F82146BDE81040FDF7CBBB0000D2
:102A400070B504464FF0FF31FDF734FC05461148E0
:102A5000A0EB640421462846FDF7BCFB2146FDF7A8
:102A6000B9FB4FF07F563146FDF7B1FB2146FDF72C
:102A7000B1FB044601462846FDF7ACFB2146FDF7B5
:102A8000A9FB3146FDF7A3FB2146BDE87040FDF7E9
:102A9000A1BB0000DF59375F2DE9F0410C46054628
:102AA000164649684068FDF795FB07462168286887
:102AB000FDF790FB3946FDF735FB3060616828680B
:102AC000FDF788FB074621686868FDF783FB3946F8
:102AD000FDF77AFB7060BDE8F081000000000000A7
:102AE0005680803BD37F003C77BE403CCF7D803C0E
:102AF0005B9BA03CA6B7C03C6ED2E03CB775003DE6
:102B00003581103D918B203DAB94303D609C403D24
:102B100092A2503D25A7603DF1A9703D6F55803DC3
:102B2000E354883D4753903D8C50983D9F4CA03DC9
:102B30007247A83DF740B03D1B39B83DD22FC03D8C
:102B40000C25C83DB218D03DC60AD83D2DFBDF3D4F
:102B5000D9E9E73DB0D6EF3DBEC1F73DDBAAFF3D69
:102B600004C9033E95BB073E20AD0B3E979D0F3E2B
:102B7000F58C133E397B173E56681B3E3E541F3E74
:102B8000F83E233E7728273EB4102B3EA1F72E3E79
:102B900045DD323E93C1363E7DA43A3E0A863E3E36
:102BA0002766423ED844463E12224A3EC7FD4D3E6D
:102BB000FED7513EAFB0553EC687593E4B5D5D3E98
:102BC0003731613E7C03653E1AD4683E0AA36C3EF1
:102BD0004770703EC83B743E8805783E86CD7B3E8C
:102BE000B5937F3E0EAC813E538D833EAE6D853EE8
:102BF000164D873E8D2B893E0F098B3E99E58C3E05
:102C00002BC18E3EC19B903E5475923EE94D943E41
:102C10007B25963E07FC973E8BD1993E02A69B3EB4
:102C20006F799D3ECD4B9F3E1C1DA13E57EDA23EB0
:102C30007FBCA43E8D8AA63E8457A83E6223AA3E4E
:102C400023EEAB3EC2B7AD3E4580AF3EA447B13E9A
:102C5000E20DB33EF9D2B43EE996B63EB159B83E64
:102C60004F1BBA3EC2DBBB3E079BBD3E1E59BF3E5B
:102C70000416C13EBCD1C23E3F8CC43E8E45C63E0A
:102C8000A4FDC73E89B4C93E336ACB3EA41ECD3EE7
:102C9000DAD1CE3ED583D03E9434D23E18E4D33E32
:102CA0005A92D53E603FD73E21EBD83EA395DA3EFF
:102CB000E33EDC3EE1E6DD3E9A8DDF3E0D33E13E54
:102CC0003AD7E23E227AE43EC51BE63E1BBCE73E15
:102CD0002F5BE93EF7F8EA3E7695EC3EA930EE3EF2
:102CE00093CAEF3E3563F13E86FAF23E8F90F43E92
:102CF0004925F63EB9B8F73EDA4AF93EAFDBFA3E6F
:102D0000386BFC3E71F9FD3E5A86FF3EFC88003F61
:102D1000234E013FA212023F7BD6023FAC99033FF4
:102D2000365C043F171E053F51DF053FE39F063F1A
:102D3000CE5F073F121F083FADDD083FA29B093F52
:102D4000EF580A3F94150B3F93D10B3FE98C0C3F92
:102D50009A470D3FA2010E3F03BB0E3FBF730F3FCB
:102D6000D32B103F41E3103F089A113F2A50123FE6
:102D7000A405133F79BA133FA86E143F3322153FC1
:102D800018D5153F5787163FF138173FE7E9173F2A
:102D9000389A183FE749193FEFF8193F55A71A3FEE
:102DA00018551B3F37021C3FB3AE1C3F8E5A1D3FC8
:102DB000C4051E3F5AB01E3F4E5A1F3FA103203F7D
:102DC00052AC203F6354213FD3FB213FA4A2223FBA
:102DD000D548233F67EE233F5A93243FAD37253F25
:102DE00063DB253F7A7E263FF420273FD2C2273F70
:102DF0001364283FB704293FBFA4293F2C442A3F2E
:102E0000FEE22A3F33812B3FD11E2C3FD2BB2C3F09
:102E10003C582D3F0CF42D3F438F2E3FE1292F3F8F
:102E2000E9C32F3F595D303F33F6303F758E313F58
:102E30002126323F39BD323FBB53333FA9E9333FEF
:102E4000027F343FC713353FF9A7353F993B363FE3
:102E5000A6CE363F2161373F0BF3373F6484383FBE
:102E60002E15393F65A5393F0F353A3F2AC43A3F01
:102E7000B4523B3FB3E03B3F226E3C3F06FB3C3F3E
:102E80005D873D3F26133E3F679E3E3F1A293F3FE9
:102E900044B33F3FE43C403FF9C5403F864E413F8D
:102EA00089D6413F065E423FFAE4423F676B433FAB
:102EB0004FF1433FB076443F8CFB443FE27F453FB8
:102EC000B403463F0187463FCB09473F138C473F3A
:102ED000D70D483F198F483FDD0F493FDD0F493F70
:102EE00000000000000000000102030406070809BA
:102EF0000000000001020304182F00080000002059
:102F0000C4010000D8030008582F0008C4010020A5
:102F1000E406000026260008013E03E6803F29E87B
:102F200089041A0101011813E51B6408D0071AE788
:102F30000C6370171AEB0C63F82A1AED0C63204E21
:102F400013191C04200850C38BFA430421297D82E5
:082F5000100400A24A04000075
:04000005080000ED02
:00000001FF
